:100000000C945E010C947F010C947F010C947F0191
:100010000C947F010C94390F0C947F010C947F0198
:100020000C947F010C947F010C947F010C947F0150
:100030000C947F010C94E6100C947F010C947F01CA
:100040000C947F010C94B1100C947F010C947F01EF
:100050000C947F010C947F010C947F010C947F0120
:100060000C947F010C94AE120C947F010C947F01D0
:100070000C947F010C947F010C947F010C947F0100
:100080000C947F010C947F010C947F010C947F01F0
:100090000C947F010C947F010C947F010C947F01E0
:1000A0000C947F010C947F010C947F010C947F01D0
:1000B0000C947F010C94270F0C947F010C947F010A
:1000C0000C947F010C947F010C947F010C947F01B0
:1000D0000C947F010C947F010C947F010C947F01A0
:1000E0000C947F01B80178027802780278027802D5
:1000F00078027802780278027802F001F8010202B0
:100100000A0215021F0229027802780233023C0219
:100110004502780278027802780278027802780242
:100120004B0253025B0264026D020C942F0A0C9482
:1001300053020C942A090C9464020C946B090C94DD
:100140005B020C94F0010C94B8010C944B020C94DB
:1001500015020C940A020C9429020C94F8010C94D8
:100160003C020C94440A0C9402020C941F020C945E
:1001700004090C946D020C9478020C947E090C9482
:1001800045020C9433024E414E494E495459494E52
:1001900046CDCCCC3D0AD7233C17B7D13877CC2BF2
:1001A000329595E6241FB14F0A000020410000C897
:1001B0004200401C4620BCBE4CCA1B0E5AAEC59D18
:1001C0007400407A10F35A00A0724E18090010A56E
:1001D000D4E80000E87648170000E40B5402000061
:1001E000CA9A3B000000E1F50500008096980000E7
:1001F0000040420F000000A0860100000010270010
:10020000000000E803000000006400000000000A95
:1002100000000000000100000000002C76D888DCFF
:10022000674F0823DFC1DFAE59E1B1B796E5E3E4DC
:1002300053C63AE651997696E8E6C28426EB898C55
:100240009B62ED407C6FFCEFBC9C9F40F2BAA56FB7
:10025000A5F490055A2AF75C936B6CF9676DC11B86
:10026000FCE0E40D47FEF520E6B500D0ED902E034E
:1002700000943577050080841E080000204E0A0097
:100280000000C80C333333330F986E12831141EFE3
:100290008D2114893BE65516CFFEE6DB18D1844B41
:1002A000381BF77C1D901DA4BBE424203284725EB1
:1002B000228100C9F124ECA1E53D270011241FBED5
:1002C000CFEFD1E2DEBFCDBF00E00CBF16E0A0E073
:1002D000B2E0E0E7F8E300E00BBF02C007900D9248
:1002E000AE34B107D9F727E0AEE4B6E001C01D9205
:1002F000AD32B207E1F70E94550A0C94361C0C94FB
:100300000000806480937C0085EC80937A0080916B
:100310007A0086FDFCCF10927A008091780090914F
:1003200079000895CF92DF92EF92FF920F931F937F
:10033000CF93DF931F92CDB7DEB76C0101960E9479
:10034000C112082F84E0C80ED11CC6010E945D179F
:100350007C01C601E9820E94591710E049810332ED
:10036000110508F0C5C0F801EE58FF4F0C94A41415
:10037000FF24E1E0EE16F104D1F04CF4EF2869F52A
:1003800010927406109276061092770621C082E0D1
:10039000E816F104A1F0E3E0EE16F104F1F483E0D5
:1003A000809374068AE0809376068CE30FC081E028
:1003B0008093740682E08093760685E007C082E031
:1003C0008093740684E0809376068FE080937706AE
:1003D0000E94B803109275068FC08EE392E08AC027
:1003E0004C3318F46E2D82E007C082E592E082C0A3
:1003F0004C3328F46E2D83E00E945E0E7DC086E6AD
:1004000092E078C0483118F46E2D84E0F5CF8AE789
:1004100092E070C0C6010E945D17873018F4682F03
:1004200086E0EACF8EE892E065C08FEF8E0D8F31C7
:1004300018F46E2D85E0E0CF84EA92E05BC08FEF88
:100440008E0D8C3018F46E2D87E0D6CF86EB92E0BF
:1004500051C080EF8E0D833518F46E2D88E0CCCF1F
:100460008AEC92E047C06093A6067093A70680933B
:10047000A8069093A90639C06093AA067093AB06AC
:100480008093AC069093AD0630C0FF24F092BB067B
:10049000E092BA062AC0493078F5FF24F092CD06E2
:1004A000E092CC0622C0493038F5FF24F092CF0606
:1004B000E092CE061AC06093D0067093D106809366
:1004C000D2069093D30611C06093D4067093D506DC
:1004D0008093D6069093D70608C06093D806709391
:1004E000D9068093DA069093DB060E94B80304C015
:1004F0008FED92E00E949B128091F0069091F106A0
:100500000E94570D0F90DF91CF911F910F91FF9097
:10051000EF90DF90CF900C94CB120F931F93CF935B
:10052000DF931F92CDB7DEB78B0149830E949B12E8
:1005300085E493E00E949B12C8010E949B124981AE
:10054000413049F483E093E00F90DF91CF911F9108
:100550000F910C949B120F90DF91CF911F910F91EF
:1005600008959F92AF92BF92CF92DF92EF92FF9247
:100570000F931F93CF93DF93CDB7DEB764970FB67A
:10058000F894DEBF0FBECDBF5B0169017A01902EEA
:100590000E949B1285E493E00E949B12C5010E9479
:1005A0009B1285E493E00E949B128E010F5F1F4F08
:1005B00021E040E0C701B6010E9438170E949B125B
:1005C00081E0981204C083E093E00E949B1264963D
:1005D0000FB6F894DEBF0FBECDBFDF91CF911F9154
:1005E0000F91FF90EF90DF90CF90BF90AF909F90D2
:1005F0000895EF92FF920F931F93CF93DF93CDB7A0
:10060000DEB765970FB6F894DEBF0FBECDBF7B0196
:100610008A012D8B0E949B1285E493E00E949B121D
:10062000C7010E949B1285E493E00E949B124AE05E
:10063000BE016F5F7F4FC8010E9496170E949B12F8
:100640002D89213021F483E093E00E949B1265966E
:100650000FB6F894DEBF0FBECDBFDF91CF911F91D3
:100660000F91FF90EF900895AF92BF92CF92DF92DB
:10067000EF92FF920F93CF93DF93CDB7DEB76497DE
:100680000FB6F894DEBF0FBECDBF5B0169017A01E2
:100690000E949B1285E493E00E949B12C5010E9478
:1006A0009B1285E493E00E949B122AE0AE014F5F0B
:1006B0005F4FC701B6010E94A1170E949B12013033
:1006C00021F483E093E00E949B1264960FB6F894A5
:1006D000DEBF0FBECDBFDF91CF910F91FF90EF90A6
:1006E000DF90CF90BF90AF90089560E080E090E001
:1006F0000E94081860E070E081E090E00E942618F7
:1007000060E083E090E00E94081840E050E0BA0109
:1007100080E290E00E941A1840E050E0BA0184E2C2
:1007200090E00E941A1860E080E390E00E940818B0
:1007300060E081E390E00E94081840E050E0BA01D8
:1007400080E490E00E941A1840E050E0BA0185E48D
:1007500090E00E941A1840E050E0BA018AE490E06C
:100760000E941A1860E070E080E590E00C94261872
:100770006091740680E090E00E940818609176060F
:1007800070E081E090E00E9426186091770683E097
:1007900090E00E9408184091A6065091A70660912B
:1007A000A8067091A90680E290E00E941A18409174
:1007B000AA065091AB066091AC067091AD0684E23A
:1007C00090E00E941A186091CC0680E390E00E94AD
:1007D00008186091CE0681E390E00E9408184091CD
:1007E000D0065091D1066091D2067091D30680E474
:1007F00090E00E941A184091D4065091D50660915D
:10080000D6067091D70685E490E00E941A184091B0
:10081000D8065091D9066091DA067091DB068AE419
:1008200090E00E941A186091BA067091BB0680E5AC
:1008300090E00C94261880E090E00E94F4178093DA
:10084000740681E090E00E9402188093760683E0AF
:1008500090E00E94F4178093770680E290E00E9477
:10086000FC176093A6067093A7068093A806909342
:10087000A90684E290E00E94FC176093AA06709398
:10088000AB068093AC069093AD0680E390E00E94A7
:10089000F41790E09093CD068093CC0681E390E02E
:1008A0000E94F41790E09093CF068093CE0680E4E8
:1008B00090E00E94FC176093D0067093D10680935D
:1008C000D2069093D30685E490E00E94FC176093D3
:1008D000D4067093D5068093D6069093D7068AE403
:1008E00090E00E94FC176093D8067093D90680931D
:1008F000DA069093DB0680E590E00E940218909360
:10090000BB068093BA0608950F931F93CF93DF938E
:10091000CDB7DEB72C970FB6F894DEBF0FBECDBFB4
:10092000609186067091870680918806909189066D
:100930008E010F5F1F4F23E040E00E9438170E9496
:100940009B128FEE92E00E949B1260918A0670913A
:100950008B0680918C0690918D0623E040E00E94EA
:1009600038170E949B128FEE92E00E949B126091BA
:100970008E0670918F06809190069091910623E0EB
:1009800040E00E9438170E949B128FEE92E00E9476
:100990009B126091920670919306809194069091BB
:1009A000950623E040E00E9438170E949B128FEECC
:1009B00092E00E949B12609196067091970680913A
:1009C00098069091990623E040E00E9438170E9413
:1009D0009B1283E093E00E949B122FEF81EE94E044
:1009E000215080409040E1F700C000002C960FB6E7
:1009F000F894DEBF0FBECDBFDF91CF911F910F9155
:100A000008958EE580937C0080917B00877F8093A2
:100A10007B008FE39FE10197F1F700C00000809118
:100A20007A00806480937A0080917A0086FDFCCF02
:100A3000809178002091790030E0322F22274427DE
:100A400037FD4095542F282B60E070E381E190E062
:100A50000E948514CA01B90108952F923F924F92C6
:100A60005F926F927F928F929F92AF92BF92CF923E
:100A7000DF92EF92FF920F931F93CF93DF93CDB747
:100A8000DEB760970FB6F894DEBF0FBECDBF9E876E
:100A90008D878B010E94010569877A878B879C87E8
:100AA0000E94CD10C0907206D0907306E12CF12CFC
:100AB000980140E050E02D833E834F83588780911A
:100AC000CC060E9481019093030780930207BC012A
:100AD000882777FD8095982F0E94CA154B015C01ED
:100AE0002DEC3CEC4CE054E40E94301587FF0BC029
:100AF00011E026E636E646EE53E4C501B4010E9455
:100B00007A1618160CF010E0809172069091730618
:100B10009C0140E050E029833A834B835C83DA01F7
:100B2000C9018C199D09AE09BF092D813E814F81F4
:100B30005885281739074A075B0728F4188A1F8643
:100B400000E010E060C1112309F4B9CFF7CF809124
:100B5000720690917306A0E0B0E029813A814B8142
:100B60005C81821B930BA40BB50B2D813E814F81C1
:100B7000588582179307A407B50708F04AC14F8527
:100B800058894F5F5F4F588B4F8780910C0790912A
:100B90000D07A0910E07B0910F0780931007909357
:100BA0001107A0931207B09313078091CC060E94FF
:100BB00081019093F9068093F8068091CE060E94F9
:100BC00081013C0190931607809315072090F80649
:100BD0003090F906B101882777FD8095982F0E9403
:100BE000CA156B017C0180901F0790902007A09090
:100BF0002107B0902207A50194010E94CB1420E0A8
:100C000030E040E85AE30E947E169B01AC01C5012A
:100C1000B4010E94CC149B01AC0160931F07709338
:100C200020078093210790932207C701B6010E94F5
:100C3000CB144B015C0160930C0770930D078093FC
:100C40000E0790930F07B301882777FD8095982FA3
:100C50000E94CA156B017C014090FA065090FB0679
:100C60006090FC067090FD06A30192010E94CB14D7
:100C700020E030E040E85AE30E947E169B01AC0180
:100C8000C301B2010E94CC149B01AC016093FA062F
:100C90007093FB068093FC069093FD06C701B60196
:100CA0000E94CB146B017C016093040770930507CD
:100CB0008093060790930707A5019401C501B4012D
:100CC0000E947E169B01AC0160932307709324075A
:100CD0008093250790932607609108077091090774
:100CE00080910A0790910B070E94CC14609308072B
:100CF0007093090780930A0790930B07A701960149
:100D0000C701B6010E947E169B01AC0160931B07D0
:100D100070931C0780931D0790931E07609117071F
:100D2000709118078091190790911A070E94CC14AE
:100D300060931707709318078093190790931A0709
:100D400040901007509011076090120770901307A1
:100D5000A3019201C501B4010E94CB142091D806D1
:100D60003091D9064091DA065091DB060E947E163A
:100D70009B01AC01C301B2010E94CC146093FE063A
:100D80007093FF068093000790930107A7019601D7
:100D90000E947E169B01AC01609327077093280781
:100DA0008093290790932A076091F3067091F406C7
:100DB0008091F5069091F6060E94CC146093F3069C
:100DC0007093F4068093F5069093F60680911407CD
:100DD0008093F7068091020790910307821593058F
:100DE0000CF03CC151E05093140780911407AF857B
:100DF000B889119711F48093F7069091F706981728
:100E000011F00F5F1F4FED85FE850E171F0708F4C9
:100E10009ECE29853A85B901882777FD8095982F40
:100E20000E94CA1520E030E04AE754E40E943415DD
:100E300020E030E040E85AE30E947E166B017C011E
:100E40002091D0063091D1064091D2065091D30620
:100E50000E947E162B013C014F855889BA0180E023
:100E600090E00E94C8154B015C019B01AC016091B0
:100E700008077091090780910A0790910B070E945B
:100E800034150E94E5169B01AC01C301B2010E941A
:100E90007E1669837A838B839C8360938E0670931E
:100EA0008F0680939006909391062091D4063091FE
:100EB000D5064091D6065091D706C701B6010E94CB
:100EC0007E166D837E838F839887A5019401609140
:100ED0001707709118078091190790911A070E94BF
:100EE00034150E94E5169B01AC016D817E818F81D6
:100EF00098850E947E1669877A878B879C87609386
:100F00009206709393068093940690939506609151
:100F1000760670E080E090E00E94CA156B017C01CB
:100F20002D813E814F815885C301B2010E947E16FA
:100F30002091F3063091F4064091F5065091F606A3
:100F40000E947E16A50194010E943415A701960106
:100F50000E943415209186063091870640918806BC
:100F6000509189060E94CC144B015C016093860667
:100F700070938706809388069093890629853A8521
:100F80004B855C8569817A818B819C810E947E166C
:100F9000A70196010E94341520918A0630918B0694
:100FA00040918C0650918D060E94CC149B01AC019F
:100FB00060938A0670938B0680938C0690938D06BF
:100FC000C501B4010E943415A70196010E94341591
:100FD0009B01AC01609196067091970680919806EE
:100FE000909199060E94CC14609396067093970690
:100FF000809398069093990610920807109209071B
:1010000010920A0710920B071092170710921807F8
:101010001092190710921A071092F3061092F40614
:101020001092F5061092F60660960FB6F894DEBFA1
:101030000FBECDBFDF91CF911F910F91FF90EF9029
:10104000DF90CF90BF90AF909F908F907F906F90E8
:101050005F904F903F902F900C94031110921407C3
:10106000C4CE4F925F926F927F928F929F92AF9277
:10107000BF92CF92DF92EF92FF920F931F93CF9385
:10108000DF938C010E9401052B013C01C0E0D0E000
:10109000C017D10709F461C08091CE060E9481017A
:1010A0009093160780931507BC01882777FD8095DC
:1010B000982F0E94CA156B017C018090FA069090CF
:1010C000FB06A090FC06B090FD06A50194010E94CD
:1010D000CB1420E030E040E85AE30E947E169B01EA
:1010E000AC01C501B4010E94CC149B01AC0160931A
:1010F000FA067093FB068093FC069093FD06C701E9
:10110000B6010E94CB146093040770930507809387
:101110000607909307079B01AC010E947E169B0176
:10112000AC0160931B0770931C0780931D0790937D
:101130001E07609117077091180780911907909109
:101140001A070E94CC1460931707709318078093B6
:10115000190790931A0721969BCFBE0180E090E07B
:101160000E94C8159B01AC01609117077091180788
:101170008091190790911A070E9434150E94E51674
:101180006B017C01B201882777FD8095982F0E9422
:10119000CA1520E030E04AE754E40E94341520E00C
:1011A00030E040E85AE30E947E162091D406309148
:1011B000D5064091D6065091D7060E947E16A7010B
:1011C00096010E947E166093920670939306809318
:1011D0009406909395061092170710921807109294
:1011E000190710921A07DF91CF911F910F91FF906D
:1011F000EF90DF90CF90BF90AF909F908F907F90B7
:101200006F905F904F90089561EF72E082E696E0F4
:101210000E948617892B19F40E94CB1211C080916D
:101220006206843249F4809165068D3329F482E6A2
:1012300096E00E94920104C084EF92E00E949B120B
:10124000109260061092620610924F0684E080931E
:101250006E060895CF938091DE068130D1F40E940E
:101260009A0E80917506811104C088E796E00E946D
:10127000690E88E796E00E948A0F88E796E00E9450
:10128000BB0F64E873E088E090E00E942D051092A7
:10129000DE06C091DD06C13099F41092DD0688E7C4
:1012A00096E00E94BD0E809175068F5F8093750653
:1012B00090917606891304C010927506C0936C064F
:1012C00080916C06813011F482E001C084E080934B
:1012D0006E06CF9108958091F0069091F1060E94DC
:1012E000570D10926C0680914F06882319F01092CA
:1012F0006E06089583E080936E0608950F931F9302
:10130000CF93DF93CDB7DEB7EE970FB6F894DEBF7D
:101310000FBECDBF8091DC064AE0BE016D5C7F4F01
:1013200090E00E949617BC01CE0101960E948F1793
:101330006FEE72E0CE0101960E947B1760917C06F1
:1013400070917D0680917E0690917F068E010D5CE6
:101350001F4F21E040E00E943817BC01CE010196EA
:101360000E947B176FEE72E0CE0101960E947B1700
:101370004AE0B80180918406909185060E949617F4
:10138000BC01CE0101960E947B176FEE72E0CE0188
:1013900001960E947B1760919E0670919F06809136
:1013A000A0069091A10621E040E00E943817BC0100
:1013B000CE0101960E947B176FEE72E0CE0101967E
:1013C0000E947B1760918A0670918B0680918C0633
:1013D00090918D0620E040E00E943817BC01CE01BC
:1013E00001960E947B176FEE72E0CE0101960E947B
:1013F0007B17609186067091870680918806909190
:10140000890620E040E00E943817BC01CE01019619
:101410000E947B1763E073E0CE0101960E947B1768
:10142000CE0101960E949B1280914F06882319F0ED
:1014300010926E0609C08091DE06882311F081E0CB
:1014400001C084E080936E06EE960FB6F894DEBF7E
:101450000FBECDBFDF91CF911F910F910895809165
:101460004F06882319F010926E0608958091DE06CB
:10147000813021F08091DD06813011F481E001C0DE
:1014800084E080936E06089580914F06882319F0BA
:1014900010926E0608958091DE06882311F081E097
:1014A00001C084E080936E06089510920A011092A4
:1014B0006D0685E080936F0680936E06109271062C
:1014C00010927006109275061092730610927206B2
:1014D00083E08093DC060E941B0488E796E00E946C
:1014E000690E8FED96E09093F1068093F0061092CE
:1014F000610610924F061092DE061092DD061092E1
:10150000EC0610926C061092F20610925F0681E0D3
:101510008093ED06109252061092530610925406D4
:1015200080935806809359068FE080935A0680E096
:101530009EE8A4EAB4E580935B0690935C06A093D2
:101540005D06B0935E060E94890C10924E061092C2
:10155000F206109260068FEC90E090935106809313
:1015600050060E9482120E949E107894CAE064E89D
:1015700073E088E090E00E942D05C150C1F7D1E0F2
:1015800080916D06843621F4D093EC0610926D069E
:1015900080916106813089F4E0916E06F0E0EE0FF3
:1015A000FF1FE050FE4F0190F081E02D1995109241
:1015B000610680916E0680936F06C091F206C1307D
:1015C00041F580914E06E0916006F0E0EE59F94F4A
:1015D00080830E9494129091600681E0890F80932D
:1015E000600680914E06883021F4915090936006F9
:1015F0000EC08D3061F483E093E00E949B12E09175
:101600006006F0E0EF59F94F1082C0934F06109238
:10161000F2064091EC06413009F0B2CF809170069D
:1016200090917106019690937106809370062091B7
:101630007406222361F02091770630E08217930729
:1016400031F44093DE0610927106109270061092EB
:10165000EC0696CFCF93DF93EC0141E066E473E0B4
:10166000CB010E948D0241E066E073E0CB010E9455
:101670008D0240E066E473E086E193E00E948D0213
:10168000BE016D5F7F4F41E083E094E00E948D02D8
:10169000488150E021E063E074E08FE193E00E9434
:1016A000F902498150E021E063E074E088E293E0D0
:1016B0000E94F9024A8150E021E063E074E081E396
:1016C00093E00E94F9024E8150E021E063E074E073
:1016D00089E393E00E94F9024F8150E021E063E04A
:1016E00074E08FE393E00E94F902488550E021E026
:1016F00063E074E087E493E00E94F90241E066E071
:1017000073E0CB010E948D0241E066E473E0CB01FF
:10171000DF91CF910C948D028F929F92BF92CF92C6
:10172000DF92EF92FF920F931F93CF93DF934C01C1
:10173000EB01B42E6801790141E066E473E0CB016E
:101740000E948D0240E066E073E0CB010E948D02B2
:1017500040E066E073E0CB010E948D0241E066E06C
:1017600073E0CB010E948D02F401408550E020E03F
:1017700063E074E08EE493E00E94F902488550E053
:1017800020E063E074E08AE593E00E94F902488576
:1017900050E0F4018085481B510921E063E074E0CA
:1017A00085E693E00E94F902F401478150E020E0D1
:1017B00063E074E082E793E00E94F9024F8150E019
:1017C00020E063E074E08FE793E00E94F9024F812C
:1017D00050E0F4018781481B510921E063E074E087
:1017E00085E693E00E94F902F401468150E020E092
:1017F00063E074E08BE893E00E94F9024E8150E0D0
:1018000020E063E074E086E993E00E94F9024E81F3
:1018100050E0F4018681481B510921E063E074E047
:1018200085E693E00E94F90240E066E073E0CB01B8
:101830000E948D0240E066E073E0CB010E948D02C1
:1018400041E066E073E0CB010E948D02C701B60162
:101850000E949C159B01AC0101E060EA73E082EA02
:1018600093E00E94340320915B0630915C06409126
:101870005D0650915E0660EA73E084EB93E00E949F
:10188000340329853A854B855C8560EA73E085ECF5
:1018900093E00E94340340E066E073E0CB010E94D5
:1018A0008D0240E066E073E0CB010E948D0241E0D2
:1018B00066E073E0CB010E948D024B2D50E021E0E9
:1018C00063E074E087ED93E00E94F90240E066E097
:1018D00073E0CB010E948D0240E066E073E0CB0133
:1018E0000E948D0241E066E073E0CB010E948D0210
:1018F00041E066E473E0CB01DF91CF911F910F913E
:10190000FF90EF90DF90CF90BF909F908F900C94BE
:101910008D020C9406119C0183709927892B91F4F8
:10192000C90164E670E00E944F14892B49F4C90193
:1019300060E971E00E944F1421E0892B21F002C080
:1019400021E001C020E0822F08953F924F925F92E4
:101950006F927F928F929F92AF92BF92CF92DF92BF
:10196000EF92FF920F931F93CF93DF93CDB7DEB724
:1019700067970FB6F894DEBF0FBECDBF6C018B0129
:1019800086E1E8E2F2E0DE01119601900D928A957F
:10199000E1F7FB018084F6014084912C512CC401B5
:1019A000841995092DE631E0829F7001839FF00C28
:1019B000929FF00C11240297BCF03201660C771C48
:1019C000A12CB12C312CC501840D951D88159905CC
:1019D00060F4C501860D971D0E948B0C8111339414
:1019E000FFEFAF1ABF0AEFCF312CF8012781233068
:1019F00058F0C4012F8B0E948B0C2F89882331F063
:101A00003394E30CF11C02C0223059F4FE013196EC
:101A1000E20FF11DE20FF11D349780819181E80EF4
:101A2000F91EF801A681B0E0F6018681A81BB10974
:101A3000AE0DBF1D20E831E541E050E00E94B11439
:101A40006B017C01F8012281FCE32F9F900111249E
:101A5000442737FD4095542FF8018181280F311D0F
:101A6000411D511DACE3B0E00E94B1142081620F12
:101A7000711D811D911D6C0D7D1D8E1D9F1D679615
:101A80000FB6F894DEBF0FBECDBFDF91CF911F918F
:101A90000F91FF90EF90DF90CF90BF90AF909F900D
:101AA0008F907F906F905F904F903F900895BF927E
:101AB000CF92DF92EF92FF920F931F93CF93DF931A
:101AC000CDB7DEB727970FB6F894DEBF0FBECDBFF8
:101AD0008C01FE013196CE0108969F011192E81704
:101AE000F907E1F747E062E082EA0E941412B82E9B
:101AF0004C81442309F47FC02981822F8077869509
:101B000086958695982F990F990F980F2F70920FA1
:101B1000D8019C932A81822F807786958695869519
:101B2000982F990F990F980F2F70920F11969C93E1
:101B300011972B81822F8073869586958695982F95
:101B4000990F990F980F2F70920F12969C931297DE
:101B50002D81277030E0F901EE0FFF1FE20FF31F18
:101B6000E05FFD4F808113968C93139781811496CB
:101B70008C93149715961C921597842F80738695D5
:101B800086958695982F990F990F980F4F70940FFF
:101B900016969C9316978E8184FB222720F9220F9C
:101BA000922F990F990F920F8F70980F17969C9301
:101BB0008F81982F92959F708F70BAE09B9F800DB8
:101BC0001124F8018087B80182E596E00E94A50CF7
:101BD000C0905B06D0905C06E0905D06F0905E06DB
:101BE0006C0D7D1D8E1D9F1DD80119966D937D93E3
:101BF0008D939C931C978B2D27960FB6F894DEBF80
:101C00000FBECDBFDF91CF911F910F91FF90EF904D
:101C1000DF90CF90BF900895FC0190819295907FC6
:101C200081818053892B08956AE00E944314292FF3
:101C300030E1839FC0011124822B08950F931F93DD
:101C4000CF93DF93CDB7DEB727970FB6F894DEBFFB
:101C50000FBECDBF8C010B960E940C0E8983C8016C
:101C600009960E940C0E8A83C80107960E940C0EEA
:101C70008B83F8012191CF0120532D830E940C0EFC
:101C80008C83C80103960E940C0E8E83C8010596B2
:101C90000E940C0E8F839E012F5F3F4F47E062E052
:101CA00082EA0E94C41127960FB6F894DEBF0FBED9
:101CB000CDBFDF91CF911F910F910895CF93C82F82
:101CC000862F0E94140E482F6C2F82EACF910C941D
:101CD0004611FC0110821182128213821482158235
:101CE0001682178210861186128613861586148630
:101CF00016861786108A118A128A138A148A158A00
:101D0000168E178E10A211A2168A178A108E118EA7
:101D1000128E138E148E158E12A213A214A215A267
:101D200016A217A210A611A612A613A614A615A6EF
:101D300008950895109278061092790610927A0606
:101D400010927B06EAE6F0E0808182608083EC9A64
:101D5000E4EAF0E011821082A1EAB0E08C918560A3
:101D60008C93A2E7B0E08C9181608C93808191810B
:101D70009093EF068093EE060895CF92DF92EF9254
:101D8000FF922DEB37E346E850E4609178067091BE
:101D9000790680917A0690917B060E9434156B013A
:101DA0007C01609378067093790680937A0690930D
:101DB0007B0620E030E0A9010E943015882309F459
:101DC00041C02091A6063091A7064091A8065091E7
:101DD000A906C701B6010E947E162091AA0630917D
:101DE000AB064091AC065091AD060E94CC146B013D
:101DF0007C01609378067093790680937A069093BD
:101E00007B066091760670E080E090E00E94CA1543
:101E10009B01AC01C701B6010E9434159B01AC01C6
:101E200060917C0670917D0680917E0690917F0680
:101E30000E94CC1460937C0670937D0680937E068E
:101E400090937F06FF90EF90DF90CF9008951F92C0
:101E50000F920FB60F9211248F931DBA1092A1000A
:101E600081E08093DD068F910F900FBE0F901F9041
:101E700018951F920F920FB60F9211240BB60F9266
:101E80002F933F934F935F936F937F938F939F9382
:101E9000AF93BF93EF93FF938091A4009091A5001F
:101EA0002091EE063091EF06821B930B8B3391400D
:101EB000F0F020E030E040E85FE360917806709158
:101EC000790680917A0690917B060E94CC146093EB
:101ED00078067093790680937A0690937B068091BA
:101EE000A4009091A5009093EF068093EE06FF91D9
:101EF000EF91BF91AF919F918F917F916F915F9182
:101F00004F913F912F910F900BBE0F900FBE0F90EE
:101F10001F901895CF93DF93EC0180E00E94810120
:101F200027E631E0DC010E94AA142FE433E040E010
:101F300050E00E9463148091BA069091BB06280F6E
:101F4000391F411D511DCA01B90128E631E040E0A9
:101F500050E00E9463142091760630E040E050E0AB
:101F60000E9463148C859D85820F931F9D878C87AB
:101F7000DF91CF910895CF92DF92EF92FF92CF93AE
:101F8000DF93EC0181E00E948101BC01882777FD8D
:101F90008095982F0E94CA1520E030E040EA50E476
:101FA0000E947E1620E030E040E85AE30E947E1650
:101FB0002AEA3AEA46E252EC0E947E1620E030E03D
:101FC00048E452E40E94CC146B017C0160917606D7
:101FD00070E080E090E00E94CA159B01AC01C7014F
:101FE000B6010E9434159B01AC016EA17FA188A5AA
:101FF00099A50E94CC146EA37FA388A799A7DF910F
:10200000CF91FF90EF90DF90CF90089582E00E94F3
:102010008101BC01882777FD8095982F0E94CA1501
:1020200020E030E040EA50E40E947E1620E030E0FC
:1020300040E85AE30E947E16089584E00E948101E0
:10204000BC01882777FD8095982F0E94CA1520E053
:1020500030E040EA50E40E947E1620E030E040E8A4
:102060005AE30E947E160895CF92DF92EF92FF927C
:10207000CF93C4E6C12CD12C760182E00E9481016D
:10208000BC01882777FD8095982F0E94CA159B0177
:10209000AC01C701B6010E94CC146B017C01C15098
:1020A00061F720E030E048EC52E40E94341520E073
:1020B00030E040EA50E40E947E1620E030E040E844
:1020C0005AE30E947E16CF91FF90EF90DF90CF9061
:1020D0000895CF92DF92EF92FF92CF93C4E6C12C86
:1020E000D12C760184E00E948101BC01882777FD14
:1020F0008095982F0E94CA159B01AC01C701B601BB
:102100000E94CC146B017C01C15061F720E030E0EB
:1021100048EC52E40E94341520E030E040EA50E4FC
:102120000E947E1620E030E040E85AE30E947E16CE
:10213000CF91FF90EF90DF90CF90089581E792E0EC
:102140009093890080938800EFE6F0E080818260C0
:10215000808310928000E1E8F0E080818C608083D1
:1021600008951F920F920FB60F9211240BB60F9283
:102170008F93EF93FF9381E080936106EDE6F6E0A5
:1021800080818F5F8083FF91EF918F910F900BBEC5
:102190000F900FBE0F901F9018951092730610921B
:1021A00072061092B2008AEF8093B300E0EBF0E089
:1021B000808182608083E0E7F0E0808182608083BC
:1021C000E1EBF0E080818460808308951F920F929C
:1021D0000FB60F9211240BB60F928F939F93EF932C
:1021E000FF93E2E7F6E080819181019691838083FD
:1021F000FF91EF919F918F910F900BBE0F900FBEAB
:102200000F901F9018951092B10008951092B90088
:1022100088E48093B80084E08093BC0080E0089557
:1022200084EA8093BC008091BC0087FFFCCF0895B6
:1022300084EA8093BC008091BC0087FFFCCF0895A6
:1022400084E98093BC0008958093BB0084E8809368
:10225000BC008091BC0087FFFCCF089584EC809384
:10226000BC008091BC0087FFFCCF8091BB0008952B
:1022700084E88093BC008091BC0087FFFCCF8091F4
:10228000BB0008958091B900887F08950F931F9334
:10229000CF93DF931F92CDB7DEB7162F042F89831C
:1022A0000E9410119091B900987F89819830E1F4D3
:1022B0000E9424119091B900987F9831B9F4812F30
:1022C0000E9424111091B900187F183289F4802FD0
:1022D0000E9424118091B900887F883251F484E9EA
:1022E0008093BC0010E005C018E003C018E101C0F5
:1022F00019E1812F0F90DF91CF911F910F910895D8
:10230000CF93DF93C82FD62F0E9410119091B90060
:10231000987F983059F58C2F0E9424119091B90024
:10232000987F983129F58D2F0E9424119091B90042
:10233000987F9832F9F40E9418119091B900987F13
:102340009031D1F481E08C0F0E9424118091B9006A
:10235000887F803499F40E9438119091B900987F59
:10236000983571F494E99093BC000BC088E009C0E3
:1023700088E107C088E205C080E103C080E401C0B5
:1023800088E5DF91CF910895AF92BF92DF92EF92EF
:10239000FF920F931F93CF93DF931F92CDB7DEB7BA
:1023A000162FF42E022FE32E89830E941011909194
:1023B000B900987F8981983031F50E94241190915D
:1023C000B900987F983109F5812F0E94241110914E
:1023D000B900187F1832D9F4D02EA02EBE2C8A2D29
:1023E0008D198F1558F4F50181915F010E94241118
:1023F0008091B900887F883291F30AC084E9809384
:10240000BC0010E005C018E003C018E101C019E1EC
:10241000812F0F90DF91CF911F910F91FF90EF903F
:10242000DF90BF90AF900895DF92EF92FF920F93ED
:102430001F93CF93DF93D82FF62EC42F89010E94CC
:1024400010119091B900987F983009F046C08D2FF7
:102450000E9424119091B900987F983109F03FC0F3
:102460008F2D0E9424119091B900987F9832C9F560
:102470000E9418119091B900987F9031A1F581E0E8
:102480008D0F0E9424118091B900887F803469F5F6
:10249000D12CD0E021978D2D90E08C179D0774F4FE
:1024A0007801E80EF91E0E942E11F70180838091B9
:1024B000B900887F8035D9F4D394EDCFC00FD11FF8
:1024C0000E94381188838091B900887F883589F40B
:1024D00084E98093BC0080E00DC088E00BC088E1F7
:1024E00009C088E207C080E105C080E403C080E540
:1024F00001C088E5DF91CF911F910F91FF90EF9080
:10250000DF90089580915006909151069093C500F8
:102510008093C40082E08093C00088E98093C1006A
:1025200086E38093C20008959091C00095FFFCCF90
:102530008093C60008951F93CF93DF93EC0110E0C2
:10254000FE01E10FF11D8081882321F00E94941289
:102550001F5FF6CFDF91CF911F9108951F920F92C9
:102560000FB60F9211248F938091C60080934E0670
:1025700081E08093F2068F910F900FBE0F901F9015
:102580001895FC0181818053908190532AE0929F9D
:10259000800D112408950F931F93CF93DF93CDB730
:1025A000DEB72A970FB6F894DEBF0FBECDBF83EE1D
:1025B00093E00E949B1285EF93E00E949B1280E0C3
:1025C00094E00E949B12809174064AE0BE016F5F06
:1025D0007F4F90E00E9496170E949B1285E094E046
:1025E0000E949B1286E494E00E949B128FE494E088
:1025F0000E949B12E091F006F091F10680814AE082
:10260000BE016F5F7F4F90E00E9496170E949B1261
:1026100084E594E00E949B128FE594E00E949B1257
:10262000E091F006F091F10681814AE0BE016F5F12
:102630007F4F90E00E9496170E949B1284E694E0E0
:102640000E949B128FE694E00E949B12E091F0069C
:10265000F091F10682814AE0BE016F5F7F4F90E00A
:102660000E9496170E949B1284E794E00E949B129E
:102670008DE794E00E949B128091F0069091F10604
:1026800003960E949B1282E894E00E949B1288E9C4
:1026900094E00E949B12E091F006F091F106868191
:1026A0004AE0BE016F5F7F4F90E00E9496170E9444
:1026B0009B128DE994E00E949B128AEA94E00E94AA
:1026C0009B12E091F006F091F10687814AE0BE018D
:1026D0006F5F7F4F90E00E9496170E949B128FEAD7
:1026E00094E00E949B128DEB94E00E949B12E0917B
:1026F000F006F091F10680854AE0BE016F5F7F4FE2
:1027000090E00E9496170E949B1282EC94E00E9437
:102710009B1284ED94E00E949B1280EE94E00E9454
:102720009B126091A6067091A7068091A8069091D1
:10273000A9068E010F5F1F4F23E040E00E9438176B
:102740000E949B1285EE94E00E949B1286EF94E01B
:102750000E949B126091AA067091AB068091AC0614
:102760009091AD0623E040E00E9438170E949B1232
:102770008BEF94E00E949B128CE095E00E949B12EC
:102780004AE0B8018091BA069091BB060E94961764
:102790000E949B1281E195E00E949B1289E395E0E3
:1027A0000E949B1288E495E00E949B124AE0B801C7
:1027B0008091CC069091CD060E9496170E949B12A4
:1027C0008DE495E00E949B128EE795E00E949B129B
:1027D0004AE0B8018091CE069091CF060E949617EC
:1027E0000E949B1283E895E00E949B1284EB95E087
:1027F0000E949B126091D0067091D1068091D20602
:102800009091D30623E040E00E9438170E949B126B
:1028100089EB95E00E949B1281EE95E00E949B124D
:102820006091D4067091D5068091D6069091D70616
:1028300023E040E00E9438170E949B1286EE95E04C
:102840000E949B128EE096E00E949B126091D80637
:102850007091D9068091DA069091DB0623E040E082
:102860000E9438170E949B1283E196E00E949B12FF
:102870002A960FB6F894DEBF0FBECDBFDF91CF9181
:102880001F910F910895991B79E004C0991F961725
:1028900008F0961B881F7A95C9F780950895AA1BA2
:1028A000BB1B51E107C0AA1FBB1FA617B70710F03B
:1028B000A61BB70B881F991F5A95A9F7809590956D
:1028C000BC01CD010895A1E21A2EAA1BBB1BFD017C
:1028D0000DC0AA1FBB1FEE1FFF1FA217B307E407FF
:1028E000F50720F0A21BB30BE40BF50B661F771F57
:1028F000881F991F1A9469F7609570958095909537
:102900009B01AC01BD01CF010895052E97FB1EF47C
:1029100000940E949C1457FD07D00E94631407FC8A
:1029200003D04EF40C949C1450954095309521950D
:102930003F4F4F4F5F4F08959095809570956195EB
:102940007F4F8F4F9F4F0895EE0FFF1F0590F4911B
:10295000E02D19940E94BC14B7FF0895821B930BBD
:1029600008950E94BC14A59F900DB49F900DA49F44
:10297000800D911D11240895A29FB001B39FC00145
:10298000A39F700D811D1124911DB29F700D811D9B
:102990001124911D08955058BB27AA270ED070C14D
:1029A00061D130F066D120F031F49F3F11F41EF474
:1029B00056C10EF4E095E7FB4CC1E92F72D180F3CC
:1029C000BA17620773078407950718F071F49EF52C
:1029D0008AC10EF4E0950B2EBA2FA02D0B01B90180
:1029E00090010C01CA01A0011124FF27591B99F085
:1029F000593F50F4503E68F11A16F040A22F232F91
:102A0000342F4427585FF3CF469537952795A795E0
:102A1000F0405395C9F77EF41F16BA0B620B730B87
:102A2000840BBAF09150A1F0FF0FBB1F661F771FF8
:102A3000881FC2F70EC0BA0F621F731F841F48F4AD
:102A4000879577956795B795F7959E3F08F0B3CF33
:102A50009395880F08F09927EE0F9795879508951D
:102A6000D4D008F481E008950CD00AC102D140F01E
:102A7000F9D030F021F45F3F19F0EBC0511134C1AF
:102A8000EEC00FD198F39923C9F35523B1F3951BE9
:102A9000550BBB27AA2762177307840738F09F5F7F
:102AA0005F4F220F331F441FAA1FA9F333D00E2EEE
:102AB0003AF0E0E830D091505040E695001CCAF75B
:102AC00029D0FE2F27D0660F771F881FBB1F261720
:102AD00037074807AB07B0E809F0BB0B802DBF01F3
:102AE000FF2793585F4F2AF09E3F510568F0B1C011
:102AF000FBC05F3FECF3983EDCF3869577956795D6
:102B0000B795F7959F5FC9F7880F911D96958795A3
:102B100097F90895E1E0660F771F881FBB1F6217C2
:102B200073078407BA0720F0621B730B840BBA0B80
:102B3000EE1F88F7E0950895BCD088F09F5790F07D
:102B4000B92F9927B751A0F0D1F0660F771F881FD2
:102B5000991F1AF0BA95C9F712C0B13081F0C3D0ED
:102B6000B1E00895C0C0672F782F8827B85F39F08B
:102B7000B93FCCF3869577956795B395D9F73EF431
:102B800090958095709561957F4F8F4F9F4F0895D9
:102B9000E89409C097FB3EF49095809570956195F7
:102BA0007F4F8F4F9F4F9923A9F0F92F96E9BB27AD
:102BB0009395F695879577956795B795F111F8CF29
:102BC000FAF4BB0F11F460FF1BC06F5F7F4F8F4F94
:102BD0009F4F16C0882311F096E911C0772321F08A
:102BE0009EE8872F762F05C0662371F096E8862F22
:102BF00070E060E02AF09A95660F771F881FDAF779
:102C0000880F9695879597F90895990F0008550FA5
:102C1000AA0BE0E8FEEF16161706E807F907C0F062
:102C200012161306E407F50798F0621B730B840B6A
:102C3000950B39F40A2661F0232B242B252B21F444
:102C400008950A2609F4A140A6958FEF811D811DE4
:102C5000089597F99F6780E870E060E008959FEF1E
:102C600080EC089500240A94161617061806090623
:102C7000089500240A9412161306140605060895F2
:102C8000092E0394000C11F4882352F0BB0F40F47A
:102C9000BF2B11F460FF04C06F5F7F4F8F4F9F4FBA
:102CA000089557FD9058440F551F59F05F3F71F03C
:102CB0004795880F97FB991F61F09F3F79F08795A3
:102CC0000895121613061406551FF2CF4695F1DF2C
:102CD00008C0161617061806991FF1CF86957105BC
:102CE000610508940895E894BB2766277727CB01F0
:102CF00097F908958ADF08F48FEF08950BD0C0CFBD
:102D0000B1DF28F0B6DF18F0952309F0A2CFA7CFE6
:102D10001124EACFC6DFA0F3959FD1F3950F50E0C1
:102D2000551F629FF001729FBB27F00DB11D639F7D
:102D3000AA27F00DB11DAA1F649F6627B00DA11D23
:102D4000661F829F2227B00DA11D621F739FB00DC9
:102D5000A11D621F839FA00D611D221F749F332739
:102D6000A00D611D231F849F600D211D822F762FD2
:102D70006A2F11249F5750408AF0E1F088234AF0CF
:102D8000EE0FFF1FBB1F661F771F881F915050401B
:102D9000A9F79E3F510570F05CCFA6CF5F3FECF3E3
:102DA000983EDCF3869577956795B795F795E79507
:102DB0009F5FC1F7FE2B880F911D9695879597F918
:102DC000089511F40EF44BCF3EC073DFD0F3992376
:102DD000D9F3CEF39F57550B87FF43D00024A0E6CD
:102DE00040EA900180585695979528F4805C660FCC
:102DF000771F881F20F026173707480730F4621B1B
:102E0000730B840B202931294A2BA695179407941C
:102E1000202531254A2758F7660F771F881F20F095
:102E200026173707480730F4620B730B840B200D0D
:102E3000311D411DA09581F7B901842F9158880F4C
:102E40009695879508959F3F31F0915020F487958E
:102E500077956795B795880F911D9695879597F902
:102E6000089591505040660F771F881FD2F708953C
:102E7000EF920F931F93CF93DF93E80147FF02C0B8
:102E800034E101C034E0E42FFF27E7FDF095F7FFC0
:102E900003C0F195E195F109E32E022F2E2FAE012B
:102EA0000E942C18CE01DF91CF911F910F91EF90CE
:102EB0000895662777270C94AA19FC01882799277B
:102EC000E89421912032E9F3293010F02E30C8F334
:102ED0002B3241F02D3239F4689404C00E94B017AF
:102EE000820F911D219120532A30C0F31EF490953A
:102EF00081959F4F0895FB01DC010D900020E9F7BB
:102F0000119701900D920020E1F70895FB01DC017B
:102F10008D91019080190110D9F3990B0895FB014F
:102F2000DC0101900D920020E1F70895BB274A30A3
:102F300031F4992322F4BDE2909581959F4F0C9432
:102F4000DB17BB272A3051F4992342F4BDE2909558
:102F50008095709561957F4F8F4F9F4F0C94B91757
:102F60007AE0979F902D879F802D910D11240895D1
:102F7000BB27FA01A62F6217710581059105330B56
:102F800030FB66F0AA27660F771F881F991FAA1FBC
:102F9000A21710F0A21B63953850A9F7A05DAA33C1
:102FA00008F0A95DA19336F7B111B1931082CA015F
:102FB0000C94131CBB27FB015527AA27880F991FC8
:102FC000AA1FA41710F0A41B83955051B9F7A05D58
:102FD000AA3308F0A95DA193009779F7B111B193D5
:102FE0001192CB010C94131CF999FECF92BD81BDB7
:102FF000F89A992780B50895A6E1B0E044E050E042
:103000000C94251CA8E1B0E042E050E00C94251C93
:10301000262FF999FECF92BD81BDF89A019700B491
:10302000021639F01FBA20BD0FB6F894FA9AF99A31
:103030000FBE08950396272F0E9409180E940818B2
:10304000252F0E940918242F0C9409180196272F68
:103050000E9409180C9408186F927F929F92AF9269
:10306000BF92CF92DF92EF92FF920F931F93CF9375
:10307000DF93CDB7DEB729970FB6F894DEBF0FBE4A
:10308000CDBF6A01B22E102F0C3320F4FF24F3942D
:10309000F00E02C04CE3F42E0F2D27E0AE014F5F7F
:1030A0005F4F0E941B1B7981272F2970213031F03F
:1030B000E1FC06C0E0FC06C060E005C06DE203C0B4
:1030C0006BE201C060E2AE2DA07173FF36C06623D3
:1030D00011F084E001C083E08B1510F4B81A01C030
:1030E000B12CA1110BC0F6018B2D90E2882319F0B1
:1030F00091938150FBCFCB0CD11CB12C662331F0C6
:10310000F601608396012F5F3F4F6901C601039668
:10311000E2FE05C02EE4F601208331E404C02EE671
:10312000F601208331E631832283FC012B2D30E22E
:103130002223F1F131932150FBCF72FF40C066236F
:1031400011F084E001C083E08B1510F4B81A01C0BF
:10315000B12CA1110BC0F6018B2D90E2882319F040
:1031600091938150FBCFCB0CD11CB12C662331F055
:10317000F601608396012F5F3F4F6901C6010396F8
:10318000E2FE07C029E4F60120832EE4218326E431
:1031900006C029E6F60120832EE6218326E6228357
:1031A000FC012B2D30E2222319F031932150FBCF6B
:1031B000FC01EB0DF11D10828EEF9FEFB7C0B1E067
:1031C000611101C0B0E04B2F50E01816190624F42D
:1031D0009C012F5F3F4F02C021E030E0240F351FDC
:1031E000112329F0412F50E04F5F5F4F02C040E0B4
:1031F00050E0420F531F2B2D30E04217530714F4B9
:10320000B41A01C0B12C2E2D287159F4F6012B2DC2
:1032100030E2222319F031932150FBCFCB0CD11C8B
:10322000B12CBB2331F0F601608396012F5F3F4F35
:103230006901A1110BC0F6012B2D30E3222319F0F7
:1032400031932150FBCFCB0CD11CB12CF80E0A814D
:10325000372F3071A32E74FF03C0013309F4FA94A1
:103260001F142CF42F2D293018F028E001C021E084
:10327000682F392F97FF02C060E030E0462F532FB0
:10328000612C712C3EE2932EBC01621B71099B01E3
:10329000DC01A41BB50BE1E0F0E0EC0FFD1FAE0F6D
:1032A000BF1FE12EF12CF194E194F1084F3FFFEFA5
:1032B0005F0731F4F6019082B6016F5F7F4F6B01BB
:1032C000841795074CF02417350734F4BD01660DBB
:1032D000771DFB01118101C010E341505109FFEF3F
:1032E0006F1A7F0AB6016F5F7F4F4E155F0524F09E
:1032F000F60110836B01DACF4817590739F406330A
:1033000020F4053319F4A11001C011E3F601108374
:10331000FB018B2D90E2882319F091938150FBCF14
:10332000FB01EB0DF11D108280E090E029960FB6B5
:10333000F894DEBF0FBECDBFDF91CF911F910F91EB
:10334000FF90EF90DF90CF90BF90AF909F907F90D5
:103350006F9008958F929F92AF92BF92CF92DF921B
:10336000EF92FF920F931F93CF93DF938B01611521
:10337000710521F0DB018C9311969C93EC015E01A9
:10338000BFEFAB1ABB0A7501C8808C2D90E00E947C
:10339000F31B892B11F0E501F2CFEDE2CE1208C04C
:1033A0007E01F2E0EF0EF11CC980DD24D39409C048
:1033B0002BE2C21205C07E0142E0E40EF11CC9807E
:1033C000D12CE701219743E050E06EE871E0CE0197
:1033D0000E94FB1B892BC1F4239645E050E069E86D
:1033E00071E0CE010E94FB1B892B09F42596011583
:1033F000110519F0D801CD93DC93D11006C160E01E
:1034000070E080E89FE70AC143E050E066E871E0C1
:10341000CE010E94FB1B892B59F40115110509F4FB
:10342000F9C0B2E0EB0EF11CF801F182E082F2C0CB
:10343000F70160E070E0CB01C0E0D0E07F01A0EDDB
:10344000AA2EAC0C29E02A1530F14D2D4260B42E85
:103450002D2D2870D2FE04C0211125C0219623C035
:1034600021112197A5E0B0E09B01AC010E94B114AD
:10347000660F771F881F991F6A0D711D811D911D91
:103480006839A9E97A078A07A9E19A0760F0BD2D92
:10349000B660BB2E08C02EEFA2120AC0D3FC50C0EB
:1034A0004D2D4860B42E3196D701CC90DB2CC6CF81
:1034B0002C2D2F7D253409F043C0A081AD3241F47D
:1034C000BD2DB061DB2E7F0122E0E20EF11C0CC0AD
:1034D0007F01AB3231F04FEFE41AF40A21E030E023
:1034E00006C0A2E0EA0EF11CA18122E030E0A05368
:1034F000AA3018F0E21AF30A23C0F70120E030E006
:103500002038BCE03B075CF4A901440F551F440F71
:10351000551F240F351F220F331F2A0F311DAF01F6
:103520004F5F5F4F7A01A081A053AA3010F4FA01D7
:10353000E7CFD4FE03C0319521953109C20FD31FC7
:10354000D1FE09C00115110531F0E1E0EE1AF108D4
:10355000D801ED92FC920E94C8152D2D23702330C6
:1035600019F04B015C0106C04B015C01B7FAB09445
:10357000B7F8B09420E030E0A901C501B4010E9481
:103580003015882309F43EC0D7FF06C0D195C195F8
:10359000D10905EA11E002C00DEB11E06801B8E1C4
:1035A000CB1AD10890E2E92EF12CCE15DF0574F08C
:1035B000F8012591359145915491C501B4010E94BE
:1035C0007E164B015C01CE19DF09EFCF04501109C3
:1035D000F594E7940C151D0541F78A2D880F8B2D66
:1035E000881F8F3F49F020E030E0A901C501B401F8
:1035F0000E943015811106C082E290E090932C0762
:1036000080932B07C501B40109C060E070E080E839
:103610009FEF04C060E070E080EC9FE7DF91CF9106
:103620001F910F91FF90EF90DF90CF90BF90AF90E0
:103630009F908F900895283008F027E03327DA0113
:10364000990F311D87FD916000966105710539F470
:1036500032602E5F3D9330E32A95E1F708959F3F56
:1036600030F080387105610509F03C5F3C5F3D93A7
:10367000913008F08068911DDF93CF931F930F93D3
:10368000FF92EF92192F987F9695E92F9695969530
:10369000E90FFF27E55EFD4F99273327EE24FF242E
:1036A000A701E70105900894079428F4360FE71E58
:1036B000F81E491F511D660F771F881F991F06941A
:1036C000A1F70590079428F4E70EF81E491F561F2E
:1036D000C11D770F881F991F661F0694A1F70590DB
:1036E000079428F4F80E491F561FC71FD11D880FD5
:1036F000991F661F771F0694A1F70590079420F481
:10370000490F561FC71FD81F990F661F771F881FA5
:103710000694A9F784911095177041F0D695C79536
:1037200057954795F794E7941A95C1F7E1ECF1E0C6
:1037300068941590159135916591959105907FE26A
:103740007395E118F10A430B560BC90BD009C0F76A
:10375000E10CF11E431F561FC91FD01D7EF47033AC
:1037600011F48A95E6CFE894015030F0080F0AF47E
:103770000027021708F4202F2395022F7A3328F010
:1037800079E37D932A95E9F710C07D932A9589F610
:10379000069497956795379517951794E118F10A50
:1037A000430B560BC90BD00998F023957E91739566
:1037B0007A3308F070E37C932013B8F77E91706140
:1037C0007D9330F0839571E37D9370E32A95E1F763
:1037D0001124EF90FF900F911F91CF91DF919927C6
:1037E00087FD9095089591113EC0803219F089505F
:1037F0008550D0F70895FB01DC014150504088F01E
:103800008D9181341CF08B350CF4805E65916134B0
:103810001CF06B350CF4605E861B611171F3990B23
:103820000895881BFCCFDC01FC01672F7191772381
:10383000E1F7329704C07C916D9370836291AE176B
:10384000BF07C8F30895DC01CB01FC01F999FECF55
:1038500006C0F2BDE1BDF89A319600B40D92415018
:103860005040B8F70895992788270895F894FFCF16
:1038700004092A096B097E092F0A440A0000000086
:103880005375004D6F00547500576500546800462D
:1038900072005361006572001F003B005A007800FF
:1038A0009700B500D400F300110130014E014E6FB6
:1038B00074206120636F72726563742076616C7529
:1038C00065006D7573742062653A20303D3C736508
:1038D00063733C3630006D7573742062653A203036
:1038E0003D3C6D696E733C3630006D7573742062BB
:1038F000653A20303D3C686F75723C3234006D751E
:1039000073742062653A20303D3C7765656B646175
:10391000793C37006D7573742062653A20303C64E1
:1039200061793C3332006D7573742062653A2030E2
:103930003C6D6F6E74683C3133006D75737420623A
:10394000653A2031363D3C796561723C3939004237
:103950006164207265717565737420210D0A002001
:10396000002424004E6F74206120726571756573A8
:103970007420210D0A005F5F5F5F5F5F5F5F5F5FC5
:103980005F5F5F5F5F007C7765656B646179007C7A
:103990007365636F6E6473007C6D696E75746573B7
:1039A000007C686F75727309007C64617909007C22
:1039B0006D6F6E746809007C7965617209007C73B3
:1039C000746172742079656172000973746F70207C
:1039D00079656172000961646420746F20646179A3
:1039E00073007C7374617274206D6F6E746800096B
:1039F00073746F70206D6F6E7468007C7374617285
:103A00007420646179000973746F702064617900B7
:103A10003A007C74696D657374616D7020726573B2
:103A2000756C74007C65706F63682074696D657374
:103A300074616D70007C7772697465642074696D5F
:103A4000657374616D70006C6561702020596561EB
:103A5000727300436F6E66696775726174696F6E29
:103A6000203A0D0A004C6F67676572203A0D0A0014
:103A70002430303D0009303A206E6F74206D65614E
:103A8000737572652C313A2031307320617665721E
:103A90006167652C323A316D696E206176657261BD
:103AA00067652C333A31306D696E206176657261DD
:103AB00067652E0D0A0054696D65203A0D0A0024D1
:103AC00031313D00097365636F6E64730D0A002424
:103AD00031323D00096D696E757465730D0A0024FD
:103AE00031333D0009686F7572730D0A002431345B
:103AF0003D0009303A73752C313A6D6F2C2E2E2E05
:103B00002C363A73610D0A002431353D00096D6F82
:103B10006E7468206461790D0A002431363D000915
:103B200079656172206D6F6E74680D0A00243137FB
:103B30003D00097965617220283136202D20393900
:103B4000290D0A0053656E736F7273203A0D0A00D7
:103B50002432303D0009616E656D6F31206661630E
:103B6000746F720D0A002432313D0009616E656D7B
:103B70006F31206F66667365740D0A002432323D22
:103B80000009646567726565206F666673657420F9
:103B90006D757374206265747765656E2030206181
:103BA0006E64203335390D0A004143207761747407
:103BB0006D657465720D0A002433303D0009416360
:103BC00020766F6C746167652070696E2C20696E59
:103BD000206E6F726D616C79206D6F646520697302
:103BE000203220666F7220616463320D0A00243334
:103BF000313D000941632063757272656E742070F7
:103C0000696E2C20696E206E6F726D616C79206D0B
:103C10006F6465206973203420666F72206164636D
:103C2000340D0A002433323D0009414320766F6C85
:103C30007461676520636F656666696369656E7444
:103C40002C202063616C69622073746570310D0AE9
:103C5000002433333D000941432063757272656E61
:103C60007420636F656666696369656E742C2020D5
:103C700063616C69622073746570320D0A002433CD
:103C8000343D000970686173652063616C6962721C
:103C90006174696F6E206265747765656E2030208F
:103CA000616E6420322C206E65617220312C20639D
:0E3CB000616C69622073746570330D0A000048
:00000001FF
