:100000000C9404010C944F0A0C9423010C942301CA
:100010000C9423010C9423010C9423010C942301D0
:100020000C9423010C9423010C9423010C94A60737
:100030000C9423010C9423010C9423010C942301B0
:100040000C9423010C9423010C943E0A0C9423017C
:100050000C94810D0C9423010C9423010C94230126
:100060000C9423010C9423010C9423010C94230180
:100070000C9423010C9423010C9423010C94230170
:100080000C94BD0B0C9423010C9423015C012402FD
:100090002402240224022402240224022402240230
:1000A000240294019C01A601AE01B901C301CD0156
:1000B00024022402D701E001E901EF012402240215
:1000C0002402240224022402F701FF010702100285
:1000D00019024E414E494E495459494E46CDCCCC59
:1000E0003D0AD7233C17B7D13877CC2B329595E60C
:1000F000241FB14F0A000020410000C84200401CEC
:100100004620BCBE4CCA1B0E5AAEC59D7400407A38
:1001100010F35A00A0724E18090010A5D4E8000090
:10012000E87648170000E40B54020000CA9A3B002E
:100130000000E1F505000080969800000040420FA5
:10014000000000A08601000000102700000000E869
:1001500003000000006400000000000A000000002E
:10016000000100000000002C76D888DC674F0823CF
:10017000DFC1DFAE59E1B1B796E5E3E453C63AE635
:1001800051997696E8E6C28426EB898C9B62ED4015
:100190007C6FFCEFBC9C9F40F2BAA56FA5F4900564
:1001A0005A2AF75C936B6CF9676DC11BFCE0E40D98
:1001B00047FEF520E6B500D0ED902E03009435778C
:1001C000050080841E080000204E0A000000C80CB4
:1001D000333333330F986E12831141EF8D2114891D
:1001E0003BE65516CFFEE6DB18D1844B381BF77C77
:1001F0001D901DA4BBE424203284725E228100C9BC
:10020000F124ECA1E53D270011241FBECFEFD0E47F
:10021000DEBFCDBF14E0A0E0B1E0E6E4FDE200E027
:100220000BBF02C007900D92AE3FB107D9F725E092
:10023000AEEFB4E001C01D92A33AB207E1F70E940D
:1002400087050C94A1160C940000806480937C00B8
:1002500085EC80937A0080917A0086FDFCCF109225
:100260007A0080917800909179000895CF92DF9282
:10027000EF92FF920F931F93CF93DF931F92CDB70F
:10028000DEB76C0101960E94940D082F84E0C80E21
:10029000D11CC6010E94C8117C01C601E9820E94DE
:1002A000C41110E049810332110508F0CDC0F801F6
:1002B000EA5BFF4F0C946A0FFF24E1E0EE16F104B5
:1002C000D1F04CF4EF2869F510922605109228051C
:1002D0001092290521C082E0E816F104A1F0E3E0C4
:1002E000EE16F104F1F483E0809326058AE0809312
:1002F00028058CE30FC081E08093260582E080937F
:10030000280585E007C082E08093260584E080937D
:1003100028058FE0809329050E9469031092270524
:1003200097C08EE391E092C04C3318F46E2D82E0BA
:1003300007C082E591E08AC04C3328F46E2D83E03B
:100340000E947A0985C086E691E080C0483118F4A1
:100350006E2D84E0F5CF8AE791E078C0C6010E9457
:10036000C811873018F4682F86E0EACF8EE891E054
:100370006DC08FEF8E0D8F3118F46E2D85E0E0CFBC
:1003800084EA91E063C08FEF8E0D8C3018F46E2DEF
:1003900087E0D6CF86EB91E059C080EF8E0D833594
:1003A00018F46E2D88E0CCCF8AEC91E04FC06093BA
:1003B00058057093590580935A0590935B0541C089
:1003C00060935C0570935D0580935E0590935F0577
:1003D00038C0FF24F0926D05E0926C0532C04830C1
:1003E000B8F5FF24F0928305E09282052AC04830D8
:1003F00078F5FF24F0927F05E0927E0522C0483018
:1004000038F5FF24F0928105E09280051AC06093D0
:10041000840570938505809386059093870511C0A8
:10042000609388057093890580938A0590938B0566
:1004300008C060938C0570938D0580938E05909312
:100440008F050E94690304C08FED91E00E946E0D3C
:1004500080919E0590919F050E9497080F90DF91D3
:10046000CF911F910F91FF90EF90DF90CF900C9460
:100470009E0D0F931F93CF93DF931F92CDB7DEB7DF
:100480008B0149830E946E0D85E492E00E946E0DFF
:10049000C8010E946E0D4981413049F481E092E02B
:1004A0000F90DF91CF911F910F910C946E0D0F90D3
:1004B000DF91CF911F910F9108959F92AF92BF92BC
:1004C000CF92DF92EF92FF920F931F93CF93DF9320
:1004D000CDB7DEB764970FB6F894DEBF0FBECDBFC1
:1004E0005B0169017A01902E0E946E0D85E492E015
:1004F0000E946E0DC5010E946E0D85E492E00E947F
:100500006E0D8E010F5F1F4F21E040E0C701B60165
:100510000E94A3110E946E0D81E0981204C081E038
:1005200092E00E946E0D64960FB6F894DEBF0FBE87
:10053000CDBFDF91CF911F910F91FF90EF90DF9092
:10054000CF90BF90AF909F900895EF92FF920F933E
:100550001F93CF93DF93CDB7DEB765970FB6F894AF
:10056000DEBF0FBECDBF7B018A012D8B0E946E0DB9
:1005700085E492E00E946E0DC7010E946E0D85E435
:1005800092E00E946E0D4AE0BE016F5F7F4FC8018E
:100590000E9401120E946E0D2D89213021F481E00C
:1005A00092E00E946E0D65960FB6F894DEBF0FBE06
:1005B000CDBFDF91CF911F910F91FF90EF900895E4
:1005C000AF92BF92CF92DF92EF92FF920F93CF93B1
:1005D000DF93CDB7DEB764970FB6F894DEBF0FBEDA
:1005E000CDBF5B0169017A010E946E0D85E492E046
:1005F0000E946E0DC5010E946E0D85E492E00E947E
:100600006E0D2AE0AE014F5F5F4FC701B6010E9439
:100610000C120E946E0D013021F481E092E00E94E4
:100620006E0D64960FB6F894DEBF0FBECDBFDF919E
:10063000CF910F91FF90EF90DF90CF90BF90AF9050
:10064000089560E080E090E00E94731260E070E046
:1006500081E090E00E94911260E083E090E00E94CF
:10066000731240E050E0BA0180E290E00E948512EF
:1006700040E050E0BA0184E290E00E94851260E020
:1006800080E390E00E94731260E081E390E00E94BA
:10069000731240E050E0BA0180E490E00E948512BD
:1006A00040E050E0BA0185E490E00E94851240E00D
:1006B00050E0BA018AE490E00E94851260E070E0A8
:1006C00080E590E00E94911260E083E590E00C9458
:1006D00073126091260580E090E00E947312609191
:1006E000280570E081E090E00E9491126091290558
:1006F00083E090E00E947312409158055091590593
:1007000060915A0570915B0580E290E00E9485122D
:1007100040915C0550915D0560915E0570915F05AB
:1007200084E290E00E94851260917E0580E390E073
:100730000E9473126091800581E390E00E94731221
:1007400040918405509185056091860570918705DB
:1007500080E490E00E9485124091880550918905BF
:1007600060918A0570918B0585E490E00E94851266
:1007700040918C0550918D0560918E0570918F058B
:100780008AE490E00E94851260916C0570916D057D
:1007900080E590E00E9491126091820583E590E0EF
:1007A0000C94731280E090E00E945F128093260503
:1007B00081E090E00E946D128093280583E090E034
:1007C0000E945F128093290580E290E00E946712E8
:1007D000609358057093590580935A0590935B0573
:1007E00084E290E00E94671260935C0570935D055F
:1007F00080935E0590935F0580E390E00E945F1216
:1008000090E090937F0580937E0581E390E00E94C5
:100810005F1290E0909381058093800580E490E0E2
:100820000E94671260938405709385058093860506
:100830009093870585E490E00E9467126093880595
:100840007093890580938A0590938B058AE490E0E4
:100850000E94671260938C0570938D0580938E05BE
:1008600090938F0580E590E00E946D1290936D0546
:1008700080936C0583E590E00E945F1290E0909376
:10088000830580938205089510921E058091FF04D0
:10089000882319F010922005089583E080932005A5
:1008A00008956FEE71E084E195E00E94F111892BCB
:1008B00019F40E949E0D11C080911405843249F4F0
:1008C000809117058D3329F484E195E00E9436016B
:1008D00004C082EF91E00E946E0D109210051092FC
:1008E00014051092FF0484E0809320050895CF93AF
:1008F00080919205813081F40E94B609809127058C
:10090000811104C08AE295E00E9485098AE295E09F
:100910000E949C0A10929205C0919105C13099F4F1
:10092000109291058AE295E00E94D40980912705F2
:100930008F5F8093270590912805891304C010923A
:100940002705C0931E0580911E05813011F482E0B9
:1009500001C084E080932005CF9108950F931F93E9
:10096000CF93DF93CDB7DEB7EE970FB6F894DEBF27
:100970000FBECDBF809190054AE0BE016D5C7F4FF8
:1009800090E00E940112BC01CE0101960E94FA1172
:1009900064E072E0CE0101960E94E61160910005CC
:1009A0007091010580910205909103052AE0AE0146
:1009B0004D5C5F4F0E940C12BC01CE0101960E945B
:1009C000E61164E072E0CE0101960E94E6116091AA
:1009D0002E0570912F0580913005909131058E0183
:1009E0000D5C1F4F21E040E00E94A311BC01CE012D
:1009F00001960E94E61164E072E0CE0101960E9429
:100A0000E6114AE0B80180913605909137050E94C1
:100A10000112BC01CE0101960E94E61164E072E071
:100A2000CE0101960E94E61160913C0570913D0552
:100A300080913E0590913F0520E040E00E94A31187
:100A4000BC01CE0101960E94E61164E072E0CE0185
:100A500001960E94E61160913805709139058091E8
:100A60003A0590913B0520E040E00E94A311BC01B3
:100A7000CE0101960E94E61161E072E0CE0101967E
:100A80000E94E611CE0101960E946E0D8091FF0436
:100A9000882319F01092200509C0809192058823BF
:100AA00011F081E001C084E080932005EE960FB63E
:100AB000F894DEBF0FBECDBFDF91CF911F910F9194
:100AC00008958091FF04882319F01092200508955D
:100AD00080919205813021F080919105813011F44F
:100AE00081E001C084E08093200508958091FF0497
:100AF000882319F01092200508958091920588238B
:100B000011F081E001C084E08093200508951092E7
:100B10001F0585E080932105809320051092230511
:100B20001092220510922705109225051092240597
:100B300084E0809390050E94D2038AE295E00E94AF
:100B4000850983E995E090939F0580939E05109217
:100B500011051092FF0410929205109291051092C7
:100B60009C0510921E051092A00510920F0581E0C1
:100B700080939D05109206051092070510920805B6
:100B800080930C0580930D058FE080930E051092E5
:100B900000051092010510920205109203050E94B3
:100BA00095071092FE041092A005109210058FEC8C
:100BB00090E090930505809304050E94550D0E94D6
:100BC000AA0B7894D1E080911F05843620F0D09351
:100BD0009C0510921F0580911105813089F4E091E8
:100BE0002005F0E0EE0FFF1FE050FF4F0190F08175
:100BF000E02D099510921105809120058093210523
:100C0000C091A005C13041F58091FE04E09110052E
:100C1000F0E0EC5EFA4F80830E94670D9091100522
:100C200081E0890F809310058091FE04883021F4C3
:100C30009150909310050EC08D3061F481E092E0E8
:100C40000E946E0DE0911005F0E0ED5EFA4F10820B
:100C5000C093FF041092A00540919C05413009F01B
:100C6000B2CF8091220590912305019690932305A0
:100C70008093220520912605222361F020912905E9
:100C800030E08217930731F44093920510922305C8
:100C90001092220510929C0596CFCF93DF93EC0122
:100CA00041E066E472E0CB010E94390241E066E077
:100CB00072E0CB010E94390240E066E472E086E116
:100CC00092E00E943902BE016D5F7F4F41E080EEED
:100CD00092E00E943902488150E021E060EE72E02B
:100CE0008FE192E00E94A502498150E021E060EE90
:100CF00072E088E292E00E94A5024A8150E021E081
:100D000060EE72E081E392E00E94A5024E8150E025
:100D100021E060EE72E089E392E00E94A5024F813B
:100D200050E021E060EE72E08FE392E00E94A502C5
:100D3000488550E021E060EE72E087E492E00E9496
:100D4000A50241E066E072E0CB010E94390241E079
:100D500066E472E0CB01DF91CF910C9439029F924F
:100D6000AF92BF92CF92DF92EF92FF920F931F93B9
:100D7000CF93DF93EC015B01942E6801790141E090
:100D800066E472E0CB010E94390240E066E072E066
:100D9000CB010E94390240E066E072E0CB010E9484
:100DA000390241E066E072E0CB010E9439024885D9
:100DB00050E020E060EE72E08EE492E00E94A50236
:100DC000F501408550E020E060EE72E08AE592E0B7
:100DD0000E94A502F501408550E08885481B510915
:100DE00021E060EE72E085E692E00E94A5024F816C
:100DF00050E020E060EE72E082E792E00E94A502FF
:100E0000F501478150E020E060EE72E08FE792E06C
:100E10000E94A502F501478150E08F81481B5109CE
:100E200021E060EE72E085E692E00E94A5024E812C
:100E300050E020E060EE72E08BE892E00E94A502B4
:100E4000F501468150E020E060EE72E086E992E034
:100E50000E94A502F5018681482F50E02E81421B99
:100E6000510921E060EE72E085E692E00E94A50261
:100E700040E066E072E0CB010E94390240E066E0AB
:100E800072E0CB010E94390241E066E072E0CB01E2
:100E90000E943902C701B6010E9462109B01AC0199
:100EA00001E060EA72E082EA92E00E94E00240E043
:100EB00066E072E0CB010E94390240E066E072E039
:100EC000CB010E94390241E066E072E0CB010E9452
:100ED0003902492D50E021E060EE72E084EB92E0AF
:100EE0000E94A50240E066E072E0CB010E94390258
:100EF00040E066E072E0CB010E94390241E066E02A
:100F000072E0CB010E94390241E066E472E0CB015D
:100F1000DF91CF911F910F91FF90EF90DF90CF90D5
:100F2000BF90AF909F900C943902E0E7F0E0808191
:100F3000816080831092B20085E08093B100E6EB7F
:100F4000F0E080818062808381E008951F920F929B
:100F50000FB60F9211248F939F93AF93BF938091FD
:100F6000000590910105A0910205B091030501963D
:100F7000A11DB11D8093000590930105A09302056A
:100F8000B0930305BF91AF919F918F910F900FBECA
:100F90000F901F9018959C0183709927892B91F4CD
:100FA000C90164E670E00E94340F892B49F4C9013D
:100FB00060E971E00E94340F21E0892B21F002C02A
:100FC00021E001C020E0822F08953F924F925F926E
:100FD0006F927F928F929F92AF92BF92CF92DF9249
:100FE000EF92FF920F931F93CF93DF93CDB7DEB7AE
:100FF00067970FB6F894DEBF0FBECDBF6C018B01B3
:1010000086E1E8E2F1E0DE01119601900D928A9509
:10101000E1F7FB018084F6014084912C512CC4013E
:10102000841995092DE631E0829F7001839FF00CB1
:10103000929FF00C11240297BCF03201660C771CD1
:10104000A12CB12C312CC501840D951D8815990555
:1010500060F4C501860D971D0E94CB078111339462
:10106000FFEFAF1ABF0AEFCF312CF80127812330F1
:1010700058F0C4012F8B0E94CB072F89882331F0B1
:101080003394E30CF11C02C0223059F4FE01319676
:10109000E20FF11DE20FF11D349780819181E80E7E
:1010A000F91EF801A681B0E0F6018681A81BB109FE
:1010B000AE0DBF1D20E831E541E050E00E94770F02
:1010C0006B017C01F8012281FCE32F9F9001112428
:1010D000442737FD4095542FF8018181280F311D99
:1010E000411D511DACE3B0E00E94770F2081620FDB
:1010F000711D811D911D6C0D7D1D8E1D9F1D67969F
:101100000FB6F894DEBF0FBECDBFDF91CF911F9118
:101110000F91FF90EF90DF90CF90BF90AF909F9096
:101120008F907F906F905F904F903F9008950F93B6
:101130001F93CF93DF93CDB7DEB727970FB6F89401
:10114000DEBF0FBECDBF8C01FE013196CE010896E9
:101150009F011192E817F907E1F747E062E082EAA0
:101160000E94E70C4C81442309F467C03981232F86
:101170002077269526952695922F990F990F920FF5
:101180003F70930FD8019C933A81232F20772695A7
:1011900026952695922F990F990F920F3F70930FD6
:1011A00011969C9311973B81232F207326952695AA
:1011B0002695922F990F990F920F3F70930F1296C9
:1011C0009C9312972D81277030E0F901EE0FFF1FDD
:1011D000E20FF31FE05FFE4F908113969C931397ED
:1011E000918114969C93149715961C921597242F11
:1011F0002073269526952695922F990F990F920F79
:101200004F70940F16969C9316972E8124FB3327CC
:1012100030F9330F932F990F990F930F2F70920F6F
:1012200017969C939F81292F22952F709F70BAE06B
:101230002B9F900D1124F801908727960FB6F894F4
:10124000DEBF0FBECDBFDF91CF911F910F910895EB
:10125000FC0190819295907F81818053892B089524
:101260006AE00E94280F292F30E1839FC0011124DA
:10127000822B08950F931F93CF93DF93CDB7DEB7E3
:1012800027970FB6F894DEBF0FBECDBF8C010B962B
:101290000E9428098983C80109960E9428098A8327
:1012A000C80107960E9428098B83F8012191CF017C
:1012B00020532D830E9428098C83C80103960E9425
:1012C00028098E83C80105960E9428098F839E01F4
:1012D0002F5F3F4F47E062E082EA0E94970C27961B
:1012E0000FB6F894DEBF0FBECDBFDF91CF911F9137
:1012F0000F910895CF93C82F862F0E943009482F51
:101300006C2F82EACF910C94190CFC01108211828F
:101310001282138214821582168217821086118619
:10132000128613861586148616861786108A118AE9
:10133000128A138A148A158A168E178E10A211A289
:10134000168A178A108E118E128E138E148E158E99
:1013500012A213A214A215A216A217A210A611A6D9
:1013600012A613A614A615A60895089510922A058C
:1013700010922B0510922C0510922D05E9E6F0E055
:10138000808182608083E89A16BC85B5856085BDC2
:10139000EEE6F0E080818160808386B590E09093F6
:1013A0001305809312050895CF92DF92EF92FF927A
:1013B0002DEB37E346E850E460912A0570912B0548
:1013C00080912C0590912D050E94FA0F6B017C01F4
:1013D00060932A0570932B0580932C0590932D051F
:1013E00020E030E0A9010E94F60F882309F441C0F3
:1013F000209158053091590540915A0550915B054F
:10140000C701B6010E94401120915C0530915D0535
:1014100040915E0550915F050E94920F6B017C0127
:1014200060932A0570932B0580932C0590932D05CE
:101430006091280570E080E090E00E9490109B0190
:10144000AC01C701B6010E94FA0F9B01AC0160918B
:101450002E0570912F0580913005909131050E94E5
:10146000920F60932E0570932F0580933005909313
:101470003105FF90EF90DF90CF9008951F920F926B
:101480000FB60F9211248F931DBA15BC81E0809383
:1014900091058F910F900FBE0F901F9018951F927E
:1014A0000F920FB60F9211240BB60F922F933F930A
:1014B0004F935F936F937F938F939F93AF93BF935C
:1014C000EF93FF9386B590E02091120530911305BC
:1014D000821B930B8B339140E0F020E030E040E83A
:1014E0005FE360912A0570912B0580912C05909106
:1014F0002D050E94920F60932A0570932B0580930F
:101500002C0590932D0586B590E09093130580935C
:101510001205FF91EF91BF91AF919F918F917F91B4
:101520006F915F914F913F912F910F900BBE0F9054
:101530000FBE0F901F901895CF93DF93EC01809111
:1015400082050E94250127E631E0DC010E94700F30
:101550002FE433E040E050E00E94480F80916C059A
:1015600090916D05280F391F411D511DCA01B90108
:1015700028E631E040E050E00E94480F7D876C870C
:10158000DF91CF910895CF92DF92EF92FF92CF93A8
:10159000DF93EC0181E00E942501BC01882777FDE3
:1015A0008095982F0E94901020E030E040EA50E4AF
:1015B0000E94401120E030E040E85AE30E944011D0
:1015C0002AEA3AEA46E252EC0E94401120E030E07A
:1015D00048E452E40E94920F6B017C01609128055F
:1015E00070E080E090E00E9490109B01AC01C70188
:1015F000B6010E94FA0F9B01AC016EA17FA188A5E4
:1016000099A50E94920F6EA37FA388A799A7DF9147
:10161000CF91FF90EF90DF90CF90089580917E055D
:101620000E942501BC01882777FD8095982F0E9494
:10163000901020E030E040EA50E40E94401120E0A9
:1016400030E040E85AE30E944011089580918005FF
:101650000E942501BC01882777FD8095982F0E9464
:10166000901020E030E040EA50E40E94401120E079
:1016700030E040E85AE30E9440110895CF92DF9293
:10168000EF92FF92CF93C4E6C12CD12C76018091CA
:101690007E050E942501BC01882777FD8095982F43
:1016A0000E9490109B01AC01C701B6010E94920FED
:1016B0006B017C01C15059F720E030E048EC52E466
:1016C0000E94FA0F20E030E040EA50E40E9440110E
:1016D00020E030E040E85AE30E944011CF91FF90B3
:1016E000EF90DF90CF900895CF92DF92EF92FF922C
:1016F000CF93C4E6C12CD12C7601809180050E9445
:101700002501BC01882777FD8095982F0E949010B5
:101710009B01AC01C701B6010E94920F6B017C01D5
:10172000C15059F720E030E048EC52E40E94FA0F33
:1017300020E030E040EA50E40E94401120E030E038
:1017400040E85AE30E944011CF91FF90EF90DF9064
:10175000CF90089581E792E090939900809398004C
:10176000E1E7F0E080818260808310929000E1E9FF
:10177000F0E080818C60808308951F920F920FB6F5
:101780000F9211240BB60F928F93EF93FF9381E08A
:1017900080931105EFE1F5E080818F5F8083FF91F9
:1017A000EF918F910F900BBE0F900FBE0F901F9077
:1017B00018951092B90088E48093B80084E0809373
:1017C000BC0080E0089584EA8093BC008091BC0056
:1017D00087FFFCCF089584EA8093BC008091BC0011
:1017E00087FFFCCF089584E98093BC00089580931F
:1017F000BB0084E88093BC008091BC0087FFFCCFD5
:10180000089584EC8093BC008091BC0087FFFCCFDE
:101810008091BB00089584E88093BC008091BC0057
:1018200087FFFCCF8091BB0008958091B900887F2D
:1018300008950F931F93CF93DF931F92CDB7DEB719
:10184000162F042F89830E94E30B9091B900987F93
:1018500089819830E1F40E94F70B9091B900987F4C
:101860009831B9F4812F0E94F70B1091B900187FBD
:10187000183289F4802F0E94F70B8091B900887F7D
:10188000883251F484E98093BC0010E005C018E070
:1018900003C018E101C019E1812F0F90DF91CF91B2
:1018A0001F910F910895CF93DF93C82FD62F0E94D9
:1018B000E30B9091B900987F983059F58C2F0E94D6
:1018C000F70B9091B900987F983129F58D2F0E94E0
:1018D000F70B9091B900987F9832F9F40E94EB0BC6
:1018E0009091B900987F9031D1F481E08C0F0E94E3
:1018F000F70B8091B900887F803499F40E940B0C1B
:101900009091B900987F983571F494E99093BC0058
:101910000BC088E009C088E107C088E205C080E10B
:1019200003C080E401C088E5DF91CF910895AF92B4
:10193000BF92DF92EF92FF920F931F93CF93DF93AB
:101940001F92CDB7DEB7162FF42E022FE32E898318
:101950000E94E30B9091B900987F8981983031F50E
:101960000E94F70B9091B900987F983109F5812F6B
:101970000E94F70B1091B900187F1832D9F4D02EBD
:10198000A02EBE2C8A2D8D198F1558F4F50181914A
:101990005F010E94F70B8091B900887F883291F334
:1019A0000AC084E98093BC0010E005C018E003C0C1
:1019B00018E101C019E1812F0F90DF91CF911F91A4
:1019C0000F91FF90EF90DF90BF90AF900895DF925E
:1019D000EF92FF920F931F93CF93DF93D82FF62EA2
:1019E000C42F89010E94E30B9091B900987F983031
:1019F00009F046C08D2F0E94F70B9091B900987F97
:101A0000983109F03FC08F2D0E94F70B9091B900DB
:101A1000987F9832C9F50E94EB0B9091B900987F9E
:101A20009031A1F581E08D0F0E94F70B8091B900F4
:101A3000887F803469F5D12CD0E021978D2D90E0FE
:101A40008C179D0774F47801E80EF91E0E94010CB2
:101A5000F70180838091B900887F8035D9F4D394D1
:101A6000EDCFC00FD11F0E940B0C88838091B9006D
:101A7000887F883589F484E98093BC0080E00DC0BC
:101A800088E00BC088E109C088E207C080E105C09A
:101A900080E403C080E501C088E5DF91CF911F910C
:101AA0000F91FF90EF90DF90089580910405909141
:101AB00005059093C5008093C40082E08093C00028
:101AC00088E98093C10086E38093C20008959091D5
:101AD000C00095FFFCCF8093C60008951F93CF935D
:101AE000DF93EC0110E0FE01E10FF11D80818823FE
:101AF00021F00E94670D1F5FF6CFDF91CF911F91FC
:101B000008951F920F920FB60F9211248F93809118
:101B1000C6008093FE0481E08093A0058F910F9012
:101B20000FBE0F901F901895FC018181805390810A
:101B300090532AE0929F800D112408950F931F93D4
:101B4000CF93DF93CDB7DEB72A970FB6F894DEBFF9
:101B50000FBECDBF80EC92E00E946E0D82ED92E050
:101B60000E946E0D8DED92E00E946E0D8091260513
:101B70004AE0BE016F5F7F4F90E00E9401120E9419
:101B80006E0D82EE92E00E946E0D83E293E00E9461
:101B90006E0D8CE293E00E946E0DE0919E05F09137
:101BA0009F0580814AE0BE016F5F7F4F90E00E94F9
:101BB00001120E946E0D81E393E00E946E0D8CE392
:101BC00093E00E946E0DE0919E05F0919F0581814A
:101BD0004AE0BE016F5F7F4F90E00E9401120E94B9
:101BE0006E0D81E493E00E946E0D8CE493E00E9400
:101BF0006E0DE0919E05F0919F0582814AE0BE0145
:101C00006F5F7F4F90E00E9401120E946E0D81E590
:101C100093E00E946E0D8AE593E00E946E0D809124
:101C20009E0590919F0503960E946E0D8FE593E0AF
:101C30000E946E0D85E793E00E946E0DE0919E0577
:101C4000F0919F0586814AE0BE016F5F7F4F90E073
:101C50000E9401120E946E0D8AE793E00E946E0DB1
:101C600087E893E00E946E0DE0919E05F0919F053C
:101C700087814AE0BE016F5F7F4F90E00E940112B2
:101C80000E946E0D8CE893E00E946E0D8AE993E04D
:101C90000E946E0DE0919E05F0919F0580854AE0BF
:101CA000BE016F5F7F4F90E00E9401120E946E0D97
:101CB0008FE993E00E946E0D81EB93E00E946E0D20
:101CC0008DEB93E00E946E0D60915805709159055F
:101CD00080915A0590915B058E010F5F1F4F23E0A5
:101CE00040E00E94A3110E946E0D82EC93E00E94DE
:101CF0006E0D83ED93E00E946E0D60915C05709116
:101D00005D0580915E0590915F0523E040E00E94B3
:101D1000A3110E946E0D88ED93E00E946E0D89EE76
:101D200093E00E946E0D4AE0B80180916C0590919D
:101D30006D050E9401120E946E0D8EEE93E00E94CE
:101D40006E0D86E194E00E946E0D4AE0B80180912C
:101D50008205909183050E9401120E946E0D8BE115
:101D600094E00E946E0D87E294E00E946E0D86E37F
:101D700094E00E946E0D4AE0B80180917E0590913A
:101D80007F050E9401120E946E0D8BE394E00E9479
:101D90006E0D8DE494E00E946E0D4AE0B8018091D2
:101DA0008005909181050E9401120E946E0D82E5CE
:101DB00094E00E946E0D84E694E00E946E0D6091A6
:101DC000840570918505809186059091870523E0B3
:101DD00040E00E94A3110E946E0D89E694E00E94EB
:101DE0006E0D81E994E00E946E0D609188057091FE
:101DF000890580918A0590918B0523E040E00E943F
:101E0000A3110E946E0D86E994E00E946E0D8EEB88
:101E100094E00E946E0D60918C0570918D0580910B
:101E20008E0590918F0523E040E00E94A3110E944F
:101E30006E0D83EC94E00E946E0D2A960FB6F89416
:101E4000DEBF0FBECDBFDF91CF911F910F910895DF
:101E5000991B79E004C0991F961708F0961B881FFC
:101E60007A95C9F780950895AA1BBB1B51E107C05D
:101E7000AA1FBB1FA617B70710F0A61BB70B881F1A
:101E8000991F5A95A9F780959095BC01CD010895A9
:101E9000A1E21A2EAA1BBB1BFD010DC0AA1FBB1F6E
:101EA000EE1FFF1FA217B307E407F50720F0A21BE0
:101EB000B30BE40BF50B661F771F881F991F1A944D
:101EC00069F760957095809590959B01AC01BD0177
:101ED000CF010895EE0FFF1F0590F491E02D0994B6
:101EE0000E94820FB7FF0895821B930B08950E94F2
:101EF000820FA59F900DB49F900DA49F800D911D02
:101F000011240895A29FB001B39FC001A39F700D3B
:101F1000811D1124911DB29F700D811D1124911DF1
:101F200008955058BB27AA270ED070C161D130F058
:101F300066D120F031F49F3F11F41EF456C10EF427
:101F4000E095E7FB4CC1E92F72D180F3BA17620725
:101F500073078407950718F071F49EF58AC10EF493
:101F6000E0950B2EBA2FA02D0B01B90190010C01A9
:101F7000CA01A0011124FF27591B99F0593F50F4C1
:101F8000503E68F11A16F040A22F232F342F442719
:101F9000585FF3CF469537952795A795F040539511
:101FA000C9F77EF41F16BA0B620B730B840BBAF0E1
:101FB0009150A1F0FF0FBB1F661F771F881FC2F74C
:101FC0000EC0BA0F621F731F841F48F48795779560
:101FD0006795B795F7959E3F08F0B3CF9395880F17
:101FE00008F09927EE0F979587950895D4D008F4B7
:101FF00081E008950CD00AC102D140F0F9D030F050
:1020000021F45F3F19F0EBC0511134C1EEC00FD184
:1020100098F39923C9F35523B1F3951B550BBB27AF
:10202000AA2762177307840738F09F5F5F4F220F5C
:10203000331F441FAA1FA9F333D00E2E3AF0E0E855
:1020400030D091505040E695001CCAF729D0FE2FA1
:1020500027D0660F771F881FBB1F26173707480733
:10206000AB07B0E809F0BB0B802DBF01FF279358E9
:102070005F4F2AF09E3F510568F0B1C0FBC05F3F43
:10208000ECF3983EDCF3869577956795B795F795D1
:102090009F5FC9F7880F911D9695879597F90895C9
:1020A000E1E0660F771F881FBB1F62177307840765
:1020B000BA0720F0621B730B840BBA0BEE1F88F774
:1020C000E0950895BCD088F09F5790F0B92F9927DC
:1020D000B751A0F0D1F0660F771F881F991F1AF033
:1020E000BA95C9F712C0B13081F0C3D0B1E00895FC
:1020F000C0C0672F782F8827B85F39F0B93FCCF37D
:10210000869577956795B395D9F73EF49095809528
:10211000709561957F4F8F4F9F4F0895E89409C048
:1021200097FB3EF490958095709561957F4F8F4F0A
:102130009F4F9923A9F0F92F96E9BB279395F69520
:10214000879577956795B795F111F8CFFAF4BB0F9E
:1021500011F460FF1BC06F5F7F4F8F4F9F4F16C002
:10216000882311F096E911C0772321F09EE8872F8C
:10217000762F05C0662371F096E8862F70E060E048
:102180002AF09A95660F771F881FDAF7880F9695C1
:10219000879597F90895990F0008550FAA0BE0E865
:1021A000FEEF16161706E807F907C0F01216130619
:1021B000E407F50798F0621B730B840B950B39F459
:1021C0000A2661F0232B242B252B21F408950A26BF
:1021D00009F4A140A6958FEF811D811D089597F9FF
:1021E0009F6780E870E060E008959FEF80EC0895BD
:1021F00000240A94161617061806090608950024E6
:102200000A9412161306140605060895092E03945F
:10221000000C11F4882352F0BB0F40F4BF2B11F4D3
:1022200060FF04C06F5F7F4F8F4F9F4F089557FD32
:102230009058440F551F59F05F3F71F04795880F34
:1022400097FB991F61F09F3F79F0879508951216CB
:1022500013061406551FF2CF4695F1DF08C0161677
:1022600017061806991FF1CF869571056105089428
:102270000895E894BB2766277727CB0197F908953F
:102280000BD0C4CFB5DF28F0BADF18F0952309F0E2
:10229000A6CFABCF1124EECFCADFA0F3959FD1F329
:1022A000950F50E0551F629FF001729FBB27F00D04
:1022B000B11D639FAA27F00DB11DAA1F649F662759
:1022C000B00DA11D661F829F2227B00DA11D621FA8
:1022D000739FB00DA11D621F839FA00D611D221F62
:1022E000749F3327A00D611D231F849F600D211D46
:1022F000822F762F6A2F11249F5750408AF0E1F0E9
:1023000088234AF0EE0FFF1FBB1F661F771F881F31
:1023100091505040A9F79E3F510570F060CFAACF71
:102320005F3FECF3983EDCF3869577956795B7951C
:10233000F795E7959F5FC1F7FE2B880F911D969546
:10234000879597F90895EF920F931F93CF93DF939B
:10235000E80147FF02C034E101C034E0E42FFF2769
:10236000E7FDF095F7FF03C0F195E195F109E32E44
:10237000022F2E2FAE010E949712CE01DF91CF9136
:102380001F910F91EF900895662777270C941514ED
:10239000FC0188279927E89421912032E9F329301C
:1023A00010F02E30C8F32B3241F02D3239F46894FE
:1023B00004C00E941B12820F911D219120532A30CC
:1023C000C0F31EF4909581959F4F0895FB01DC01A9
:1023D0000D900020E9F7119701900D920020E1F790
:1023E0000895FB01DC018D91019080190110D9F352
:1023F000990B0895FB01DC0101900D920020E1F79B
:102400000895BB274A3031F4992322F4BDE2909518
:1024100081959F4F0C944612BB272A3051F4992383
:1024200042F4BDE290958095709561957F4F8F4FF6
:102430009F4F0C9424127AE0979F902D879F802DB8
:10244000910D11240895BB27FA01A62F621771057B
:1024500081059105330B30FB66F0AA27660F771FC5
:10246000881F991FAA1FA21710F0A21B639538504E
:10247000A9F7A05DAA3308F0A95DA19336F7B111C1
:10248000B1931082CA010C947E16BB27FB0155271D
:10249000AA27880F991FAA1FA41710F0A41B8395C1
:1024A0005051B9F7A05DAA3308F0A95DA193009738
:1024B00079F7B111B1931192CB010C947E16F99971
:1024C000FECF92BD81BDF89A992780B50895A6E107
:1024D000B0E044E050E00C949016A8E1B0E042E097
:1024E00050E00C949016262FF999FECF92BD81BD35
:1024F000F89A019700B4021639F01FBA20BD0FB642
:10250000F894FA9AF99A0FBE08950396272F0E941D
:1025100074120E947312252F0E947412242F0C949F
:1025200074120196272F0E9474120C9473126F92EA
:102530007F929F92AF92BF92CF92DF92EF92FF92E3
:102540000F931F93CF93DF93CDB7DEB729970FB6C5
:10255000F894DEBF0FBECDBF6A01B22E102F0C3330
:1025600020F4FF24F394F00E02C04CE3F42E0F2D60
:1025700027E0AE014F5F5F4F0E9486157981272FBC
:102580002970213031F0E1FC06C0E0FC06C060E0BB
:1025900005C06DE203C06BE201C060E2AE2DA07128
:1025A00073FF36C0662311F084E001C083E08B1511
:1025B00010F4B81A01C0B12CA1110BC0F6018B2D7B
:1025C00090E2882319F091938150FBCFCB0CD11C62
:1025D000B12C662331F0F601608396012F5F3F4FE7
:1025E0006901C6010396E2FE05C02EE4F6012083D0
:1025F00031E404C02EE6F601208331E631832283E4
:10260000FC012B2D30E22223F1F131932150FBCF3D
:1026100072FF40C0662311F084E001C083E08B1597
:1026200010F4B81A01C0B12CA1110BC0F6018B2D0A
:1026300090E2882319F091938150FBCFCB0CD11CF1
:10264000B12C662331F0F601608396012F5F3F4F76
:102650006901C6010396E2FE07C029E4F601208362
:102660002EE4218326E406C029E6F60120832EE627
:10267000218326E62283FC012B2D30E2222319F050
:1026800031932150FBCFFC01EB0DF11D10828EEF39
:102690009FEFB7C0B1E0611101C0B0E04B2F50E037
:1026A0001816190624F49C012F5F3F4F02C021E049
:1026B00030E0240F351F112329F0412F50E04F5FE8
:1026C0005F4F02C040E050E0420F531F2B2D30E01F
:1026D0004217530714F4B41A01C0B12C2E2D2871DF
:1026E00059F4F6012B2D30E2222319F031932150B9
:1026F000FBCFCB0CD11CB12CBB2331F0F601608396
:1027000096012F5F3F4F6901A1110BC0F6012B2DE0
:1027100030E3222319F031932150FBCFCB0CD11C95
:10272000B12CF80E0A81372F3071A32E74FF03C02D
:10273000013309F4FA941F142CF42F2D293018F0CA
:1027400028E001C021E0682F392F97FF02C060E028
:1027500030E0462F532F612C712C3EE2932EBC01AA
:10276000621B71099B01DC01A41BB50BE1E0F0E0E9
:10277000EC0FFD1FAE0FBF1FE12EF12CF194E19481
:10278000F1084F3FFFEF5F0731F4F6019082B60189
:102790006F5F7F4F6B01841795074CF02417350747
:1027A00034F4BD01660D771DFB01118101C010E3FA
:1027B00041505109FFEF6F1A7F0AB6016F5F7F4FDB
:1027C0004E155F0524F0F60110836B01DACF481730
:1027D000590739F4063320F4053319F4A11001C068
:1027E00011E3F6011083FB018B2D90E2882319F091
:1027F00091938150FBCFFB01EB0DF11D108280E026
:1028000090E029960FB6F894DEBF0FBECDBFDF91E2
:10281000CF911F910F91FF90EF90DF90CF90BF90DD
:10282000AF909F907F906F9008958F929F92AF92FC
:10283000BF92CF92DF92EF92FF920F931F93CF93AD
:10284000DF938B016115710521F0DB018C931196EB
:102850009C93EC015E01BFEFAB1ABB0A7501C88007
:102860008C2D90E00E945E16892B11F0E501F2CFCD
:10287000EDE2CE1208C07E01F2E0EF0EF11CC9803D
:10288000DD24D39409C02BE2C21205C07E0142E0D0
:10289000E40EF11CC980D12CE701219743E050E000
:1028A0006AED70E0CE010E946616892BC1F4239672
:1028B00045E050E065ED70E0CE010E946616892B80
:1028C00009F425960115110519F0D801CD93DC9373
:1028D000D11006C160E070E080E89FE70AC143E0E4
:1028E00050E062ED70E0CE010E946616892B59F42B
:1028F0000115110509F4F9C0B2E0EB0EF11CF80165
:10290000F182E082F2C0F70160E070E0CB01C0E04C
:10291000D0E07F01A0EDAA2EAC0C29E02A1530F101
:102920004D2D4260B42E2D2D2870D2FE04C02111F1
:1029300025C0219623C021112197A5E0B0E09B017D
:10294000AC010E94770F660F771F881F991F6A0DD1
:10295000711D811D911D6839A9E97A078A07A9E1CE
:102960009A0760F0BD2DB660BB2E08C02EEFA212F4
:102970000AC0D3FC50C04D2D4860B42E3196D7010B
:10298000CC90DB2CC6CF2C2D2F7D253409F043C0F5
:10299000A081AD3241F4BD2DB061DB2E7F0122E07C
:1029A000E20EF11C0CC07F01AB3231F04FEFE41AA4
:1029B000F40A21E030E006C0A2E0EA0EF11CA18199
:1029C00022E030E0A053AA3018F0E21AF30A23C044
:1029D000F70120E030E02038BCE03B075CF4A901BF
:1029E000440F551F440F551F240F351F220F331F4F
:1029F0002A0F311DAF014F5F5F4F7A01A081A053B5
:102A0000AA3010F4FA01E7CFD4FE03C03195219526
:102A10003109C20FD31FD1FE09C00115110531F0D4
:102A2000E1E0EE1AF108D801ED92FC920E948E10BE
:102A30002D2D2370233019F04B015C0106C04B0192
:102A40005C01B7FAB094B7F8B09420E030E0A90187
:102A5000C501B4010E94F60F882309F43EC0D7FFD8
:102A600006C0D195C195D10901EF10E002C009E07F
:102A700011E06801B8E1CB1AD10890E2E92EF12CFF
:102A8000CE15DF0574F0F8012591359145915491EB
:102A9000C501B4010E9440114B015C01CE19DF0950
:102AA000EFCF04501109F594E7940C151D0541F77B
:102AB0008A2D880F8B2D881F8F3F49F020E030E052
:102AC000A901C501B4010E94F60F811106C082E27E
:102AD00090E09093A2058093A105C501B40109C0BF
:102AE00060E070E080E89FEF04C060E070E080ECA0
:102AF0009FE7DF91CF911F910F91FF90EF90DF90B3
:102B0000CF90BF90AF909F908F900895283008F09D
:102B100027E03327DA01990F311D87FD9160009678
:102B20006105710539F432602E5F3D9330E32A95DB
:102B3000E1F708959F3F30F080387105610509F095
:102B40003C5F3C5F3D93913008F08068911DDF93BE
:102B5000CF931F930F93FF92EF92192F987F969523
:102B6000E92F96959695E90FFF27E959FE4F99278A
:102B70003327EE24FF24A701E7010590089407946A
:102B800028F4360FE71EF81E491F511D660F771FE8
:102B9000881F991F0694A1F70590079428F4E70E63
:102BA000F81E491F561FC11D770F881F991F661FEA
:102BB0000694A1F70590079428F4F80E491F561FB4
:102BC000C71FD11D880F991F661F771F0694A1F795
:102BD0000590079420F4490F561FC71FD81F990F5F
:102BE000661F771F881F0694A9F7849110951770A8
:102BF00041F0D695C79557954795F794E7941A9560
:102C0000C1F7EDE0F1E0689415901591359165916B
:102C1000959105907FE27395E118F10A430B560BED
:102C2000C90BD009C0F7E10CF11E431F561FC91F85
:102C3000D01D7EF4703311F48A95E6CFE8940150EC
:102C400030F0080F0AF40027021708F4202F23950C
:102C5000022F7A3328F079E37D932A95E9F710C0A3
:102C60007D932A9589F606949795679537951795DC
:102C70001794E118F10A430B560BC90BD00998F0D1
:102C800023957E9173957A3308F070E37C9320133B
:102C9000B8F77E9170617D9330F0839571E37D93F9
:102CA00070E32A95E1F71124EF90FF900F911F91A7
:102CB000CF91DF91992787FD9095089591113EC09E
:102CC000803219F089508550D0F70895FB01DC015E
:102CD0004150504088F08D9181341CF08B350CF4BC
:102CE000805E659161341CF06B350CF4605E861B70
:102CF000611171F3990B0895881BFCCFDC01FC0175
:102D0000672F71917723E1F7329704C07C916D931F
:102D100070836291AE17BF07C8F30895DC01CB0141
:102D2000FC01F999FECF06C0F2BDE1BDF89A3196DB
:102D300000B40D9241505040B8F708959927882764
:062D40000895F894FFCF96
:102D4600510477044404AE046105760500000000D2
:102D56005375004D6F005475005765005468004662
:102D660072005361006572001F003B005A00780034
:102D76009700B500D400F300110130014E014E6FEB
:102D860074206120636F72726563742076616C755E
:102D960065006D7573742062653A20303D3C73653D
:102DA60063733C3630006D7573742062653A20306B
:102DB6003D3C6D696E733C3630006D7573742062F0
:102DC600653A20303D3C686F75723C3234006D7553
:102DD60073742062653A20303D3C7765656B6461AB
:102DE600793C37006D7573742062653A20303C6417
:102DF60061793C3332006D7573742062653A203018
:102E06003C6D6F6E74683C3133006D75737420626F
:102E1600653A2031363D3C796561723C393900426C
:102E26006164207265717565737420210D0A002432
:102E360024004E6F7420612072657175657374206D
:102E4600210D0A0020005F5F5F5F5F5F5F5F5F5F6E
:102E56005F5F5F5F5F007C7765656B646179007CAF
:102E66007365636F6E6473007C6D696E75746573EC
:102E7600007C686F75727309007C64617909007C57
:102E86006D6F6E746809007C7965617209007C73E8
:102E9600746172742079656172000973746F7020B1
:102EA60079656172000961646420746F20646179D8
:102EB60073007C7374617274206D6F6E74680009A0
:102EC60073746F70206D6F6E7468007C73746172BA
:102ED6007420646179000973746F702064617900ED
:102EE6003A007C74696D657374616D7020726573E8
:102EF600756C74006C656170202059656172730091
:102F0600436F6E66696775726174696F6E203A0DFC
:102F16000A004C6F67676572203A0D0A002430304C
:102F26003D0009303A206E6F74206D6561737572CD
:102F3600652C313A203130732061766572616765A0
:102F46002C323A316D696E20617665726167652C47
:102F5600333A31306D696E20617665726167652E30
:102F66000D0A0054696D65203A0D0A002431313D81
:102F760000097365636F6E64730D0A002431323D78
:102F860000096D696E757465730D0A002431333D51
:102F96000009686F7572730D0A002431343D00090B
:102FA600303A73752C313A6D6F2C2E2E2E2C363A04
:102FB60073610D0A002431353D00096D6F6E74682A
:102FC600206461790D0A002431363D000979656176
:102FD60072206D6F6E74680D0A002431373D00094A
:102FE6007965617220283136202D203939290D0A5C
:102FF6000053656E736F7273203A0D0A00243230E7
:103006003D0009616E656D6F3120666163746F7294
:103016000D0A002432313D0009616E656D6F312065
:103026006F66667365740D0A002432323D000964CA
:103036006567726565206F6666736574206D757366
:1030460074206265747765656E203020616E642039
:103056003335390D0A002432333D000976616E6539
:103066002070696E0D0A00414320776174746D65A6
:103076007465720D0A002433303D000941632076E1
:103086006F6C746167652070696E0D0A00243331B8
:103096003D000941632063757272656E7420706924
:1030A6006E0D0A002433323D0009414320766F6CD1
:1030B6007461676520636F656666696369656E74CA
:1030C6002C202063616C69622073746570310D0A6F
:1030D600002433333D000941432063757272656EE7
:1030E6007420636F656666696369656E742C20205B
:1030F60063616C69622073746570320D0A00243353
:10310600343D000970686173652063616C696272A1
:103116006174696F6E206265747765656E20302014
:10312600616E6420322C206E65617220312C206322
:0E313600616C69622073746570330D0A0000CD
:00000001FF
