:100000000C94F9000C945E090C9418010C941801DE
:100010000C9418010C9418010C9418010C941801FC
:100020000C9418010C9418010C9418010C94CA0635
:100030000C9418010C9418010C9418010C941801DC
:100040000C9418010C9418010C944D090C9418018F
:100050000C94B20B0C9418010C9418010C94180118
:100060000C9418010C9418010C9418010C941801AC
:100070000C9418010C9418010C9418010C9418019C
:100080000C94EF090C9418010C9418015401EF0121
:10009000EF01EF01EF01EF01EF01EF01EF01EF01E0
:1000A000EF018A0192019C01A401AF01B901C301D2
:1000B000EF01EF01CD01D601DF01E5014E414E49CF
:1000C0004E495459494E46CDCCCC3D0AD7233C1716
:1000D000B7D13877CC2B329595E6241FB14F0A0063
:1000E0000020410000C84200401C4620BCBE4CCA53
:1000F0001B0E5AAEC59D7400407A10F35A00A072D0
:100100004E18090010A5D4E80000E8764817000052
:10011000E40B54020000CA9A3B000000E1F5050020
:100120000080969800000040420F000000A0860169
:10013000000000102700000000E803000000006439
:1001400000000000000A00000000000100000000A4
:10015000002C76D888DC674F0823DFC1DFAE59E179
:10016000B1B796E5E3E453C63AE651997696E8E6E8
:10017000C28426EB898C9B62ED407C6FFCEFBC9CBB
:100180009F40F2BAA56FA5F490055A2AF75C936BCD
:100190006CF9676DC11BFCE0E40D47FEF520E6B588
:1001A00000D0ED902E0300943577050080841E0862
:1001B0000000204E0A000000C80C333333330F9880
:1001C0006E12831141EF8D2114893BE65516CFFE47
:1001D000E6DB18D1844B381BF77C1D901DA4BBE4D3
:1001E00024203284725E228100C9F124ECA1E53D15
:1001F000270011241FBECFEFD0E4DEBFCDBF14E037
:10020000A0E0B1E0E6E3F9E200E00BBF02C0079036
:100210000D92A832B107D9F724E0A8E2B4E001C0FA
:100220001D92A53AB207E1F70E94AA040C94991412
:100230000C940000806480937C0085EC80937A00AD
:1002400080917A0086FDFCCF10927A008091780030
:10025000909179000895AF92BF92CF92DF92EF9282
:10026000FF920F931F93CF93DF931F92CDB7DEB70B
:100270008C0101960E94C50BF82E0C5F1F4FC80120
:100280000E94B10F5C01C801A9820E94AD0FCF2C62
:10029000D12C298138E1C316D10408F0A0C0F601A1
:1002A000EA5BFF4F0C94310DBB2481E0A816B1042A
:1002B000D1F04CF4AB2859F510925004109252042E
:1002C000109253041FC082E0A816B10491F033E0ED
:1002D000A316B104E1F483E0809350048AE0809394
:1002E00052048CE30DC081E080935004809352044B
:1002F00007C082E08093500484E0809352048FE032
:10030000809353040E943603109251046CC08EE314
:1003100091E067C02C3318F46A2D82E007C082E5B3
:1003200091E05FC02C3328F46A2D83E00E949B0883
:100330005AC086E691E055C0283118F46A2D84E051
:10034000F5CF8AE791E04DC0C8010E94B10F873018
:1003500018F4682F86E0EACF8EE891E042C08FEF74
:100360008A0D8F3118F46A2D85E0E0CF84EA91E0A0
:1003700038C08FEF8A0D8C3018F46A2D87E0D6CF05
:1003800086EB91E02EC080EF8A0D833518F46A2D3C
:1003900088E0CCCF8AEC91E024C060938204709313
:1003A0008304809384049093850416C0609386042C
:1003B0007093870480938804909389040DC0BB24B4
:1003C000B0928F04A0928E0407C0283060F4BB2442
:1003D000B0929104A09290040E94360304C08FED65
:1003E00091E00E949F0B8091A0049091A1040E9433
:1003F000B8070F90DF91CF911F910F91FF90EF9071
:10040000DF90CF90BF90AF900C94D00B0F931F93C1
:10041000CF93DF931F92CDB7DEB78B0149830E9444
:100420009F0B85E492E00E949F0BC8010E949F0BE6
:100430004981413049F481E092E00F90DF91CF9102
:100440001F910F910C949F0B0F90DF91CF911F91F3
:100450000F9108958F929F92AF92BF92CF92DF92A9
:10046000FF920F931F93CF93DF93CDB7DEB76497BF
:100470000FB6F894DEBF0FBECDBF6B0149015A0124
:10048000F02E0E949F0B85E492E00E949F0BC60114
:100490000E949F0B85E492E00E949F0B8E010F5FEC
:1004A0001F4F21E040E0C501B4010E948D0F0E9462
:1004B0009F0B81E0F81204C081E092E00E949F0B44
:1004C00064960FB6F894DEBF0FBECDBFDF91CF911B
:1004D0001F910F91FF90DF90CF90BF90AF909F90B2
:1004E0008F900895EF92FF920F931F93CF93DF9316
:1004F000CDB7DEB765970FB6F894DEBF0FBECDBFA0
:100500007B018A012D8B0E949F0B85E492E00E9463
:100510009F0BC7010E949F0B85E492E00E949F0BF6
:100520004AE0BE016F5F7F4FC8010E94EA0F0E9440
:100530009F0B2D89213021F481E092E00E949F0BD6
:1005400065960FB6F894DEBF0FBECDBFDF91CF9199
:100550001F910F91FF90EF900895AF92BF92CF92AD
:10056000DF92EF92FF920F93CF93DF93CDB7DEB779
:1005700064970FB6F894DEBF0FBECDBF5B01690173
:100580007A010E949F0B85E492E00E949F0BC501B7
:100590000E949F0B85E492E00E949F0B2AE0AE012F
:1005A0004F5F5F4FC701B6010E94F50F0E949F0B7E
:1005B000013021F481E092E00E949F0B64960FB617
:1005C000F894DEBF0FBECDBFDF91CF910F91FF90AA
:1005D000EF90DF90CF90BF90AF90089560E080E003
:1005E00090E00E94651460E070E081E090E00E947D
:1005F000831460E083E090E00E94651440E050E0E6
:10060000BA0180E290E00E94771440E050E0BA0125
:1006100084E290E00E94771460E080E390E00E9422
:10062000651460E081E390E00E94651440E050E0D2
:10063000BA0180E490E00E94771440E050E0BA01F3
:1006400085E490E00E94771440E050E0BA018AE42B
:1006500090E00E94771460E070E080E590E00E94F6
:10066000831460E083E590E00C946514CF93DF93EE
:10067000C9E4D4E06F8180E090E00E946514698550
:1006800070E081E090E00E9483146A8583E090E04E
:100690000E94651449AD5AAD6BAD7CAD80E290E02F
:1006A0000E947714409186045091870460918804D9
:1006B0007091890484E290E00E9477146091900424
:1006C00083E590E0DF91CF910C946514CF93DF9395
:1006D00080E090E00E945114C9E4D4E08F8381E06F
:1006E00090E00E945F14898783E090E00E9451149B
:1006F0008A8780E290E00E94591469AF7AAF8BAF8D
:100700009CAF84E290E00E94591460938604709339
:100710008704809388049093890483E590E00E9485
:10072000511490E09093910480939004DF91CF91C5
:1007300008951092480480912904882319F010929A
:100740004A04089583E080934A0408956FEE71E0AF
:100750008EE394E00E94DA0F892B19F40E94D00BEB
:1007600011C080913E04843249F4809141048D335C
:1007700029F48EE394E00E942B0104C082EF91E003
:100780000E949F0B10923A0410923E04109229048A
:1007900084E080934A040895CF938091940481303B
:1007A00061F40E94C40880915104811104C084E561
:1007B00094E00E94A60810929404C0919304C13062
:1007C00099F41092930484E594E00E94E2088091E9
:1007D00051048F5F8093510490915204891304C097
:1007E00010925104C093480480914804813011F460
:1007F00082E001C084E080934A04CF9108950F9372
:100800001F93CF93DF93CDB7DEB7EE970FB6F89473
:10081000DEBF0FBECDBF809192044AE0BE016D5C89
:100820007F4F90E00E94EA0FBC01CE0101960E942A
:10083000E30F64E072E0CE0101960E94CF0F609159
:100840002A0470912B0480912C0490912D042AE0AD
:10085000AE014D5C5F4F0E94F50FBC01CE010196C9
:100860000E94CF0F64E072E0CE0101960E94CF0F8C
:10087000609158047091590480915A0490915B04DE
:100880008E010D5C1F4F21E040E00E948D0FBC01E6
:10089000CE0101960E94CF0F64E072E0CE01019676
:1008A0000E94CF0F4AE0B8018091600490916104EA
:1008B0000E94EA0FBC01CE0101960E94CF0F61E0B9
:1008C00072E0CE0101960E94CF0FCE0101960E94E8
:1008D0009F0B80912904882319F010924A0409C0C3
:1008E00080919404882311F081E001C084E080931A
:1008F0004A04EE960FB6F894DEBF0FBECDBFDF916F
:10090000CF911F910F91089580912904882319F0A8
:1009100010924A04089580919404813021F08091CE
:100920009304813011F481E001C084E080934A0493
:10093000089580912904882319F010924A0408959B
:1009400080919404882311F081E001C084E08093B9
:100950004A0408951092490485E080934B048093E3
:100960004A0410924D0410924C04109251041092BB
:100970004F0410924E0484E0809392040E94660318
:1009800084E594E00E94A60885E994E09093A10490
:100990008093A00410923B041092290410929404B6
:1009A0001092930410929E04109248041092A20494
:1009B0001092390481E080939F04109230041092C9
:1009C00031041092320480933604809337048FE010
:1009D0008093380410922A0410922B0410922C0455
:1009E00010922D040E94B906109228041092A204BD
:1009F00010923A048FEC90E090932F0480932E0491
:100A00000E94860B0E94DC097894C1E08091490421
:100A1000843620F0C0939E041092490480913B04D8
:100A2000813089F4E0914A04F0E0EE0FFF1FE050BE
:100A3000FF4F0190F081E02D099510923B048091C9
:100A40004A0480934B04D091A204D13041F58091A7
:100A50002804E0913A04F0E0E25CFB4F80830E94BE
:100A6000980B80913A0491E0980F90933A049091FA
:100A70002804983021F4815080933A040EC09D30B0
:100A800061F481E092E00E949F0BE0913A04F0E073
:100A9000E35CFB4F1082D09329041092A204409192
:100AA0009E04413009F0B2CF80914C0490914D04E6
:100AB000019690934D0480934C042091500422237E
:100AC00061F02091530430E08217930731F4409392
:100AD000940410924D0410924C0410929E0496CFF0
:100AE000CF93DF93EC0141E066E472E0CB010E941A
:100AF000060241E066E072E0CB010E94060240E09F
:100B000066E472E086E192E00E940602BE016D5F3B
:100B10007F4F41E080EE92E00E940602488150E063
:100B200021E060EE72E08FE192E00E947202498162
:100B300050E021E060EE72E088E292E00E947202F2
:100B40004A8150E021E060EE72E081E392E00E9491
:100B500072024E8150E021E060EE72E089E392E0A3
:100B60000E9472024F8150E021E060EE72E08FE35C
:100B700092E00E947202488550E021E060EE72E04F
:100B800087E492E00E94720241E066E072E0CB01ED
:100B90000E94060241E066E472E0CB01DF91CF9152
:100BA0000C9406028F929F92AF92BF92DF92EF92C7
:100BB000FF920F931F93CF93DF93EC017B01D42E11
:100BC0004801590141E066E472E0CB010E9406024F
:100BD00040E066E072E0CB010E94060240E066E081
:100BE00072E0CB010E94060241E066E072E0CB01B8
:100BF0000E940602488550E020E060EE72E08EE43C
:100C000092E00E947202F701408550E020E060EE21
:100C100072E08AE592E00E947202F701408550E09E
:100C20008885481B510921E060EE72E085E692E07C
:100C30000E9472024F8150E020E060EE72E082E795
:100C400092E00E947202F701478150E020E060EEDE
:100C500072E08FE792E00E947202F701878190E0D4
:100C60002F81AC01421B510921E060EE72E085E664
:100C700092E00E9472024E8150E020E060EE72E04D
:100C80008BE892E00E947202F701468150E020E07A
:100C900060EE72E086E992E00E947202F7018681BE
:100CA00090E02E81AC01421B510921E060EE72E020
:100CB00085E692E00E94720240E066E072E0CB01BD
:100CC0000E94060240E066E072E0CB010E9406024C
:100CD00041E066E072E0CB010E940602C501B4016A
:100CE0000E943F0E9B01AC0101E060EA72E082EAE3
:100CF00092E00E94AD0240E066E072E0CB010E940B
:100D0000060240E066E072E0CB010E94060241E08C
:100D100066E072E0CB010E9406024D2D50E021E01A
:100D200060EE72E084EB92E00E94720240E066E0C6
:100D300072E0CB010E94060240E066E072E0CB0167
:100D40000E94060241E066E072E0CB010E940602CA
:100D500041E066E472E0CB01DF91CF911F910F91EA
:100D6000FF90EF90DF90BF90AF909F908F900C948A
:100D70000602E0E7F0E08081816080831092B2009B
:100D800085E08093B100E6EBF0E0808180628083B3
:100D900081E008951F920F920FB60F9211248F9346
:100DA0009F93AF93BF9380912A0490912B04A091BD
:100DB0002C04B0912D040196A11DB11D80932A042D
:100DC00090932B04A0932C04B0932D04BF91AF916A
:100DD0009F918F910F900FBE0F901F9018959C01BF
:100DE00083709927892B81F4C90164E670E00E9421
:100DF000FB0C892B59F4C90160E971E00E94FB0CDE
:100E00009C0181E0232B19F080E0089581E0089592
:100E10004F925F926F927F928F929F92BF92CF92EA
:100E2000DF92EF92FF920F931F93CF93DF93CDB793
:100E3000DEB767970FB6F894DEBF0FBECDBF7C015B
:100E40008B0186E1E8E2F1E0DE01119601900D925E
:100E50008A95E1F7FB018084F7016084912C712C65
:100E6000C401861997092DE631E0829F6001839FB6
:100E7000D00C929FD00C1124029784F02301B12C46
:100E80004814590460F4C201860D971D0E94EF06B4
:100E90008111B394FFEF4F1A5F0AF2CFB12CF80122
:100EA0004781433058F0C4014F8B0E94EF064F89B1
:100EB000882331F0B394CB0CD11C02C0423069F4CA
:100EC0009E012F5F3F4F240F311D240F311DF9016B
:100ED000349780819181C80ED91EF8019681A92F7F
:100EE000B0E0F7018681A81BB109AC0DBD1D20E85B
:100EF00031E541E050E00E94410D6B017C01F801B9
:100F00002281FCE32F9F90011124A901330F660B6E
:100F1000770BF80181819A01AB01280F311D411D2A
:100F2000511DACE3B0E00E94410D2081DC01CB01FA
:100F3000820F911DA11DB11DBC01CD016C0D7D1D48
:100F40008E1D9F1D67960FB6F894DEBF0FBECDBFF6
:100F5000DF91CF911F910F91FF90EF90DF90CF9095
:100F6000BF909F908F907F906F905F904F9008956B
:100F70000F931F93CF93DF93CDB7DEB727970FB6AD
:100F8000F894DEBF0FBECDBF8C019E012F5F3F4F97
:100F9000F90187E0820F11928E13FDCF47E062E0E6
:100FA00082EA0E94170B9C81992309F467C029816A
:100FB000322F3077369536953695432F440F440FB0
:100FC000340F2F70230FD8012C932A81322F3077C2
:100FD000369536953695432F440F440F340F2F70B6
:100FE000230F11962C9311972B81322F3073369546
:100FF00036953695432F440F440F340F2F70230F2F
:1010000012962C931297ED81E770F0E09F01220F6A
:10101000331FE20FF31FE05FFE4F208113962C93E6
:101020001397218114962C93149715961C9215975B
:10103000292F2073269526952695322F330F330FAF
:10104000230F9F70920F16969C9316979E8194FB88
:10105000222720F9220F322F330F330F230F9F70D7
:10106000920F17969C939F81292F22952F709F7026
:10107000BAE02B9F900D1124F801908727960FB6A8
:10108000F894DEBF0FBECDBFDF91CF911F910F91BE
:101090000895FC0190819295907F81818053892BE6
:1010A00008956AE00E94EF0C292F30E1839FC00170
:1010B0001124822B08950F931F93CF93DF93CDB705
:1010C000DEB727970FB6F894DEBF0FBECDBF8C01F9
:1010D0000B960E9449088983C80109960E94490815
:1010E0008A83C80107960E9449088B83F8012191E1
:1010F000CF0120532D830E9449088C83C801039699
:101100000E9449088E83C80105960E9449088F8372
:101110009E012F5F3F4F47E062E082EA0E94C90ACA
:1011200027960FB6F894DEBF0FBECDBFDF91CF91EB
:101130001F910F910895CF93C82F862F0E945108B9
:10114000482F6C2F82EACF910C944B0AFC0110823D
:10115000118212821382148215821682178212A6BD
:1011600013A614A615A6089510928000E1E8F0E0F9
:101170008081876C8083109282001092850010928B
:10118000840010926F000895109254041092550438
:101190001092560410925704E9E6F0E080818260D4
:1011A0008083E89A16BC85B5856085BDEEE6F0E0E3
:1011B00080818160808386B590E090933D04809328
:1011C0003C040895CF92DF92EF92FF922DEB37E32C
:1011D00046E850E46091540470915504809156049F
:1011E000909157040E94CD0D6B017C0160935404D3
:1011F00070935504809356049093570420E030E098
:10120000A9010E94C80D882309F442C020918204DC
:10121000309183044091840450918504C701B60144
:101220000E94200F20918604309187044091880409
:10123000509189040E945C0D6B017C016093540401
:1012400070935504809356049093570480915204F0
:10125000682F70E080E090E00E94700E9B01AC016E
:10126000C701B6010E94CD0D9B01AC0160915804ED
:101270007091590480915A0490915B040E945C0D16
:10128000609358047093590480935A0490935B04BC
:10129000FF90EF90DF90CF9008951F920F920FB6BE
:1012A0000F9211248F931DBA15BC81E08093930493
:1012B0008F910F900FBE0F901F9018951F920F9255
:1012C0000FB60F9211240BB60F922F933F934F93AB
:1012D0005F936F937F938F939F93AF93BF93EF939E
:1012E000FF9386B590E020913C0430913D04821B31
:1012F000930B8B339140E0F020E030E040E85FE377
:101300006091540470915504809156049091570453
:101310000E945C0D609354047093550480935604AE
:101320009093570486B590E090933D0480933C04DD
:10133000FF91EF91BF91AF919F918F917F916F91AD
:101340005F914F913F912F910F900BBE0F900FBE69
:101350000F901F901895EF92FF920F931F93CF93CA
:10136000DF93EC01809190040E941A0127E631E09E
:10137000DC010E943A0D2FE433E040E050E00E948F
:101380000F0D80918E0490918F0479018A01E80EEF
:10139000F91E011D111DC801B70128E631E040E02A
:1013A00050E00E940F0D7D876C87DF91CF911F91D8
:1013B0000F91FF90EF90089581E792E0909399004C
:1013C00080939800E1E7F0E0808182608083109252
:1013D0009000E1E9F0E080818C60808308951F92A5
:1013E0000F920FB60F9211240BB60F928F93EF93BB
:1013F000FF9381E080933B04E9E4F4E080818F5F18
:101400008083FF91EF918F910F900BBE0F900FBED5
:101410000F901F9018951092B90088E48093B8003F
:1014200084E08093BC0080E0089584EA8093BC004F
:101430008091BC0087FFFCCF089584EA8093BC00B4
:101440008091BC0087FFFCCF089584E98093BC00A5
:1014500008958093BB0084E88093BC008091BC0019
:1014600087FFFCCF089584EC8093BC008091BC0082
:1014700087FFFCCF8091BB00089584E88093BC0077
:101480008091BC0087FFFCCF8091BB0008958091C4
:10149000B900887F08950F931F93CF93DF931F9216
:1014A000CDB7DEB7162F042F89830E94150A9091BD
:1014B000B900987F89819830E1F40E94290A9091BF
:1014C000B900987F9831B9F4812F0E94290A1091B0
:1014D000B900187F183289F4802F0E94290A809160
:1014E000B900887F883251F484E98093BC0010E011
:1014F00005C018E003C018E101C019E1812F0F9069
:10150000DF91CF911F910F910895CF93DF93C82F53
:10151000D62F0E94150A9091B900987F983059F5FE
:101520008C2F0E94290A9091B900987F983129F553
:101530008D2F0E94290A9091B900987F9832F9F472
:101540000E941D0A9091B900987F9031D1F481E0FA
:101550008C0F0E94290A8091B900887F803499F409
:101560000E943D0A9091B900987F983571F494E9F2
:101570009093BC000BC088E009C088E107C088E2F6
:1015800005C080E103C080E401C088E5DF91CF9110
:101590000895CF92DF92EF92FF920F931F93CF9314
:1015A000DF931F92CDB7DEB7162FF42E6901898322
:1015B0000E94150A9091B900987F8981983039F579
:1015C0000E94290A9091B900987F983111F5812FD6
:1015D0000E94290A9091B900987F9832E1F4EC2C8E
:1015E0008601802F8E198F1568F4F80181918F0183
:1015F00099830E94290A8091B900887F9981883255
:1016000081F30AC084E98093BC0090E005C098E0B3
:1016100003C098E101C099E1892F0F90DF91CF912C
:101620001F910F91FF90EF90DF90CF900895DF9280
:10163000EF92FF920F931F93CF93DF93C82F162F34
:10164000D42F79010E94150A9091B900987F9830A3
:1016500009F047C08C2F0E94290A9091B900987F09
:10166000983109F040C0812F0E94290A9091B90059
:10167000987F9832D1F50E941D0A9091B900987F09
:101680009031A9F581E08C0F0E94290A8091B90060
:10169000887F803471F5D12C4D2F50E0EA012197DD
:1016A0008D2D90E08C179D0774F48701080F191F8A
:1016B0000E94330AF80180838091B900887F8035C9
:1016C000D1F4D394EDCFCE0DDF1D0E943D0A888367
:1016D0008091B900887F883581F084E98093BC00CF
:1016E0000CC088E00BC088E109C088E207C080E137
:1016F00005C080E403C080E501C080E0DF91CF91A8
:101700001F910F91FF90EF90DF90089580912E042C
:1017100090912F049093C5008093C40082E0809341
:10172000C00088E98093C10086E38093C2000895D9
:101730009091C00095FFFCCF8093C60008950F9351
:101740001F93CF938C01C0E0F801EC0FF11D808155
:10175000882321F00E94980BCF5FF6CFCF911F9185
:101760000F9108951F920F920FB60F9211248F932D
:101770008091C6008093280481E08093A2048F9119
:101780000F900FBE0F901F901895FC019181905300
:10179000808180532AE0829F900D1124892F089523
:1017A0000F931F93CF93DF93CDB7DEB72A970FB672
:1017B000F894DEBF0FBECDBF80EC92E00E949F0B7D
:1017C00082ED92E00E949F0B8DED92E00E949F0BB4
:1017D00009E414E0F80187814AE0BE016F5F7F4FA2
:1017E00090E00E94EA0F0E949F0B82EE92E00E941E
:1017F0009F0B83E293E00E949F0B8CE293E00E9498
:101800009F0BE091A004F091A10480814AE0BE0109
:101810006F5F7F4F90E00E94EA0F0E949F0B81E371
:1018200093E00E949F0B8CE393E00E949F0BE0915A
:10183000A004F091A10481814AE0BE016F5F7F4F57
:1018400090E00E94EA0F0E949F0B81E493E00E94C7
:101850009F0B8CE493E00E949F0BE091A004F09119
:10186000A10482814AE0BE016F5F7F4F90E00E9439
:10187000EA0F0E949F0B81E593E00E949F0B8AE58F
:1018800093E00E949F0B8091A0049091A104039685
:101890000E949F0B8FE593E00E949F0B85E793E0EA
:1018A0000E949F0BE091A004F091A10486814AE080
:1018B000BE016F5F7F4F90E00E94EA0F0E949F0B76
:1018C0008AE793E00E949F0B87E893E00E949F0BBA
:1018D000E091A004F091A10487814AE0BE016F5F0E
:1018E0007F4F90E00E94EA0F0E949F0B8CE893E0EC
:1018F0000E949F0B8AE993E00E949F0BE091A00455
:10190000F091A10480854AE0BE016F5F7F4F90E0B7
:101910000E94EA0F0E949F0B8FE993E00E949F0BA9
:1019200081EB93E00E949F0B8DEB93E00E949F0B55
:10193000F80161AD72AD83AD94AD8E010F5F1F4FA5
:1019400023E040E00E948D0F0E949F0B82EC93E009
:101950000E949F0B83ED93E00E949F0B6091860491
:1019600070918704809188049091890423E040E07D
:101970000E948D0F0E949F0B88ED93E00E949F0BA9
:1019800089EE93E00E949F0B4AE0B80180918E049B
:1019900090918F040E94EA0F0E949F0B8EEE93E0BD
:1019A0000E949F0B86E194E00E949F0B4AE0B801E1
:1019B00080919004909191040E94EA0F0E949F0BE5
:1019C0008BE194E00E949F0B2A960FB6F894DEBF3D
:1019D0000FBECDBFDF91CF911F910F910895991B3D
:1019E00079E004C0991F961708F0961B881F7A9516
:1019F000C9F780950895AA1BBB1B51E107C0AA1F18
:101A0000BB1FA617B70710F0A61BB70B881F991F9F
:101A10005A95A9F780959095BC01CD010895A1E252
:101A20001A2EAA1BBB1BFD010DC0AA1FBB1FEE1F58
:101A3000FF1FA217B307E407F50720F0A21BB30BA3
:101A4000E40BF50B661F771F881F991F1A9469F71F
:101A500060957095809590959B01AC01BD01CF017B
:101A60000895EE0FFF1F0024001C0BBE0790F69197
:101A7000E02D09940E944C0DB7FF0895821B930B33
:101A800008950E944C0DA59F900DB49F900DA49FAA
:101A9000800D911D11240895A29FB001B39FC00134
:101AA000A39F700D811D1124911DB29F700D811D8A
:101AB0001124911D08955058BB27AA270E94730D29
:101AC0000C94E60E0E94D80E38F00E94DF0E20F033
:101AD00039F49F3F19F426F40C94D50E0EF4E095DA
:101AE000E7FB0C94CF0EE92F0E94F70E58F3BA17BC
:101AF000620773078407950720F079F4A6F50C9424
:101B0000190F0EF4E0950B2EBA2FA02D0B01B90181
:101B100090010C01CA01A0011124FF27591B99F063
:101B2000593F50F4503E68F11A16F040A22F232F6F
:101B3000342F4427585FF3CF469537952795A795BF
:101B4000F0405395C9F77EF41F16BA0B620B730B66
:101B5000840BBAF09150A1F0FF0FBB1F661F771FD7
:101B6000881FC2F70EC0BA0F621F731F841F48F48C
:101B7000879577956795B795F7959E3F08F0B0CF15
:101B80009395880F08F09927EE0F979587950895FC
:101B90000E94AB0E08F481E008950E94E10D0C94C0
:101BA000E60E0E94DF0E58F00E94D80E40F029F495
:101BB0005F3F29F00C94CF0E51110C941A0F0C9426
:101BC000D50E0E94F70E68F39923B1F3552391F3D4
:101BD000951B550BBB27AA2762177307840738F09C
:101BE0009F5F5F4F220F331F441FAA1FA9F335D0F9
:101BF0000E2E3AF0E0E832D091505040E695001CAD
:101C0000CAF72BD0FE2F29D0660F771F881FBB1F66
:101C1000261737074807AB07B0E809F0BB0B802D44
:101C2000BF01FF2793585F4F3AF09E3F510578F070
:101C30000C94CF0E0C941A0F5F3FE4F3983ED4F34C
:101C4000869577956795B795F7959F5FC9F7880F44
:101C5000911D9695879597F90895E1E0660F771F96
:101C6000881FBB1F621773078407BA0720F0621B27
:101C7000730B840BBA0BEE1F88F7E09508950E9452
:101C8000FF0E88F09F5798F0B92F9927B751B0F001
:101C9000E1F0660F771F881F991F1AF0BA95C9F7F0
:101CA00014C0B13091F00E94190FB1E008950C9466
:101CB000190F672F782F8827B85F39F0B93FCCF319
:101CC000869577956795B395D9F73EF4909580956D
:101CD000709561957F4F8F4F9F4F0895E89409C08D
:101CE00097FB3EF490958095709561957F4F8F4F4F
:101CF0009F4F9923A9F0F92F96E9BB279395F69565
:101D0000879577956795B795F111F8CFFAF4BB0FE2
:101D100011F460FF1BC06F5F7F4F8F4F9F4F16C046
:101D2000882311F096E911C0772321F09EE8872FD0
:101D3000762F05C0662371F096E8862F70E060E08C
:101D40002AF09A95660F771F881FDAF7880F969505
:101D5000879597F90895990F0008550FAA0BE0E8A9
:101D6000FEEF16161706E807F907C0F0121613065D
:101D7000E407F50798F0621B730B840B950B39F49D
:101D80000A2661F0232B242B252B21F408950A2603
:101D900009F4A140A6958FEF811D811D089597F943
:101DA0009F6780E870E060E008959FEF80EC089501
:101DB00000240A941616170618060906089500242A
:101DC0000A9412161306140605060895092E0394A4
:101DD000000C11F4882352F0BB0F40F4BF2B11F418
:101DE00060FF04C06F5F7F4F8F4F9F4F089557FD77
:101DF0009058440F551F59F05F3F71F04795880F79
:101E000097FB991F61F09F3F79F08795089512160F
:101E100013061406551FF2CF4695F1DF08C01616BB
:101E200017061806991FF1CF86957105610508946C
:101E30000895E894BB2766277727CB0197F9089583
:101E40000E94330F0C94E60E0E94D80E38F00E94C8
:101E5000DF0E20F0952311F00C94CF0E0C94D50ECC
:101E600011240C941A0F0E94F70E70F3959FC1F382
:101E7000950F50E0551F629FF001729FBB27F00D38
:101E8000B11D639FAA27F00DB11DAA1F649F66278D
:101E9000B00DA11D661F829F2227B00DA11D621FDC
:101EA000739FB00DA11D621F839FA00D611D221F96
:101EB000749F3327A00D611D231F849F600D211D7A
:101EC000822F762F6A2F11249F5750409AF0F1F0FD
:101ED00088234AF0EE0FFF1FBB1F661F771F881F66
:101EE00091505040A9F79E3F510580F00C94CF0EC1
:101EF0000C941A0F5F3FE4F3983ED4F386957795E0
:101F00006795B795F795E7959F5FC1F7FE2B880F0B
:101F1000911D9695879597F90895EF920F931F93CA
:101F2000CF93DF93E80147FD02C034E001C034E104
:101F3000E42F440FFF0BF7FF03C0F195E195F10982
:101F4000E32E022F2E2FAE010E944810CE01DF910A
:101F5000CF911F910F91EF900895662777270C94EA
:101F6000D611FC0188279927E89421912032E9F3C2
:101F7000293010F02E30C8F32B3241F02D3239F4D5
:101F8000689404C00E940410820F911D2191205377
:101F90002A30C0F31EF4909581959F4F0895FB0160
:101FA000DC010D900020E9F7119701900D920020BF
:101FB000E1F70895FB01DC018D910190801901107A
:101FC000D9F3990B0895FB01DC0101900D920020DB
:101FD000E1F70895BB274A3031F4992322F4BDE29A
:101FE000909581959F4F0C942F10BB272A3051F468
:101FF000992342F4BDE290958095709561957F4F4D
:102000008F4F9F4F0C940D107AE0979F902D879FD4
:10201000802D910D11240895BB27FA01A62F621778
:10202000710581059105330B30FB66F0AA27660F19
:10203000771F881F991FAA1FA21710F0A21B639574
:102040003850A9F7A05DAA3308F0A95DA19336F72F
:10205000B111B1931082CA010C943E14BB27FB014D
:102060005527AA27880F991FAA1FA41710F0A41B91
:1020700083955051B9F7A05DAA3308F0A95DA193EB
:10208000009779F7B111B1931192CB010C943E14E2
:102090004F925F926F927F929F92AF92BF92CF9238
:1020A000DF92EF92FF920F931F93CF93DF93CDB701
:1020B000DEB729970FB6F894DEBF0FBECDBF6A0119
:1020C000122FB02E2BE3201720F0FF24F394F00EF4
:1020D00002C0BCE3FB2E0F2D27E0AE014F5F5F4F28
:1020E0000E944513AC018981982F9970913031F08D
:1020F000E1FC06C0E0FE06C090E205C09DE203C020
:102100009BE201C090E0EE2DE07183FF3CC0911195
:1021100002C083E001C084E0811718F4212F281B3E
:1021200001C020E0E1110BC0F601822F30E28823CC
:1021300019F031938150FBCFC20ED11C20E09923BE
:1021400029F0D6019C93F60131966F01C6010396E2
:10215000E2FE0AC03EE4D6013C9341E411964C9362
:10216000119712963C9306C03EE6F601308341E695
:1021700041833283FC01322F40E2332309F442C011
:1021800041933150FACF82FF44C0911102C083E0E5
:1021900001C084E0811718F4212F281B01C020E022
:1021A000E1110BC0F601822F30E2882319F0319340
:1021B0008150FBCFC20ED11C20E0992329F0D6011B
:1021C0009C93F60131966F01C6010396E2FE0BC0A7
:1021D00039E4D6013C933EE411963C93119736E4E2
:1021E00012963C9307C039E6F60130833EE6318310
:1021F00036E63283FC01322F40E2332319F041935B
:102200003150FBCFFC01E20FF11D10828EEF9FEFEA
:10221000B7C0F1E0911101C0F0E06F2F70E014162B
:10222000150624F49A012F5F3F4F02C021E030E0F1
:10223000260F371FBB2029F06B2D70E06F5F7F4F9B
:1022400002C060E070E0260F371F612F70E0261794
:1022500037071CF4121B212F01C020E03E2D3871DE
:1022600059F4D601322F60E2332319F06D933150C7
:10227000FBCFC20ED11C20E0FF2331F0D6019C938E
:10228000B6016F5F7F4F6B01E1110BC0F601922F1A
:1022900030E3992319F031939150FBCFC20ED11C3A
:1022A00020E09F2D940F3A81782F7071A72E84FF24
:1022B00003C0313309F49150191624F4993018F001
:1022C00098E001C091E0E42F852F57FF02C0E0E0C5
:1022D00080E06E2F782FE0E0F0E0AEE29A2E3A0137
:1022E000691A71082A01461A570A0B2D10E0119538
:1022F000019511096F3F8FEF780729F4D6019C9261
:10230000C60101966C014617570784F066167706DA
:102310006CF47F01E40CF51CA1E0B0E0AC0FBD1F34
:10232000EA0EFB1ED7011196BC9002C090E3B92EB5
:10233000615071093196C60101967C0160177107E1
:1023400024F0D601BC926C01D5CF6417750741F417
:10235000363320F4353321F4A11002C081E3B82EC6
:10236000F601B082F701822F90E2882319F0919351
:102370008150FBCFF701E20FF11D108280E090E069
:1023800029960FB6F894DEBF0FBECDBFDF91CF9177
:102390001F910F91FF90EF90DF90CF90BF90AF9083
:1023A0009F907F906F905F904F9008956F927F9273
:1023B0008F929F92AF92BF92CF92DF92EF92FF9255
:1023C0000F931F93CF93DF93EC017B016115710590
:1023D00019F0DB018D939C938E010F5F1F4F788066
:1023E000872D90E00E941D14892B11F0E801F4CF95
:1023F000BDE27B1205C00F5F1F4F7980C1E008C0AE
:10240000EBE27E1204C08E010E5F1F4F7980C0E0A8
:102410006801F1E0CF1AD10843E050E064EC70E0CD
:10242000C6010E942614892BF1F4680122E0C20E35
:10243000D11C45E050E06FEB70E0C6010E9426140D
:10244000892B21F4680187E0C80ED11CE114F10446
:1024500019F0D701CD92DC92C111FFC060E070E0AD
:1024600080E89FE703C143E050E06CEB70E0C601F9
:102470000E942614892B51F4E114F10409F4F2C0EE
:102480000E5F1F4FF70111830083ECC0680160E00D
:1024900070E0CB0100E010E0F601D0EDD70DDA30AE
:1024A00058F52C2F2260622E2C2F2870C2FF05C0F9
:1024B000211128C00F5F1F4F25C0222311F00150AA
:1024C0001109A5E0B0E09B01AC010E94410D4B0158
:1024D0005C01880C991CAA1CBB1CC501B4016D0FC2
:1024E000711D811D911D6839A9E97A078A07A9E143
:1024F0009A0740F0C66005C0DE3F51F4C3FD44C0FA
:10250000C8606C2EBFEFCB1ADB0A7080C62DC4CF1B
:102510002D2F2F7D2531C1F540814D3211F4C06141
:1025200006C04B3221F0319621E030E006C03296F1
:10253000D60111964C9122E030E0A0EDA40FAA3014
:1025400018F0E21BF30B20C040E050E04038BCE044
:102550005B075CF49A01220F331F220F331F420FD7
:10256000531F440F551F4A0F511D3196DF0111971C
:102570002C91A0EDA20FAA3048F3C4FF03C05195DF
:1025800041955109040F151FC1FF07C0E114F10463
:1025900021F03197D701ED93FC930E946E0EC3702A
:1025A000C33019F06B017C0106C06B017C01F7FAA6
:1025B000F094F7F8F09420E030E0A901C701B601EB
:1025C0000E94C80D882309F445C017FF06C0119565
:1025D00001951109CBEDD0E002C0C3EFD0E05E0160
:1025E000B8E1AB1AB1084601BE2DAF2D90E2E92E3D
:1025F000F12C0E151F0584F0FE01259135914591B2
:102600005491B4018B2F9A2F0E94200F4B01B82FA9
:10261000A92F0E191F09EDCF2497F594E794CA1539
:10262000DB0539F76401EB2EFA2E8E2D880F8F2DE6
:10263000881F8F3F49F020E030E0A901C701B601B3
:102640000E94C80D811106C082E290E09093A4041C
:102650008093A304C701B60109C060E070E080E880
:102660009FEF04C060E070E080EC9FE7DF91CF91C6
:102670001F910F91FF90EF90DF90CF90BF90AF90A0
:102680009F908F907F906F900895283008F027E0FA
:102690003327DA01990F311D87FD9160009661059E
:1026A000710539F432602E5F3D9330E32A95E1F7EE
:1026B00008959F3F30F080387105610509F03C5F57
:1026C0003C5F3D93913008F08068911DDF93CF937C
:1026D0001F930F93FF92EF92192F987F9695E92FF2
:1026E00096959695E90FFF27EF5AFE4F99273327C6
:1026F000EE24FF24A701E70105900894079428F42D
:10270000360FE71EF81E491F511D660F771F881FE1
:10271000991F0694A1F70590079428F4E70EF81E78
:10272000491F561FC11D770F881F991F661F0694EA
:10273000A1F70590079428F4F80E491F561FC71FEC
:10274000D11D880F991F661F771F0694A1F705906A
:10275000079420F4490F561FC71FD81F990F661FF3
:10276000771F881F0694A9F784911095177041F080
:10277000D695C79557954795F794E7941A95C1F75D
:10278000E7EFF0E06894159015913591659195917A
:1027900005907FE27395E118F10A430B560BC90BC4
:1027A000D009C0F7E10CF11E431F561FC91FD01DF1
:1027B0007EF4703311F48A95E6CFE894015030F03E
:1027C000080F0AF40027021708F4202F2395022F80
:1027D0007A3328F079E37D932A95E9F710C07D9349
:1027E0002A9589F6069497956795379517951794C6
:1027F000E118F10A430B560BC90BD00998F0239549
:102800007E9173957A3308F070E37C932013B8F7C8
:102810007E9170617D9330F0839571E37D9370E3D9
:102820002A95E1F71124EF90FF900F911F91CF911E
:10283000DF91992787FD9095089591110C944E147E
:10284000803219F089508550C8F70895FB01DC01EA
:102850004150504088F08D9181341CF08B350CF440
:10286000805E659161341CF06B350CF4605E861BF4
:10287000611171F3990B0895881BFCCFDC01FC01F9
:10288000672F71917723E1F7329704C07C916D93A4
:1028900070836291AE17BF07C8F308959927882700
:1028A0000895F999FECF92BD81BDF89A992780B518
:1028B0000895A6E1B0E044E050E00C948B14A8E148
:1028C000B0E042E050E00C948B14262FF999FECF33
:1028D00092BD81BDF89A019700B4021639F01FBA73
:1028E00020BD0FB6F894FA9AF99A0FBE0895039690
:1028F000272F0E9466140E946514252F0E946614DB
:10290000242F0C9466140196272F0E9466140C94B1
:102910006514DC01CB01FC01F999FECF06C0F2BDC4
:10292000E1BDF89A319600B40D9241505040B8F78D
:062930000895F894FFCFAA
:10293600A603CC039903FF03840499040000000056
:102946005375004D6F005475005765005468004676
:1029560072005361006572001F003B005A00780048
:102966009700B500D400F300110130014E014E6FFF
:1029760074206120636F72726563742076616C7572
:1029860065006D7573742062653A20303D3C736551
:1029960063733C3630006D7573742062653A20307F
:1029A6003D3C6D696E733C3630006D757374206204
:1029B600653A20303D3C686F75723C3234006D7567
:1029C60073742062653A20303D3C7765656B6461BF
:1029D600793C37006D7573742062653A20303C642B
:1029E60061793C3332006D7573742062653A20302C
:1029F6003C6D6F6E74683C3133006D757374206284
:102A0600653A2031363D3C796561723C3939004280
:102A16006164207265717565737420210D0A002446
:102A260024004E6F74206120726571756573742081
:102A3600210D0A0020005F5F5F5F5F5F5F5F5F5F82
:102A46005F5F5F5F5F007C7765656B646179007CC3
:102A56007365636F6E6473007C6D696E7574657300
:102A6600007C686F75727309007C64617909007C6B
:102A76006D6F6E746809007C7965617209007C73FC
:102A8600746172742079656172000973746F7020C5
:102A960079656172000961646420746F20646179EC
:102AA60073007C7374617274206D6F6E74680009B4
:102AB60073746F70206D6F6E7468007C73746172CE
:102AC6007420646179000973746F70206461790001
:102AD6003A007C74696D657374616D7020726573FC
:102AE600756C74006C6561702020596561727300A5
:102AF600436F6E66696775726174696F6E203A0D11
:102B06000A004C6F67676572203A0D0A0024303060
:102B16003D0009303A206E6F74206D6561737572E1
:102B2600652C313A203130732061766572616765B4
:102B36002C323A316D696E20617665726167652C5B
:102B4600333A31306D696E20617665726167652E44
:102B56000D0A0054696D65203A0D0A002431313D95
:102B660000097365636F6E64730D0A002431323D8C
:102B760000096D696E757465730D0A002431333D65
:102B86000009686F7572730D0A002431343D00091F
:102B9600303A73752C313A6D6F2C2E2E2E2C363A18
:102BA60073610D0A002431353D00096D6F6E74683E
:102BB600206461790D0A002431363D00097965618A
:102BC60072206D6F6E74680D0A002431373D00095E
:102BD6007965617220283136202D203939290D0A70
:102BE6000053656E736F7273203A0D0A00243230FB
:102BF6003D0009616E656D6F3120666163746F72A9
:102C06000D0A002432313D0009616E656D6F312079
:102C16006F66667365740D0A002432323D000964DE
:102C26006567726565206F6666736574206D75737A
:102C360074206265747765656E203020616E64204D
:102C46003335390D0A002432333D000976616E654D
:082C56002070696E0D0A0000F8
:00000001FF
