:100000000C9444010C9463010C9463010C946301FF
:100010000C9463010C9463010C9463010C946301D0
:100020000C9463010C9463010C9463010C946301C0
:100030000C9463010C9463010C9463010C946301B0
:100040000C9458130C9463010C94ED0F0C94630101
:100050000C9463010C9463010C9463010C94630190
:100060000C9463010C9463010C9463010C94630180
:100070000C9463010C9463010C9463010C94630170
:100080000C9463010C9463010C9463014572726FCC
:100090007220696E2067657474696E6720636C7581
:1000A0007374657200456E64206F6620436C7573CF
:1000B00074657220436861696E00204E6F2066721D
:1000C000656520636C75737465722100204E6F2026
:1000D0006672656520636C75737465722100496E84
:1000E00076616C69642066696C654E616D652E2E63
:1000F000004572726F7220696E2067657474696E54
:100100006720636C7573746572004572726F72203C
:10011000696E2067657474696E6720636C757374AB
:10012000657200524F4F5400444952002020200075
:1001300046494C45002020200046696C65206465D6
:100140006C65746564210044656C6574696E672E26
:100150002E004E414E494E495459494E46CDCCCCC5
:100160003D0AD7233C17B7D13877CC2B329595E68B
:10017000241FB14F0A000020410000C84200401C6B
:100180004620BCBE4CCA1B0E5AAEC59D7400407AB8
:1001900010F35A00A0724E18090010A5D4E8000010
:1001A000E87648170000E40B54020000CA9A3B00AE
:1001B0000000E1F505000080969800000040420F25
:1001C000000000A08601000000102700000000E8E9
:1001D00003000000006400000000000A00000000AE
:1001E000000100000000002C76D888DC674F08234F
:1001F000DFC1DFAE59E1B1B796E5E3E453C63AE6B5
:1002000051997696E8E6C28426EB898C9B62ED4094
:100210007C6FFCEFBC9C9F40F2BAA56FA5F49005E3
:100220005A2AF75C936B6CF9676DC11BFCE0E40D17
:1002300047FEF520E6B500D0ED902E03009435770B
:10024000050080841E080000204E0A000000C80C33
:10025000333333330F986E12831141EF8D2114899C
:100260003BE65516CFFEE6DB18D1844B381BF77CF6
:100270001D901DA4BBE424203284725E228100C93B
:10028000F124ECA1E53D270011241FBECFEFD0E102
:10029000DEBFCDBF14E0A0E0B1E0EEE4F9E300E0A2
:1002A0000BBF02C007900D92AE34B107D9F72AE018
:1002B000AEE4B4E001C01D92A13AB207E1F70E949A
:1002C0000C120C94A51C0C940000CF92DF92EF92BC
:1002D000FF929B01AC01A0910F0AB091100AC0904F
:1002E0005504D0905604E0905704F09058042250E2
:1002F0003109410951090E9484166C0D7D1D8E1D26
:100300009F1DFF90EF90DF90CF9008954F925F92E6
:100310006F927F928F929F92AF92BF92CF92DF9215
:10032000EF92FF920F931F93CF93DF934B015C01EA
:10033000C42F2801390180911C0A90911D0A22E0E6
:10034000880C991CAA1CBB1C2A95D1F720915D042E
:1003500030915E04C090120AD090130AE090140A03
:10036000F090150AC80ED91EE11CF11C40E050E0C7
:10037000C501B4010E945316C20ED31EE41EF51E21
:1003800020915D0430915E0440E050E0C501B4016D
:100390000E9453164B015C01DAE0C701B6010E94CE
:1003A000350E882311F0D150C1F7F401E558FB4F09
:1003B000C11106C060817181828193819F700BC0E1
:1003C0004082518262827382C701B6010E946B0E25
:1003D00060E070E0CB01DF91CF911F910F91FF9012
:1003E000EF90DF90CF90BF90AF909F908F907F90D5
:1003F0006F905F904F900895CF92DF92EF92FF92AF
:100400000F931F93CF93DF9300D000D0CDB7DEB70B
:10041000182F062F6091120A7091130A8091140A06
:100420009091150A6F5F7F4F8F4F9F4F29833A83BB
:100430004B835C830E94350EC0907B04D0907C047B
:10044000E0907D04F0907E0429813A814B815C81AB
:1004500082E5C816D80681E6E80681E4F80609F0C8
:1004600057C0C0905F06D0906006E0906106F090A3
:100470006206E2E7CE16DE06E1E4EE06E1E6FE06FF
:1004800009F046C0C0907706D0907806E0907906D3
:10049000F0907A06C114D104F5E5EF06FAEAFF06FA
:1004A000B9F5011114C0113049F4609163067091DF
:1004B000640680916506909166062DC0609167067E
:1004C000709168068091690690916A0624C0113087
:1004D00049F4209363063093640640936506509375
:1004E000660608C020936706309368064093690645
:1004F00050936A066091120A7091130A8091140A4F
:100500009091150A6F5F7F4F8F4F9F4F0E946B0E28
:100510006FEF7FEFCB010F900F900F900F90DF9157
:10052000CF911F910F91FF90EF90DF90CF900895A2
:100530000F931F93CF93DF931092120A1092130A16
:100540001092140A1092150A60E070E0CB010E942C
:10055000350E80917B048D7F893E09F08AC08091A1
:1005600086049091870490935E0480935D0480914B
:10057000880490E09093100A80930F0AE091890418
:10058000F0918A04F0931D0AE0931C0A8091A7045D
:100590009091A804A091A904B091AA048093660444
:1005A00090936704A0936804B0936904C0911C0AF7
:1005B000D0911D0AA0918B0420919F043091A0043A
:1005C0004091A1045091A204B0E00E9484168B01D6
:1005D0009C018091970490919804A0919904B09106
:1005E0009A048C0F9D1FA11DB11D800F911FA21F8A
:1005F000B31F8093550490935604A0935704B0936F
:10060000580440910F0A5091100A60919B04709118
:100610009C0480919D0490919E046E1B7F0B810928
:100620009109601B710B820B930B9A0140E050E023
:100630000E94531620935F0430936004409361043A
:100640005093620420E030E0A90160E081E00E9464
:10065000FC0100915F0410916004209161043091CD
:100660006204061717072807390720F51092980A21
:1006700024C08091790690917A0685359A4A11F0C6
:1006800081E01CC060914106709142068091430652
:10069000909144066093120A7093130A8093140A8F
:1006A0009093150A0E94350E80917B048D7F893EC0
:1006B00039F755CF81E08093980A80E0DF91CF91A0
:1006C0001F910F910895CF93DF93CDB7DEB72B978E
:1006D0000FB6F894DEBF0FBECDBFFC0140E0219104
:1006E0002E3221F04F5F4C30D1F709C0542F4930E2
:1006F00030F49E012F5F3F4FF901DC0106C08EED03
:1007000090E00E94FF0F81E040C06E2F621B6417D3
:1007100018F46D916193F9CF60E2483031F0F9013E
:10072000E40FF11D60834F5FF8CF5F5F70E2FC0163
:10073000E50FF11D6081662331F05F5FF901E40F81
:10074000F11D608308C0642F4F5FF901E60FF11DB2
:1007500070834B30C0F34F5F4B3048F3AE01445FC2
:100760005F4FF90160817FE9760F7A3110F46052B2
:1007700060833196E417F507A9F7DC01F90181914F
:100780008D93E417F507D9F780E02B960FB6F89410
:10079000DEBF0FBECDBFDF91CF9108954F925F9224
:1007A0006F927F928F929F92AF92BF92CF92DF9281
:1007B000EF92FF926B017C0180E8C822260137018D
:1007C00032E0440C551C661C771C3A95D1F7809199
:1007D0005F0490916004A0916104B0916204C81616
:1007E000D906EA06FB0608F042C080911C0A9091E7
:1007F0001D0A20915D0430915E048090120A909051
:10080000130AA090140AB090150A880E991EA11C14
:10081000B11C40E050E0C301B2010E945316820EA9
:10082000931EA41EB51EC501B4010E94350EEBE750
:10083000F4E020E081919191A191B191BF70892B59
:100840008A2B8B2B39F4C701B601620F711D811DF4
:10085000911D10C02F5F203869F780E8C80ED11CA9
:10086000E11CF11C82E0580E611C711CB0CF60E0ED
:1008700070E0CB01FF90EF90DF90CF90BF90AF90F2
:100880009F908F907F906F905F904F9008959F9270
:10089000AF92BF92CF92DF92EF92FF920F931F938E
:1008A000CF93DF93CDB7DEB764970FB6F894DEBF72
:1008B0000FBECDBFA82E94E1E0E1F1E0DE0111967C
:1008C00001900D929A95E1F7ECE0BE2EFCE29F2E8E
:1008D000AAE0CA2ED12CE12CF12C85E0B81619F033
:1008E000E9E0BE1205C0FE01EB0DF11D9082BA9445
:1008F0008E010B0D111DCB01BA01A70196010E94BB
:100900005316CA016063F8016083A901BC01411557
:1009100051056105710511F0BA94F9F6F1E0AF12D5
:1009200002C08BE48E87CE0101960E94101064965F
:100930000FB6F894DEBF0FBECDBFDF91CF911F91F0
:100940000F91FF90EF90DF90CF90BF90AF909F906E
:100950000895CF92DF92EF92FF920F931F93CF9360
:10096000C82F8A019B011170222733276A017B015E
:1009700089E0F694E794D794C7948A95D1F7012B30
:10098000022B032B29F08FEFC81AD80AE80AF80ABD
:10099000B701A6014770552766277727B3E0F6947D
:1009A000E794D794C794BA95D1F7452B462B472B9C
:1009B00029F08FEFC81AD80AE80AF80A8091980A35
:1009C0008823F9F020E030E0A90160E081E00E9496
:1009D000FC019B01AC01C11105C02C0D3D1D4E1D3C
:1009E0005F1D04C02C193D094E095F0961E081E0DB
:1009F000CF911F910F91FF90EF90DF90CF900C94CB
:100A0000FC01CF911F910F91FF90EF90DF90CF905D
:100A100008952F923F924F925F926F927F928F92A2
:100A20009F92AF92BF92CF92DF92EF92FF920F937D
:100A30001F93CF93DF93CDB7DEB72B970FB6F89404
:100A4000DEBF0FBECDBF382E6887272EC09066044C
:100A5000D0906704E0906804F09069048FEF830DF4
:100A60008F83C701B6010E9465016B837C838D83F0
:100A70009E83412C512C320180910F0A9091100AD3
:100A8000A0E0B0E0481659066A067B0608F08FC061
:100A90008B809C80AD80BE80840C951CA61CB71CEE
:100AA000C501B4010E94350E06E814E0ABE7B4E0DE
:100AB000BB87AA872A853B852B57344080915D04EC
:100AC00090915E042817390708F06BC0EA85FB8512
:100AD0008081811104C0F2E03F1204C084C0853ED1
:100AE00009F457C0D8018C918F3009F452C0BF81EE
:100AF000B23060F4E885F22DAA85BB859D91819185
:100B0000981347C0A017B107C9F770C080E00E94D2
:100B1000520FEA85FB85FA83E98390E0A981BA81C7
:100B20006D91BA83A98380E099870E94430F9985CC
:100B30009F5F9B3049F0983089F760E280E09987A9
:100B40000E94430F9985EACF85E391E00E94FF0F51
:100B5000F80180818031B1F08830B9F080E391E014
:100B60000E94FF0F8CE291E00E94FF0FAA85BB85D7
:100B70005C964D915D916D917C915F9780E00E94B4
:100B8000470407C088E291E002C083E291E00E943E
:100B9000FF0FEA85FB85B096FB87EA87005E1F4F53
:100BA00089CFFFEF4F1A5F0A6F0A7F0A65CF00E017
:100BB00010E0980140E0C701B6010E9486016B0178
:100BC0007C0187EFC8168FEFD806E8068FE0F8069D
:100BD00050F4C114D104E104F10409F042CF8AE0D9
:100BE00091E00E94FF0F80E090E0A5C091E03912F3
:100BF0003BC08092990A90929A0AA0929B0AB09266
:100C00009C0AC901A0E0B0E0809350049093510485
:100C1000A0935204B0935304EA85FB858489958997
:100C2000A0E0B0E0DC0199278827428D538D60E079
:100C300070E0842B952BA62BB72B80932B0A9093D7
:100C40002C0AA0932D0AB0932E0A848D958DA68D23
:100C5000B78D8093590490935A04A0935B04B0938A
:100C60005C048A859B8567C080E00E94520F87E400
:100C700091E00E94FF0F80E00E94520F80E00E94EE
:100C8000520FAA85BB855496CD90DC905597E12CE8
:100C9000F12C7601DD24CC245A968D919C915B97A2
:100CA000A0E0B0E0C82AD92AEA2AFB2A85EEEA8524
:100CB000FB858083C501B4010E946B0EAA85BB85AC
:100CC0005C964D915D916D917C915F9780E00E9463
:100CD000A90420E030E0A90160E082E00E94FC016C
:100CE000C616D706E806F90630F4A701960161E0BA
:100CF00082E00E94FC0100E010E0980140E0C701A2
:100D0000B6010E9486014B015C0100E010E09801F1
:100D100041E0C701B6010E948601B7EF8B16BFEF15
:100D20009B06AB06BFE0BB0618F475016401E3CF78
:100D300089E391E056CF2B960FB6F894DEBF0FBE35
:100D4000CDBFDF91CF911F910F91FF90EF90DF907A
:100D5000CF90BF90AF909F908F907F906F905F905B
:100D60004F903F902F9008952F923F924F925F9215
:100D70006F927F928F929F92AF92BF92CF92DF92AB
:100D8000EF92FF920F931F93CF93DF93CDB7DEB710
:100D90002A970FB6F894DEBF0FBECDBF182FCB0138
:100DA00069877A870E94630369857A8581118AC081
:100DB00081E00E940905009729F481E0112309F4DC
:100DC00086C084C0113009F47FC0DC015496CD90F8
:100DD000DC905597E12CF12C7601DD24CC245A9639
:100DE0004D915C915B9760E070E0C42AD52AE62AB9
:100DF000F72A5C968D919D910D90BC91A02D8983D1
:100E00009A83AB83BC8380E00E94520F80E00E94F3
:100E1000520F812C912C5401C701B6010E9465012B
:100E20006D837E838F83988710E080910F0A909165
:100E3000100A212F30E02817390778F56D817E815F
:100E40008F819885610F711D811D911D0E94350E46
:100E500024013501212C312CF101E558FB4F608133
:100E600080E00E94430FBFEF8B1A9B0AAB0ABB0ABC
:100E700089819A81AB81BC81481659066A067B0636
:100E800028F59FEF291A390A2114A2E03A0619F031
:100E900024013501E1CF1F5FC8CF00E010E09801C9
:100EA00040E0C701B6010E9486016B017C0161151B
:100EB00071058105910509F0AFCF81EF90E00E94A7
:100EC000FF0F04C082E003C081E001C080E02A96E9
:100ED0000FB6F894DEBF0FBECDBFDF91CF911F914B
:100EE0000F91FF90EF90DF90CF90BF90AF909F90C9
:100EF0008F907F906F905F904F903F902F900895CC
:100F0000CF93DF93EC010E946303811106C0BE0101
:100F100082E0DF91CF910C940905DF91CF91089584
:100F20002F923F924F925F926F927F928F929F92F9
:100F3000AF92BF92CF92DF92EF92FF920F931F93E7
:100F4000CF93DF93CDB7DEB728970FB6F894DEBF07
:100F50000FBECDBF8C839D83BC0181E00E94B4068F
:100F6000813009F051C0C0902B0AD0902C0AE0903B
:100F70002D0AF0902E0A812C912C540100E010E0F3
:100F8000980140E0C701B6010E9486016F3F2FEF34
:100F9000720782072FE0920741F0AFEF8A1A9A0A90
:100FA000AA0ABA0A6B017C01E9CFA0910F0AB0919D
:100FB000100A20915D0430915E04E0915D04F0918F
:100FC0005E040E9475169B01AC01C501B4010E942C
:100FD00043168B019C016091590470915A048091D1
:100FE0005B0490915C04601B710B820B930B9F015F
:100FF00040E050E00E945316022F212C312C1B821E
:101000001A827724739445C0823009F424C280E0A8
:101010000E94520F20E030E0A90160E082E00E94CF
:10102000FC0100915F0410916004209161043091F3
:101030006204061717072807390740F46091660411
:101040007091670480916804909169040E94CE03B6
:101050006B017C01611571058105910531F480E01A
:101060000E94520F8CEC90E0F4C10FEF1FEF2FEFB6
:101070003FE041E00E948601FB82EA821601109265
:10108000590410925A0410925B0410925C0400E020
:10109000712C612C802E912CA12CB12C7720E9F1A0
:1010A000C701B6010E946501680D791D8A1D9B1D4F
:1010B00060936D0470936E0480936F04909370043A
:1010C00060916D0470916E0480916F049091700432
:1010D0000E94350E20915D0430915E0440E050E0A6
:1010E0006091590470915A0480915B0490915C0462
:1010F0000E94531673C08B019C0141E0C701B601E9
:101100000E9486010FEF1FEF2FEF3FE041E0C50186
:10111000B4010E94860175016401C701B6010E94F5
:10112000650160936D0470936E0480936F049093D7
:10113000700480E090E000E0E62D6394F0E0E15D73
:10114000F54F1081BC016F5F7F4FFC01E558FB4FED
:1011500010838091590490915A04A0915B04B0913E
:101160005C040196A11DB11D8093590490935A040B
:10117000A0935B04B0935C046115B2E07B0748F177
:1011800060916D0470916E0480916F049091700471
:101190000E946B0E0F5F80910F0A9091100A402FF2
:1011A00050E048175907E1F080916D0490916E046A
:1011B000A0916F04B09170040196A11DB11D8093A0
:1011C0006D0490936E04A0936F04B093700460E07C
:1011D00070E01A3079F0E3E6E61560F0CB01ACCFB1
:1011E0001A3019F460E070E005C0F3E6F61508F077
:1011F00059C0F8CFFB01E558FB4F10826F5F7F4F5E
:10120000611522E07207B1F760916D0470916E0470
:1012100080916F04909170040E946B0EA70196015B
:1012200061E082E00E94FC01772009F44DC06091EA
:10123000990A70919A0A80919B0A90919C0A0E9447
:10124000350EE0915004F0915104E558FB4F138A9C
:10125000128A8091590490915A04A0915B04B09134
:101260005C04448D558D668D778D6C017D01C41AAB
:10127000D50AE60AF70A848F958FA68FB78F6091FB
:10128000990A70919A0A80919B0A90919C0A0E94F7
:101290006B0EB701A60181E00E94A90480E00E94C4
:1012A000520FDBC0C701B6010E94CE034B015C01A7
:1012B000611571058105910509F01DCF80E00E943F
:1012C000520F8AEB90E0C5C0C0906604D0906704CE
:1012D000E0906804F09069041982C701B6010E9489
:1012E00065012B013C0120E080910F0A9091100ACA
:1012F000422F50E04817590708F06EC053014201D1
:10130000820E911CA11CB11CC501B4012E830E9448
:10131000350E8BE794E098878F8300E010E02E81F4
:1013200080915D0490915E040817190708F052C07F
:101330009981911192C0AF81B8858C91882319F061
:10134000853E09F03FC0EC81FD81AF81B8858BE01F
:1013500091919D938150E1F7F801E558FB4FB0E280
:10136000B38714861586EF81F885138A128A8A81DD
:101370009B81958B848B338E228E80915904909122
:101380005A04A0915B04B0915C04848F958FA68F62
:10139000B78FC501B4012E830E946B0E80E00E94BE
:1013A000520F80E00E94520F4091590450915A040C
:1013B00060915B0470915C0481E00E94A904F1E0FB
:1013C000F9832E81005E1F4F8F81988580969887C4
:1013D0008F83A6CF2F5F88CF00E010E0980140E018
:1013E000C701B6010E9486014B015C0197EF891687
:1013F0009FEF9906A9069FE0B90608F1AFEF8A169C
:101400009A06AA06AFE0BA06B9F4C701B6010E946F
:10141000CE034B015C018B019C0141E0C701B60189
:101420000E9486010FEF1FEF2FEF3FE041E0C50163
:10143000B4010E94860103C085EA90E00AC08114CD
:101440009104A104B10419F07501640146CF8CE840
:1014500090E00E94FF0F81E001C080E028960FB667
:10146000F894DEBF0FBECDBFDF91CF911F910F91DA
:10147000FF90EF90DF90CF90BF90AF909F908F90B4
:101480007F906F905F904F903F902F900895EF92D4
:10149000FF920F931F93CF93DF9300D0CDB7DEB7AA
:1014A0008C0101960E947613282F0C5F1F4FC801F4
:1014B0002A830E94F1167C01C801E9820E94ED1680
:1014C0002A813981243109F484C030F42223A9F01F
:1014D000213009F453C0ACC02E3109F487C02F313C
:1014E00009F490C0253109F0A3C020916A0430911D
:1014F0006B04F901EA5BFC4F73C0C7019927823086
:101500009105E1F064F40197B1F5E0916A04F0917E
:101510006B0481E0848382E0868385E022C083308F
:101520009105B1F0049739F5E0916A04F0916B04EC
:1015300084E0848381E0868383E013C0E0916A04C1
:10154000F0916B0482E0848384E086838FE009C09D
:10155000E0916A04F0916B0483E084838AE08683DF
:101560008CE38783CF010E945D0CE0916A04F091C7
:101570006B04158262C064E271E05CC0FF2482E00B
:10158000E816F10479F0E3E0EE16F10499F0EA943C
:10159000EF28C9F4E0916A04F0916B04E659FC4F1E
:1015A00020833FC0E0916A04F0916B04E659FC4F40
:1015B00082E007C0E0916A04F0916B04E659FC4FA9
:1015C00083E080832EC064E271E080E00E945C0FC3
:1015D00028C020916A0430916B04F901EE5BFC4F46
:1015E0006083718382839383C9011FC0313029F5E1
:1015F00000916A0410916B040E944A13F801EE599D
:10160000FC4F0BC03130C9F400916A0410916B0497
:101610000E944E13F801EA59FC4F60837183828364
:10162000938380916A0490916B040E945D0C05C0C5
:1016300068E371E080E00E945C0F0F900F90DF91F3
:10164000CF911F910F91FF90EF900C9480130F9307
:101650001F93CF93DF931F92CDB7DEB78B01BC01F1
:1016600080E049830E945C0F68E471E080E00E94A2
:101670005C0FB80180E00E945C0F4981413051F459
:1016800062EB71E080E00F90DF91CF911F910F919D
:101690000C945C0F0F90DF91CF911F910F910895E3
:1016A0009F92AF92BF92CF92DF92EF92FF920F93F1
:1016B0001F93CF93DF93CDB7DEB764970FB6F8943F
:1016C000DEBF0FBECDBF5B0169017A01902EBC0168
:1016D00080E00E945C0F68E471E080E00E945C0F93
:1016E000B50180E00E945C0F68E471E080E00E9438
:1016F0005C0F8E010F5F1F4F21E040E0C701B60174
:101700000E94CC16BC0180E00E945C0F81E0981220
:1017100005C062EB71E080E00E945C0F64960FB63A
:10172000F894DEBF0FBECDBFDF91CF911F910F9117
:10173000FF90EF90DF90CF90BF90AF909F90089573
:10174000EF92FF920F931F93CF93DF93CDB7DEB746
:1017500065970FB6F894DEBF0FBECDBF8B017A013F
:10176000BC0180E02D8B0E945C0F68E471E080E09A
:101770000E945C0FB80180E00E945C0F68E471E099
:1017800080E00E945C0F4AE0BE016F5F7F4FC7019F
:101790000E942A17BC0180E00E945C0F2D89213035
:1017A00029F462EB71E080E00E945C0F65960FB651
:1017B000F894DEBF0FBECDBFDF91CF911F910F9187
:1017C000FF90EF900895AF92BF92CF92DF92EF9289
:1017D000FF920F93CF93DF93CDB7DEB764970FB629
:1017E000F894DEBF0FBECDBF5B0169017A01BC0179
:1017F00080E00E945C0F68E471E080E00E945C0F72
:10180000B50180E00E945C0F68E471E080E00E9416
:101810005C0F2AE0AE014F5F5F4FC701B6010E9427
:101820003517BC0180E00E945C0F013029F462EBA7
:1018300071E080E00E945C0F64960FB6F894DEBF02
:101840000FBECDBFDF91CF910F91FF90EF90DF9052
:10185000CF90BF90AF90089560E080E090E00E944C
:101860009C1760E070E081E090E00E94B91760E0B2
:1018700083E090E00E949C1760E084E090E00E948A
:101880009C1740E050E0BA0180E290E00E94AD1762
:1018900040E050E0BA0184E290E00E94AD1740E0E1
:1018A00050E0BA0180E390E00E94AD1740E050E0C4
:1018B000BA0184E390E00C94AD17CF93DF93EC0171
:1018C0006C8180E090E00E949C176E8170E081E066
:1018D00090E00E94B9176F8183E090E00E949C170E
:1018E000FE01E659FC4F608184E090E00E949C1765
:1018F000FE01EE5BFC4F408151816281738180E289
:1019000090E00E94AD17FE01EA5BFC4F40815181DF
:101910006281738184E290E00E94AD17FE01EE596E
:10192000FC4F408151816281738180E390E00E948D
:10193000AD17CA59DC4F488159816A817B8184E3A4
:1019400090E0DF91CF910C94AD17CF93DF93EC0132
:1019500080E090E00E9488178C8381E090E00E94F4
:1019600096178E8383E090E00E9488178F8384E02F
:1019700090E00E948817FE01E659FC4F808380E2C8
:1019800090E00E949017FE01EE5BFC4F6083718334
:101990008283938384E290E00E949017FE01EA5BC9
:1019A000FC4F608371838283938380E390E00E9485
:1019B0009017FE01EE59FC4F6083718382839383FD
:1019C00084E390E00E949017CA59DC4F68837983C2
:1019D0008A839B83DF91CF910895FF920F931F938A
:1019E000CF93DF9300D000D0CDB7DEB7082F809122
:1019F000160A811113C08FEE800F823040F088EEFE
:101A0000800F823020F080EE800F823038F489E041
:101A1000440F551F661F771F8A95D1F78091650087
:101A20008D7F80936500802F806449835A836B8308
:101A30007C830E9420107C81872F0E9420106B8164
:101A4000862F0E9420105A81852F0E9420104981E4
:101A5000842F0E942010083011F487E801C085E926
:101A60000E94201010E00E942510F82E8FEFF8122F
:101A700003C01150C1F715C0F11013C00A3389F427
:101A80000E94251086FF04C081E08093160A02C0E0
:101A90001092160A0E9425100E9425100E942510FF
:101AA000F12C0E9425108091650082608093650072
:101AB0008F2D0F900F900F900F90DF91CF911F916E
:101AC0000F91FF9008951F93CF93DF930E941C10F6
:101AD000809165008D7F80936500C1E2D0E040E099
:101AE00050E0BA0180E00E94ED0C2197209739F474
:101AF0006AE471E080E00E945C0F81E079C081308F
:101B000071F7809165008260809365008FEF0E947D
:101B100020108FEF0E942010CFEFD0E04AEA51E072
:101B200060E070E088E00E94ED0C2197209741F47E
:101B300080E00E94520F81E08093930A11E003C07D
:101B4000813061F712E0CFEFD0E040E050E0BA0121
:101B500087E30E94ED0C40E050E060E070E489E231
:101B60000E94ED0C2197209751F480E00E94520FC3
:101B700069E571E080E00E945C0F82E039C081116C
:101B8000E4CF1092160A1230E1F4CFEFD0E040E03B
:101B900050E0BA018AE30E94ED0C2197209731F4BE
:101BA00080E00E94520F1092930A02C08111EFCF81
:101BB0008091160A813011F482E001C083E08093A5
:101BC000930A8091930A823039F0833041F081305A
:101BD00049F465E771E008C06EE771E005C065E8AB
:101BE00071E002C06EE871E080E00E945C0F80E06E
:101BF000DF91CF911F9108958F929F92AF92BF92E4
:101C0000CF92DF92EF92FF926B017C0149015A0162
:101C1000AB01BC0180E20E94ED0C81111DC0B50139
:101C2000A40141505109610971094C0D5D1D6E1DE2
:101C30007F1D81E20E94ED0C81110EC040E050E05A
:101C4000BA0186E2FF90EF90DF90CF90BF90AF9007
:101C50009F908F900C94ED0CFF90EF90DF90CF90C1
:101C6000BF90AF909F908F900895CF93DF93AB017B
:101C7000BC0181E10E94ED0C81112AC080916500B8
:101C80008D7F80936500C0E0D0E00E9425108E3FDC
:101C900051F021972097C9F7809165008260809369
:101CA000650081E015C0C0E0D0E00E942510FE0173
:101CB000E558FB4F80832196C11582E0D807A9F72C
:101CC0000E9425108091650082608093650080E00D
:101CD000DF91CF910895CF93DF93AB01BC0188E1F1
:101CE0000E94ED0C811154C0809165008D7F80931E
:101CF00065008EEF0E942010C0E0D0E0FE01E558A4
:101D0000FB4F80810E9420102196C11522E0D2074E
:101D1000A9F78FEF0E9420108FEF0E9420100E94E1
:101D20002510982F9F71953031F090916500926049
:101D3000909365002DC0C0E0D0E00E942510811175
:101D400003C02196D1F70EC0809165008260809318
:101D500065008FEF0E942010809165008D7F809339
:101D600065000CC08091650082608093650081E011
:101D70000FC0CE0101962196A9F3EC010E94251017
:101D80008823B9F38091650082608093650080E0CC
:101D9000DF91CF9108955D9BFECF8CB90895EF92AE
:101DA0000F931F939E2D882319F0813031F154C079
:101DB0008AB188618AB9599A69B970939000809103
:101DC0009500220F282B80E1489FA0011124242B8D
:101DD0002093950080919500011102C0877F05C076
:101DE00028E0029F80011124802B80939500913080
:101DF00011F4579A31C057982FC080919A0088618A
:101E000080939A0080919B00826080939B006093F6
:101E100099007093980080919D00220F282B80E1FB
:101E2000489FA0011124242B20939D0080919D00A8
:101E3000011102C0877F05C028E0029F80011124A4
:101E4000802B80939D0080919A00913011F48068DE
:101E500001C08F7780939A001F910F91EF900895A2
:101E6000882319F0813021F00895549853980895EB
:101E700080919A008F7E80939A0080919A00877F4C
:101E800080939A000895882319F0813021F00895F5
:101E9000862F0C94CB0E80919B0085FFFCCF609326
:101EA0009C000895CF93C82F6DE00E94430F6AE015
:101EB0008C2FCF910C94430F1F93CF93DF93182F48
:101EC000EB016991812F0E94430F88818111F9CF25
:101ED000DF91CF911F910895882319F0813029F067
:101EE0000BC05F9BFECF8CB1089580919B0087FF54
:101EF000FCCF80919C00089581E00895882319F01B
:101F0000813039F00895613011F4579A0895579847
:101F1000089580919A00613011F4806801C08F7734
:101F200080939A00089580914E040895AF92BF92D5
:101F3000CF92DF92EF92FF920F931F93CF93DF9395
:101F40001F92CDB7DEB75C01D12C50E0042F10E01A
:101F5000780181E0E81AF10880919D0A8823A9F0B0
:101F600010929D0AD0904E04D61689F0CC24C394CA
:101F7000C50EF501E50FF11DD08280914E046983F5
:101F80000E94CB0E5C2D698107C0D61205C0980156
:101F90002150310940E206C0852F90E08E159F0543
:101FA000DCF2F5CF852F90E0F501821793072CF432
:101FB000E80FF91F40835F5FF5CFE00FF11F319706
:101FC00010820F90DF91CF911F910F91FF90EF90B2
:101FD000DF90CF90BF90AF9008951F920F920FB6F1
:101FE0000F9211248F938CB180934E0481E08093E3
:101FF0009D0A8F910F900FBE0F901F901895CF9351
:10200000DF93EC01CE01FE012491222331F02196D1
:10201000FC0184910E94CB0EF5CFDF91CF91089502
:10202000CF93DF93EC018991882319F00E94CB0EA6
:10203000FACFDF91CF91089582E58DB91EB808954A
:102040008FB9779BFECF8FB108958FEF8FB9779BB4
:10205000FECF8FB10895E091960AF091970A81859D
:102060009285A385B4850196A11DB11D81879287B4
:10207000A387B48710927B0680914F04882319F0C0
:1020800010927D06089583E080937D06089560EAAE
:1020900071E081E794E00E941A17892B19F40E94DD
:1020A000801312C080917104843249F480917404C9
:1020B0008D3329F481E794E00E94470A05C063EA62
:1020C00071E080E00E945C0F109263041092710432
:1020D00010924F0484E080937D060895CF93DF93A0
:1020E0008091110A813009F046C00E943E13809110
:1020F0006A0490916B04FC012581211103C00896AC
:102100000E941913C0916A04D0916B04E091960A61
:10211000F091970A6185728583859485798B688BA8
:102120000E948F16FE01E65CFC4F60837183828300
:1021300093836A8B7B8B8C8B9D8B349760837183AD
:1021400082839383389660837183828393836887C5
:1021500079878A879B876C877D878E879F878D810C
:102160008F5F8D839E81891304C01D8281E08093DF
:102170007B061092110A80917B06813011F482E077
:1021800001C084E080937D06DF91CF9108950F9385
:10219000CF9362EB71E080E00E945C0FE091960AC1
:1021A000F091970A218532854385548501E065EBDE
:1021B00071E08FEB91E00E94E30BE0916A04F091F3
:1021C0006B04208531854285538566EC71E08FEB89
:1021D00091E00E94500BE0916A04F0916B04248519
:1021E0003585468557856DEC71E08FEB91E00E9457
:1021F000500BE0916A04F0916B0460897189882723
:1022000077FD8095982F0E9491169B01AC0164ED9B
:1022100071E08FEB91E00E94500BE0916A04F09125
:102220006B04E65CFC4F20813181428153816BED70
:1022300071E08FEB91E00E94500BE0916A04F09105
:102240006B04228933894489558960EE71E08FEBF4
:1022500091E00E94500BE0916A04F0916B04EA5CFB
:10226000FC4F208131814281538169EE71E08FEB17
:1022700091E00E94500BE0916A04F0916B04E25CE3
:10228000FC4F208131814281538162EF71E08FEBFD
:1022900091E00E94500B62EB71E080E00E945C0FC5
:1022A0000E940815E0916A04F0916B04E659FC4F16
:1022B0008081813051F46FE27AE080E00E945C0F0F
:1022C00062EB71E080E00E945C0FE0916A04F091A3
:1022D0006B04E659FC4F8081823009F064C06FE2E4
:1022E0007AE080E00E945C0F8091630082FD54C020
:1022F0008091950A81110AC00E94630D0E94980284
:102300000E945213789481E08093950A80916A0428
:1023100090916B04BC0168587C4F8B579C4F0E9476
:10232000231760916A0470916B046B577C4F81E0B6
:102330000E94B406C82F80916A0490916B04BC017E
:1023400068587C4F8B579C4F0E942317C11110C0B7
:1023500066EF71E08FE29AE00E94231780916A0491
:1023600090916B048B579C4F0E9490070E94081518
:1023700080916A0490916B04BC0168587C4F8B5724
:102380009C4F0E94231780916A0490916B048B5795
:102390009C4F0E94900707C06FE272E080E00E94AD
:1023A0005C0F1092950A80914F04882319F01092C7
:1023B0007D0609C08091110A882311F081E001C0D7
:1023C00084E080937D06CF910F91089580914F0412
:1023D000882319F010927D0608958091110A8130AA
:1023E00021F080910E0A813011F481E001C084E077
:1023F00080937D06089580914F04882319F01092F0
:102400007D0608958091110A882311F081E001C0B2
:1024100084E080937D0608958CE796E090936B04AA
:1024200080936A0410927C0685E080937D0610926A
:102430007F0610927E061092810681E08093E60965
:102440008CE796E00E94A50C80916A0490916B0441
:1024500008960E9419138EE19AE09093970A809350
:10246000960A10926C0410924F041092110A109266
:102470000E0A1092940A10927B0610929D0A1092F6
:1024800054041092950A8FEF84BB15BA82E08093B2
:10249000640087EF87BB10924E0410926304109281
:1024A000930A1092650410926404EE24E39401E010
:1024B00023E040E060E170E080E00E94CF0E0E94E7
:1024C0005213789441E061E672E08AE992E00E945A
:1024D000270BE091960AF091970A8CE0878380E1C0
:1024E00080870E94E51580916A0490916B04BC017D
:1024F00065597C4F88589C4F0E942317C1E0D1E05A
:1025000080916404909165048C359241F1F4E091DE
:10251000960AF091970A87818F5F87838D3020F02C
:1025200080858F5F8087C7830E94E51580916A044C
:1025300090916B04BC0165597C4F88589C4F0E9458
:1025400023171092650410926404E0916A04F091DC
:102550006B048081843658F095B385B3892785BB99
:10256000D093940AE0916A04F0916B0410828091F8
:102570006C04813069F4E0917D06F0E0EE0FFF1FFE
:10258000E050FF4F0190F081E02D099510926C040E
:1025900010919D0A113051F560914E04E091630451
:1025A000F0E0EF58FB4F608380E00E94430F909172
:1025B000630481E0890F8093630480914E04883026
:1025C00021F49150909363040FC08D3069F462EB55
:1025D00071E080E00E945C0FE0916304F0E0E0595C
:1025E000FB4F108210934F0410929D0A4091940A61
:1025F000413009F085CFE0916A04F0916B0482814B
:102600009381019693838283278130E08217930719
:1026100069F44093110A13821282809164049091AC
:102620006504019690936504809364041092940A63
:1026300067CFFC01108211821282138214821582EC
:1026400016821782118610861286138614861586C6
:10265000DC01A25DBC4F1D921D921D921C9213972E
:1026600014961D921D921D921C921397EA5CFC4FCA
:102670001082118212821382089508950895089598
:102680000895089560E070E0CB01089560E070E087
:10269000CB01089560E070E0CB01089560E070E048
:1026A000CB01089586E083BF87B7816087BF089517
:1026B0001F920F920FB60F9211240BB60F928F93A9
:1026C000EF93FF9381E080936C04E0916A04F091B2
:1026D0006B0480818F5F8083FF91EF918F910F90CA
:1026E0000BBE0F900FBE0F901F901895FC018181BB
:1026F0008053908190532AE0929F800D1124089579
:102700000F931F93CF93DF93CDB7DEB72A970FB602
:10271000F894DEBF0FBECDBF63EA72E080E00E9496
:102720005C0F65EB72E080E00E945C0F60EC72E091
:1027300080E00E945C0FE0916A04F0916B04848158
:102740004AE0BE016F5F7F4F90E00E942A17BC01F4
:1027500080E00E945C0F62EB71E080E00E945C0F01
:1027600065EC72E080E00E945C0FE0916A04F091F9
:102770006B04E659FC4F80814AE0BE016F5F7F4FDA
:1027800090E00E942A17BC0180E00E945C0F6AEC76
:1027900072E080E00E945C0F64EF72E080E00E94D3
:1027A0005C0F6DEF72E080E00E945C0FE091960A92
:1027B000F091970A80814AE0BE016F5F7F4F90E001
:1027C0000E942A17BC0180E00E945C0F62E073E067
:1027D00080E00E945C0F6DE073E080E00E945C0F7F
:1027E000E091960AF091970A81814AE0BE016F5FFD
:1027F0007F4F90E00E942A17BC0180E00E945C0F8E
:1028000062E173E080E00E945C0F6DE173E080E0C4
:102810000E945C0FE091960AF091970A82814AE04B
:10282000BE016F5F7F4F90E00E942A17BC0180E0DD
:102830000E945C0F62E273E080E00E945C0F6BE23A
:1028400073E080E00E945C0F6091960A7091970A95
:102850006D5F7F4F80E00E945C0F60E373E080E07B
:102860000E945C0F66E473E080E00E945C0FE091E0
:10287000960AF091970A86814AE0BE016F5F7F4F0A
:1028800090E00E942A17BC0180E00E945C0F6BE47C
:1028900073E080E00E945C0F68E573E080E00E94D6
:1028A0005C0FE091960AF091970A87814AE0BE0199
:1028B0006F5F7F4F90E00E942A17BC0180E00E946A
:1028C0005C0F6DE573E080E00E945C0F6BE673E0E7
:1028D00080E00E945C0FE091960AF091970A808553
:1028E0004AE0BE016F5F7F4F90E00E942A17BC0153
:1028F00080E00E945C0F60E773E080E00E945C0F64
:1029000062E873E080E00E945C0F6EE873E080E0B4
:102910000E945C0FE0916A04F0916B04EE5BFC4F47
:1029200060817181828193818E010F5F1F4F23E04F
:1029300040E00E94CC16BC0180E00E945C0F63E97D
:1029400073E080E00E945C0F64EA73E080E00E9424
:102950005C0FE0916A04F0916B04EA5BFC4F6081CC
:1029600071818281938123E040E00E94CC16BC01FA
:1029700080E00E945C0F69EA73E080E00E945C0FD7
:102980006AEB73E080E00E945C0F69EC73E080E02A
:102990000E945C0FE0916A04F0916B04EE59FC4FC9
:1029A000608171818281938123E040E00E94CC1696
:1029B000BC0180E00E945C0F6EEC73E080E00E943E
:1029C0005C0F65E074E080E00E945C0FE0916A04B7
:1029D000F0916B04EA59FC4F60817181828193818F
:1029E00023E040E00E94CC16BC0180E00E945C0F16
:1029F0006AE074E080E00E945C0F2A960FB6F894BB
:102A0000DEBF0FBECDBFDF91CF911F910F91089513
:102A10000F931F93CF93DF93CDB7DEB764970FB6B5
:102A2000F894DEBF0FBECDBFE091960AF091970AF1
:102A300061857285838594850E948F168E010F5F54
:102A40001F4F20E040E00E94CC16BC018FE29AE0CC
:102A50000E94231761E474E08FE29AE00E940F174E
:102A6000E0916A04F0916B0460857185828593859D
:102A700021E040E00E94CC16BC018FE29AE00E9467
:102A80000F1761E474E08FE29AE00E940F17E09163
:102A90006A04F0916B04648575858685978521E0CD
:102AA00040E00E94CC16BC018FE29AE00E940F1712
:102AB00061E474E08FE29AE00E940F17E0916A04EB
:102AC000F0916B0460897189882777FD8095982F34
:102AD0000E94911621E040E00E94CC16BC018FE2DA
:102AE0009AE00E940F1761E474E08FE29AE00E947E
:102AF0000F17E0916A04F0916B04E65CFC4F608173
:102B000071818281938121E040E00E94CC16BC015A
:102B10008FE29AE00E940F1761E474E08FE29AE07E
:102B20000E940F17E0916A04F0916B046289738927
:102B30008489958921E040E00E94CC16BC018FE297
:102B40009AE00E940F1761E474E08FE29AE00E941D
:102B50000F17E0916A04F0916B04EA5CFC4F60810E
:102B600071818281938121E040E00E94CC16BC01FA
:102B70008FE29AE00E940F1761E474E08FE29AE01E
:102B80000E940F17E0916A04F0916B04E25CFC4F25
:102B9000608171818281938121E040E00E94CC16A6
:102BA000BC018FE29AE00E940F1763E474E08FE2A9
:102BB0009AE064960FB6F894DEBF0FBECDBFDF91EA
:102BC000CF911F910F910C940F170F931F93CF93D9
:102BD000DF93CDB7DEB764970FB6F894DEBF0FBEB4
:102BE000CDBFE091960AF091970A678170E080E08E
:102BF00090E00E948F168E010F5F1F4F20E040E093
:102C00000E94CC1620916A0430916B04BC01C9016A
:102C100085599C4F0E94231780916A0490916B0400
:102C200066E474E085599C4F0E940F17E091960A64
:102C3000F091970A608570E080E090E00E948F1626
:102C400020E040E00E94CC1620916A0430916B0491
:102C5000BC01C90185599C4F0E940F1780916A04DD
:102C600090916B0468E474E085599C4F0E940F17A3
:102C700064960FB6F894DEBF0FBECDBFDF91CF9143
:102C80001F910F910895DB018F939F930E948416EB
:102C9000BF91AF91A29F800D911DA39F900DB29FF8
:102CA000900D11240895A1E21A2EAA1BBB1BFD0151
:102CB0000DC0AA1FBB1FEE1FFF1FA217B307E4071B
:102CC000F50720F0A21BB30BE40BF50B661F771F73
:102CD000881F991F1A9469F7609570958095909553
:102CE0009B01AC01BD01CF010895A29FB001B39F2C
:102CF000C001A39F700D811D1124911DB29F700D05
:102D0000811D1124911D08950E947516A59F900D97
:102D1000B49F900DA49F800D911D11240895E894F7
:102D200009C097FB3EF490958095709561957F4F13
:102D30008F4F9F4F9923A9F0F92F96E9BB279395C1
:102D4000F695879577956795B795F111F8CFFAF4D1
:102D5000BB0F11F460FF1BC06F5F7F4F8F4F9F4F02
:102D600016C0882311F096E911C0772321F09EE860
:102D7000872F762F05C0662371F096E8862F70E0C6
:102D800060E02AF09A95660F771F881FDAF7880FA0
:102D90009695879597F90895EF920F931F93CF9388
:102DA000DF93E80147FF02C034E101C034E0E42FC3
:102DB000FF27E7FDF095F7FF03C0F195E195F109D5
:102DC000E32E022F2E2FAE010E94BF17CE01DF91FE
:102DD000CF911F910F91EF900895662777270C945C
:102DE0003D19FC0188279927E89421912032E9F3C5
:102DF000293010F02E30C8F32B3241F02D3239F447
:102E0000689404C00E944417820F911D21912053A1
:102E10002A30C0F31EF4909581959F4F0895FB01D1
:102E2000DC010D900020E9F7119701900D92002030
:102E3000E1F70895FB01DC018D91019080190110EB
:102E4000D9F3990B0895FB01DC0101900D9200204C
:102E5000E1F70895BB274A3031F4992322F4BDE20B
:102E6000909581959F4F0C946F17BB272A3051F492
:102E7000992342F4BDE290958095709561957F4FBE
:102E80008F4F9F4F0C944D177AE0979F902D879FFF
:102E9000802D910D11240895BB27FA01A62F6217EA
:102EA000710581059105330B30FB66F0AA27660F8B
:102EB000771F881F991FAA1FA21710F0A21B6395E6
:102EC0003850A9F7A05DAA3308F0A95DA19336F7A1
:102ED000B111B1931082CA010C94A61BBB27FB0150
:102EE0005527AA27880F991FAA1FA41710F0A41B03
:102EF00083955051B9F7A05DAA3308F0A95DA1935D
:102F0000009779F7B111B1931192CB010C94A61BE4
:102F1000E199FECF9FBB8EBBE09A99278DB30895B0
:102F2000A6E1B0E044E050E00C94431CA8E1B0E01E
:102F300042E050E00C94431C262FE199FECF9FBB4A
:102F40008EBBE09A01970DB2021631F02DBB0FB681
:102F5000F894E29AE19A0FBE08950396272F0E94F3
:102F60009D170E949C17252F0E949D17242F0C94BB
:102F70009D170196272F0E949D170C949C176F9206
:102F80007F929F92AF92BF92CF92DF92EF92FF9289
:102F90000F931F93CF93DF93CDB7DEB729970FB66B
:102FA000F894DEBF0FBECDBF6A01B22E102F0C33D6
:102FB00020F4FF24F394F00E02C04CE3F42E0F2D06
:102FC00027E0AE014F5F5F4F0E94AE1A7981272F35
:102FD0002970213031F0E1FC06C0E0FC06C060E061
:102FE00005C06DE203C06BE201C060E2AE2DA071CE
:102FF00073FF36C0662311F084E001C083E08B15B7
:1030000010F4B81A01C0B12CA1110BC0F6018B2D20
:1030100090E2882319F091938150FBCFCB0CD11C07
:10302000B12C662331F0F601608396012F5F3F4F8C
:103030006901C6010396E2FE05C02EE4F601208375
:1030400031E404C02EE6F601208331E63183228389
:10305000FC012B2D30E22223F1F131932150FBCFE3
:1030600072FF40C0662311F084E001C083E08B153D
:1030700010F4B81A01C0B12CA1110BC0F6018B2DB0
:1030800090E2882319F091938150FBCFCB0CD11C97
:10309000B12C662331F0F601608396012F5F3F4F1C
:1030A0006901C6010396E2FE07C029E4F601208308
:1030B0002EE4218326E406C029E6F60120832EE6CD
:1030C000218326E62283FC012B2D30E2222319F0F6
:1030D00031932150FBCFFC01EB0DF11D10828EEFDF
:1030E0009FEFB7C0B1E0611101C0B0E04B2F50E0DD
:1030F0001816190624F49C012F5F3F4F02C021E0EF
:1031000030E0240F351F112329F0412F50E04F5F8D
:103110005F4F02C040E050E0420F531F2B2D30E0C4
:103120004217530714F4B41A01C0B12C2E2D287184
:1031300059F4F6012B2D30E2222319F0319321505E
:10314000FBCFCB0CD11CB12CBB2331F0F60160833B
:1031500096012F5F3F4F6901A1110BC0F6012B2D86
:1031600030E3222319F031932150FBCFCB0CD11C3B
:10317000B12CF80E0A81372F3071A32E74FF03C0D3
:10318000013309F4FA941F142CF42F2D293018F070
:1031900028E001C021E0682F392F97FF02C060E0CE
:1031A00030E0462F532F612C712C3EE2932EBC0150
:1031B000621B71099B01DC01A41BB50BE1E0F0E08F
:1031C000EC0FFD1FAE0FBF1FE12EF12CF194E19427
:1031D000F1084F3FFFEF5F0731F4F6019082B6012F
:1031E0006F5F7F4F6B01841795074CF024173507ED
:1031F00034F4BD01660D771DFB01118101C010E3A0
:1032000041505109FFEF6F1A7F0AB6016F5F7F4F80
:103210004E155F0524F0F60110836B01DACF4817D5
:10322000590739F4063320F4053319F4A11001C00D
:1032300011E3F6011083FB018B2D90E2882319F036
:1032400091938150FBCFFB01EB0DF11D108280E0CB
:1032500090E029960FB6F894DEBF0FBECDBFDF9188
:10326000CF911F910F91FF90EF90DF90CF90BF9083
:10327000AF909F907F906F9008958F929F92AF92A2
:10328000BF92CF92DF92EF92FF920F931F93CF9353
:10329000DF938B016115710521F0DB018C93119691
:1032A0009C93EC015E01BFEFAB1ABB0A7501C880AD
:1032B0008C2D90E00E94861B892B11F0E501F2CF46
:1032C000EDE2CE1208C07E01F2E0EF0EF11CC980E3
:1032D000DD24D39409C02BE2C21205C07E0142E076
:1032E000E40EF11CC980D12CE701219743E050E0A6
:1032F0006AE571E0CE010E948E1B892BC1F42396F2
:1033000045E050E065E571E0CE010E948E1B892BFF
:1033100009F425960115110519F0D801CD93DC9318
:10332000D11006C160E070E080E89FE70AC143E089
:1033300050E062E571E0CE010E948E1B892B59F4AA
:103340000115110509F4F9C0B2E0EB0EF11CF8010A
:10335000F182E082F2C0F70160E070E0CB01C0E0F2
:10336000D0E07F01A0EDAA2EAC0C29E02A1530F1A7
:103370004D2D4260B42E2D2D2870D2FE04C0211197
:1033800025C0219623C021112197A5E0B0E09B0123
:10339000AC010E948416660F771F881F991F6A0D63
:1033A000711D811D911D6839A9E97A078A07A9E174
:1033B0009A0760F0BD2DB660BB2E08C02EEFA2129A
:1033C0000AC0D3FC50C04D2D4860B42E3196D701B1
:1033D000CC90DB2CC6CF2C2D2F7D253409F043C09B
:1033E000A081AD3241F4BD2DB061DB2E7F0122E022
:1033F000E20EF11C0CC07F01AB3231F04FEFE41A4A
:10340000F40A21E030E006C0A2E0EA0EF11CA1813E
:1034100022E030E0A053AA3018F0E21AF30A23C0E9
:10342000F70120E030E02038BCE03B075CF4A90164
:10343000440F551F440F551F240F351F220F331FF4
:103440002A0F311DAF014F5F5F4F7A01A081A0535A
:10345000AA3010F4FA01E7CFD4FE03C031952195CC
:103460003109C20FD31FD1FE09C00115110531F07A
:10347000E1E0EE1AF108D801ED92FC920E948F165D
:103480002D2D2370233019F04B015C0106C04B0138
:103490005C01B7FAB094B7F8B09420E030E0A9012D
:1034A000C501B4010E94B61B882309F43EC0D7FFB2
:1034B00006C0D195C195D10901E711E002C009E824
:1034C00011E06801B8E1CB1AD10890E2E92EF12CA5
:1034D000CE15DF0574F0F801259135914591549191
:1034E000C501B4010E94DE1B4B015C01CE19DF094E
:1034F000EFCF04501109F594E7940C151D0541F721
:103500008A2D880F8B2D881F8F3F49F020E030E0F7
:10351000A901C501B4010E94B61B811106C082E257
:1035200090E09093A00A80939F0AC501B40109C05E
:1035300060E070E080E89FEF04C060E070E080EC45
:103540009FE7DF91CF911F910F91FF90EF90DF9058
:10355000CF90BF90AF909F908F900895283008F043
:1035600027E03327DA01990F311D87FD916000961E
:103570006105710539F432602E5F3D9330E32A9581
:10358000E1F708959F3F30F080387105610509F03B
:103590003C5F3C5F3D93913008F08068911DDF9364
:1035A000CF931F930F93FF92EF92192F987F9695C9
:1035B000E92F96959695E90FFF27E951FE4F992738
:1035C0003327EE24FF24A701E70105900894079410
:1035D00028F4360FE71EF81E491F511D660F771F8E
:1035E000881F991F0694A1F70590079428F4E70E09
:1035F000F81E491F561FC11D770F881F991F661F90
:103600000694A1F70590079428F4F80E491F561F59
:10361000C71FD11D880F991F661F771F0694A1F73A
:103620000590079420F4490F561FC71FD81F990F04
:10363000661F771F881F0694A9F78491109517704D
:1036400041F0D695C79557954795F794E7941A9505
:10365000C1F7EDE8F1E06894159015913591659109
:10366000959105907FE27395E118F10A430B560B93
:10367000C90BD009C0F7E10CF11E431F561FC91F2B
:10368000D01D7EF4703311F48A95E6CFE894015092
:1036900030F0080F0AF40027021708F4202F2395B2
:1036A000022F7A3328F079E37D932A95E9F710C049
:1036B0007D932A9589F60694979567953795179582
:1036C0001794E118F10A430B560BC90BD00998F077
:1036D00023957E9173957A3308F070E37C932013E1
:1036E000B8F77E9170617D9330F0839571E37D939F
:1036F00070E32A95E1F71124EF90FF900F911F914D
:10370000CF91DF91992787FD909508959111C9C0B8
:10371000803219F089508550D0F70895FB01DC0103
:103720004150504088F08D9181341CF08B350CF461
:10373000805E659161341CF06B350CF4605E861B15
:10374000611171F3990B0895881BFCCFDC01FC011A
:10375000672F71917723E1F7329704C07C916D93C5
:1037600070836291AE17BF07C8F3089503D008F4C1
:1037700081E00895990F0008550FAA0BE0E8FEEFCD
:1037800016161706E807F907C0F012161306E40725
:10379000F50798F0621B730B840B950B39F40A261E
:1037A00061F0232B242B252B21F408950A2609F4FC
:1037B000A140A6958FEF811D811D08950BD08BC070
:1037C0007CD028F081D018F0952309F06DC072C02C
:1037D0001124B5C091D0A0F3959FD1F3950F50E07F
:1037E000551F629FF001729FBB27F00DB11D639FB3
:1037F000AA27F00DB11DAA1F649F6627B00DA11D59
:10380000661F829F2227B00DA11D621F739FB00DFE
:10381000A11D621F839FA00D611D221F749F33276E
:10382000A00D611D231F849F600D211D822F762F07
:103830006A2F11249F5750408AF0E1F088234AF004
:10384000EE0FFF1FBB1F661F771F881F9150504050
:10385000A9F79E3F510570F027C071C05F3FECF3A0
:10386000983EDCF3869577956795B795F795E7953C
:103870009F5FC1F7FE2B880F911D9695879597F94D
:103880000895DC01CB01FC01E199FECF06C0FFBB2E
:10389000EEBBE09A31960DB20D9241505040B8F710
:1038A000089599278827089597F99F6780E870E021
:1038B00060E008959FEF80EC089500240A941616A6
:1038C000170618060906089500240A94121613060E
:1038D000140605060895092E0394000C11F488239C
:1038E00052F0BB0F40F4BF2B11F460FF04C06F5FB8
:1038F0007F4F8F4F9F4F089557FD9058440F551F8E
:1039000059F05F3F71F04795880F97FB991F61F061
:103910009F3F79F087950895121613061406551FD8
:10392000F2CF4695F1DF08C0161617061806991F44
:10393000F1CF86957105610508940895E894BB2739
:0E39400066277727CB0197F90895F894FFCFFB
:10394E0047106E102B10C710E611FB11000000007F
:10395E0020202020202020202020202020204279DE
:10396E00746573004E6F74206120636F72726563AD
:10397E00742076616C7565004261642072657175A4
:10398E0065737420210D0A0009000D7061732064A7
:10399E00652063617274650A000D696E69746961F0
:1039AE006C69736174696F6E206120C3A963686F5F
:1039BE0075C3A90A000D766572312E780A000D5373
:1039CE004448430A000D766572322E780A000D7552
:1039DE006E6B6E6F776E20536420636172640A00A3
:1039EE002424004E6F7420612072657175657374A6
:1039FE0020210D0A0074696D657374616D70006F1E
:103A0E0075747075740073706565643100737065DC
:103A1E00656432006465677265650074656D70007B
:103A2E00616320706F77657200646320706F7765D5
:103A3E00720072706D0074696D657374616D702CB7
:103A4E007370656564312C7370656564322C6465C2
:103A5E00677265652C74656D702C6163506F776548
:103A6E00722C6463506F7765722C72706D0A000D44
:103A7E007061732064652063617274652073642CB9
:103A8E0020696E73C3A972657A20756E65206461B4
:103A9E006E73206C65206CC3A963746575720A0D14
:103AAE000076302E352E302066736D2C7274632C9A
:103ABE006D6561737572652070726F636573732CBB
:103ACE00636F6E666967203A206F6B2C2064657693
:103ADE00206F75747075740D0A0077616B652075B3
:103AEE00703A00436F6E66696775726174696F6EC6
:103AFE00203A0D0A004C6F67676572203A0D0A0076
:103B0E002430303D002430313D0020313A205541E3
:103B1E00525430204F6E6C792C20323A20312B5378
:103B2E004420636172642C20333A20312B4750526B
:103B3E00530D0A0054696D65203A0D0A0024313187
:103B4E003D00207365636F6E64730D0A002431327D
:103B5E003D00206D696E757465730D0A0024313356
:103B6E003D0020686F7572730D0A002431343D00DC
:103B7E0020303A73752C313A6D6F2C2E2E2E2C363A
:103B8E003A73610D0A002431353D00206D6F6E745D
:103B9E0068206461790D0A002431363D0020796574
:103BAE006172206D6F6E74680D0A002431373D000E
:103BBE00207965617220283136202D203939290D62
:103BCE000A0053656E736F7273203A0D0A00243229
:103BDE00303D0020616E656D6F3120666163746FDC
:103BEE00720D0A002432313D0020616E656D6F3119
:103BFE00206F66667365740D0A0041432077617409
:103C0E00746D657465720D0A002433303D002061B9
:103C1E006320766F6C74616765206F66667365747A
:103C2E002C206E6F726D616C6C7920322E353030B7
:103C3E002C2073656E64205820746F20757064613B
:103C4E0074650D0A002433313D00206163206375D5
:103C5E007272656E74206F66667365742C206E6F5B
:103C6E00726D616C6C7920322E3530302C2073657C
:103C7E006E64205820746F207570646174650D0A2F
:0E3C8E00002C003B0A005F002E6373760000DE
:00000001FF
